:020000040000fa
:10000000f03f002091060000cf080000d10800005a
:1000100000000000000000000000000000000000e0
:10002000000000000000000000000000cd080000fb
:100030000000000000000000cd08000005080000de
:10004000cd080000cd080000cd080000cd0800005c
:10005000cd080000cd080000cd080000cd0800004c
:10006000cd080000cd08000045020000cd080000ca
:10007000cd080000cd080000d9000000cd08000028
:10008000cd080000cd080000cd080000cd0800001c
:10009000cd0800000000000000000000cd080000b6
:1000a000cd080000cd080000cd080000cd080000fc
:0800b00000000000cd08000073
:020000040000fa
:1000b800f8b5c046f8bc08bc9e46704771060000fb
:1000c800f8b5c046f8bc08bc9e4670474906000013
:020000040000fa
:1000d800f0b5c64600b5574b9b7d002b17d0554a47
:1000e800137edbb2927d52b2002a13db514a137e93
:1000f800dbb2927dd20702d5db0700d582e04d4afc
:10010800137edbb2927d520701d55b074bd404bc4a
:100118009046f0bd5bb2002be8da464b5b8b0722ba
:100128001340e3d0444ce38500f026fb414b842286
:100138001a752c230022e254636a002bd6d03e4a5b
:10014800906a9847d2e7bb68f35c0b8593680133e4
:100158009360936898460b7e23420bd0404509d99b
:100168004b682b40012beed163469b685b009b5b81
:100178000b85ebe7304b9a685b689a42bfd32e4bee
:1001880000221a755a602b4a01211175db68002b71
:10019800b5d0294a10699847b1e727490a6a896999
:1001a8005200535215e0244a2c23d35c002baed0c6
:1001b800214b1a6adb699a42a9d21e4a138d9bb257
:1001c800516807220a40012ae7d01b4a116a92693e
:1001d8005354194b1a6a01321a621a6adb699a4235
:1001e80000d094e7144b00222c215a54da61114aaa
:1001f800583111755b6a002b00d188e70e4a906a66
:10020800984784e70c4b1b7d002b00d177e70a4bfe
:100218009a685868074b1b7edb07abd58242a9d288
:10022800054b1e68034907259c461f001a00012438
:0c02380096e7c046001c00425000002069
:020000040000fa
:1002440070b5364b1c7ee4b29b7d23423ad0a307a3
:1002540013d5334a012313709370304b5b8bdb0649
:10026400db0f53705368002b1ad091680120984714
:10027400002828d0002000f05df9630710d5284b32
:100284005d68002d0cd000f0fffa002823d1244b28
:1002940099680230a847002819d0002000f04af9d4
:1002a400e3070cd51e4b00221a705b68002b03d0a9
:1002b4001b4a916804209847184b01221a7664b2ad
:1002c400002c1edb70bd012000f034f9d5e70120bd
:1002d40000f030f9e4e700f0dffa002803d0104b17
:1002e4009b78002b09d00e4eb1680320a847002349
:1002f400b370022000f01ef9d2e7032000f01af9cf
:10030400cee7074b5b68002b03d0054a91680520b4
:100314009847024b80221a76d4e7c046000c00426c
:040324009c00002019
:020000040000fa
:10032800244b00229a619a8c80218a439a841a006d
:100338001023d1680b42fcd01f4b1b689b0e3f2b30
:1003480035d09b028022920013431a4a93621023ed
:10035800d1680b42fcd0174b02229a841a00102352
:10036800d1680b42fcd0154b04221a72144b154a63
:100378005a60f02212019a601a0053785bb2002b7f
:10038800fbdb0f4b104a5a60104a9a601a005378e8
:100398005bb2002bfbdb0a4b0d4a5a800d4a5a8090
:1003a800064b0d4a1a62034b00221a627047203b23
:1003b800c7e7c046000800402460800000040040f1
:1003c800000c0040000701000107010001f00000d7
:0c03d800154100001940000088000100e1
:020000040000fa
:1003e40070b500282fd0194b1a7d0023002a26d17e
:1003f400164b1860596001321a75154b1b7edb07ca
:1004040016d500291dd00023114c0726012507e02d
:10041400c25c22850133227e2a420ad0994208d93d
:1004240062683240012af3d15a00825a2285f1e7e8
:100434000023064a9360064b01229a750123180093
:1004440070bd0b00f5e70023f9e7c046500000201b
:04045400001c004246
:020000040000fa
:100458000021f0b5174b184a934208d30027174ad2
:1004680013685168002b05d1002903d1f0bd19701c
:100478000133f1e7100095680c305c18002d16d098
:100488000b25ed1a5219a3420ad10b00032213407f
:100498005a1e934189085918890040180200dfe75d
:1004a8005d1cae5c1e702b00ede71f700133a3428c
:1004b800fbd1f3e70000002000000020c804000082
:020000040000fa
:1004c800800000201c000000000000009c000020ac
:1004d8000c00000000000000500000203000000068
:1004e80000000000a80000200c0000000000000030
:1004f800bc0000200100000000000000b400002043
:10050800040000000000000000000020500000006f
:1005180000000000b80000200400000000000000f7
:1005280000000000000000004444444444444444a3
:020000040000fa
:10053800002808d112494b68124a1a40c0239b026e
:1005480013434b60704701280cd0022811d00328b0
:10055800f8d10b494b680c4a1a4080239b0213437d
:100568004b60efe7064a5168e023db020b43536018
:10057800e8e7034a5168c0239b020b435360e1e755
:0c058800000c0042fffff8fffffffcff2b
:020000040000fa
:1005940000230e4a10b513600d4a13600d4a136010
:1005a4000d4a13600d4a13600d4a536213610133ff
:1005b400936000f08df900f08bf90a4c0a4b9c42d1
:1005c40000d310bd08cc9847f8e7c046b800002017
:1005d4000c0000200800002000000020040000207f
:0c05e40010000020c4000000c80000004f
:020000040000fa
:1005f000114b124a1a60124a9a81c02292025a6022
:100600001a00d369002bfcd10b4a136802210b435b
:100610001360d369002bfcd10a4b00229a61da6186
:100620001a622c215a545a621a605a609a601a75da
:10063000da60da857047c046001c004204012040a1
:08064000b6f3ffff500000209b
:020000040000fa
:1006480010b5064c2378002b07d1054b002b02d0a0
:10065800044800e000bf0123237010bd8000002083
:100668000000000000000000044b10b5002b03d070
:100678000349044800e000bf10bdc0460000000068
:080688008400002000000000c6
:020000040000fa
:1006900010b50a4b98470a4b984700f013f9094bdd
:1006a000ff229343084a9360084b9847084b9847aa
:1006b000084b984700f0d4f8fee7c046d308000086
:1006c000d30800000000000000ed00e095050000e8
:0806d000d3080000d30800006c
:020000040000fa
:1006d8000d4b01221a601a00d369002bfcd10a4b7a
:1006e8000a4a1a601a00d369002bfcd1064b4e2225
:1006f8005a6239329a751a6802210a431a601a0036
:10070800d369002bfcd17047000c00421000100088
:020000040000fa
:1007180010b5bff35f8f62b60a4bc22080001a582b
:10072800094c2240c02109040a431a508022d200f1
:100738001a6004301a582240114319508022d201fd
:0c0748001a6010bd00e100e0ffff00ffa0
:020000040000fa
:10075400094b012250215a5401315a5405315a543b
:100764001e39222058543539193019549b301a54e3
:0c077400ba3299547047c046004400415e
:020000040000fa
:10078000094b5b8b5b070dd0074b80221a76793ab9
:100790005a831b7e5b0705d5034b04211a8d1a7ef5
:0c07a0000a42fbd17047c046001c00421a
:020000040000fa
:1007ac0010b5094b06225a60fff7cefffff7b6fdd6
:1007bc0000f076f8fff78aff00f030f8fff712ff31
:0c07cc00fff7a4ff10bdc0460040004134
:020000040000fa
:1007d80010b500f04df8074b984201d1012010bd2b
:1007e80000f02ef8044b187001211800fff7f6fdf1
:0c07f800f4e7c04643020000bc000020f3
:020000040000fa
:1008040010b5064b1b68064b9a6801329a601b6848
:10081400002b02d0024a5068984710bd10e000e057
:04082400a800002008
:020000040000fa
:10082800054a002313609360c7215160c1391160e4
:10083800024a93601360704710e000e0a8000020af
:020000040000fa
:10084800044ad369002bfcd1024a2833d05cc0b2d9
:080858007047c046000c00428d
:020000040000fa
:1008600010b50020fff7a2ff0021024800f024f895
:08087000fee7c046d9070000b5
:020000040000fa
:10087800024a508b024b538318407047000c0042c9
:040888004302000027
:020000040000fa
:10088c00024b588b0007c00f7047c046000c00424b
:020000040000fa
:10089c00024b588b4007c00f7047c046000c0042fb
:020000040000fa
:0c08ac00014b80225a6070470040004160
:020000040000fa
:0c08b800014b5860996070479c000020c4
:020000040000fa
:0808c40010b5fff7c7fd10bde0
:020000040000fa
:0208cc00fee745
:020000040000fa
:0208ce00fee743
:020000040000fa
:0208d000fee741
:020000040000fa
:0208d20070476d
:020000040000fa
:0208d40070476b
:020000040000fa
:0200000400807a
:0440000077c700d8a6
:020000040000fa
:0200000400807a
:044004005c00ffff5e
:00000001FF
