:020000040000fa
:10000000f83f0020d1020000bb040000bd04000046
:1000100000000000000000000000000000000000e0
:10002000000000000000000000000000b904000013
:100030000000000000000000b9040000d50300002b
:10004000b9040000b9040000b9040000b9040000bc
:10005000b9040000b9040000b9040000b9040000ac
:10006000b9040000b9040000b9040000b90400009c
:10007000b9040000b9040000b9040000b90400008c
:10008000b9040000b9040000f9030000b90400003d
:10009000b90400000000000000000000b9040000e6
:1000a000b9040000b9040000b9040000b90400005c
:0800b00000000000b90400008b
:020000040000fa
:1000b800f8b5c046f8bc08bc9e467047b1020000bf
:1000c800f8b5c046f8bc08bc9e46704789020000d7
:020000040000fa
:1000d8001e4b00229a619a8c80218a439a841a00c6
:1000e8001023d1680b42fcd0194b1b689b0e3f2b89
:1000f8002ad09b02802292001343144a9362102351
:10010800d1680b42fcd0114b02229a841a001023aa
:10011800d1680b42fcd00f4b03221a720e4b0f4ac8
:100128005a60a02212019a601a0053785bb2002b21
:10013800fbdb094b0a4a5a80064b842252021a6298
:10014800024b00221a627047203bd2e700080040a9
:100158002460800000040040000c004000070100fb
:040168001b40000038
:020000040000fa
:10016c000021f0b5174b184a934208d30027174ac1
:10017c0013685168002b05d1002903d1f0bd19700b
:10018c000133f1e7100095680c305c18002d16d087
:10019c000b25ed1a5219a3420ad10b00032213406e
:1001ac005a1e934189085918890040180200dfe74c
:1001bc005d1cae5c1e702b00ede71f700133a3427b
:1001cc00fbd1f3e700000020000000203802000003
:020000040000fa
:1001dc0000230e4a10b513600d4a13600d4a1360cc
:1001ec000d4a13600d4a13600d4a536213610133bb
:1001fc00936000f05ff900f05df90a4c0a4b9c42e9
:10020c0000d310bd08cc9847f8e7c0468400002006
:10021c000c0000200800002000000020040000203a
:0c022c0010000020c4000000c80000000a
:020000040000fa
:10023800500000201c000000000000006c0000209e
:100248000c000000000000007800002008000000fa
:1002580000000000800000200400000000000000f2
:100268000000002050000000000000008400002072
:100278000400000000000000000000000000000072
:020000040000fa
:1002880010b5064c2378002b07d1054b002b02d064
:10029800044800e000bf0123237010bd5000002077
:1002a8000000000000000000044b10b5002b03d034
:1002b8000349044800e000bf10bdc046000000002c
:0802c8005400002000000000ba
:020000040000fa
:1002d00010b50a4b98470a4b984700f0e9f8094bcc
:1002e000ff229343084a9360084b9847084b98476e
:1002f000084b984700f0a2f8fee7c046bf04000094
:10030000bf0400000000000000ed00e0dd0100007f
:08031000bf040000bf0400005f
:020000040000fa
:100318000d4b01221a801a00d37b5bb2002bfbdb4a
:10032800094bec22d2001a80084a1a833b229a739e
:10033800074a0021116001225a731a00d37b5bb26d
:10034800002bfbdb7047c046002c00429f240000b6
:040358007800002009
:020000040000fa
:10035c00bff35f8f62b6074bc42080001a58064962
:10036c001140c02212040a431a508022d2021a6091
:0c037c007047c04600e100e0ffff00fffa
:020000040000fa
:1003880010b5084b06225a6000f044f8fff7a0feab
:1003980000f07ef800f008f8fff7bafffff7daff81
:0803a80010bdc04600400041f9
:020000040000fa
:1003b000054a0023136093600449516006211160cf
:1003c000034a93601360704710e000e0570200009a
:0403d0006c0000209d
:020000040000fa
:1003d40010b5064b1b68064b9a6801329a601b687d
:1003e400002b02d0024a5068984710bd10e000e08c
:0403f4006c00002079
:020000040000fa
:1003f80010b5064b987bc0b23b229a73044b1b681e
:10040800002b02d0024a5168984710bd002c0042c8
:040418007800002048
:020000040000fa
:10041c00064bc02212021a6002224e215a5401319c
:10042c005a543532002199547047c046004400415b
:020000040000fa
:10043c0010b50020fff7a2ff00f016f800f008f846
:10044c000021024800f028f8fee7c04689040000ad
:020000040000fa
:10045c00044a138802210b431380d37b5bb2002b1d
:08046c00fbdb7047002c00428d
:020000040000fa
:10047400034b00229a601a6801210a431a607047ec
:0404840010e000e0a4
:020000040000fa
:10048800024b8022d201da617047c0460044004125
:020000040000fa
:0c049800014b80225a6070470040004178
:020000040000fa
:0c04a400014b1860596070477800002080
:020000040000fa
:0804b00010b5fff75bfe10bd63
:020000040000fa
:0204b800fee75d
:020000040000fa
:0204ba00fee75b
:020000040000fa
:0204bc00fee759
:020000040000fa
:0204be00704785
:020000040000fa
:0204c000704783
:020000040000fa
:0200000400807a
:0440000077c700d8a6
:020000040000fa
:0200000400807a
:044004005c00ffff5e
:00000001FF
