:020000040000fa
:10000000f83f0020590a0000df0b0000e10b000060
:1000100000000000000000000000000000000000e0
:10002000000000000000000000000000dd0b0000e8
:100030000000000000000000dd0b0000dd0b0000f0
:10004000dd0b0000dd0b0000dd0b0000dd0b000010
:10005000dd0b0000dd0b000031060000dd0b0000b1
:10006000dd0b00002903000045020000dd0b00004d
:10007000dd0b0000dd0b0000d9000000dd0b0000ef
:10008000dd0b0000dd0b0000dd0b0000dd0b0000d0
:10009000dd0b00000000000000000000dd0b000090
:1000a000dd0b0000dd0b0000dd0b0000dd0b0000b0
:0800b00000000000dd0b000060
:020000040000fa
:1000b800f8b5c046f8bc08bc9e467047390a00002f
:1000c800f8b5c046f8bc08bc9e467047110a000047
:020000040000fa
:1000d800f0b5c64600b5574b9b7d002b17d0554a47
:1000e800137edbb2927d52b2002a13db514a137e93
:1000f800dbb2927dd20702d5db0700d582e04d4afc
:10010800137edbb2927d520701d55b074bd404bc4a
:100118009046f0bd5bb2002be8da464b5b8b0722ba
:100128001340e3d0444ce38500f010fd414b84229a
:100138001a752c230022e254636a002bd6d03e4a5b
:10014800906a9847d2e7bb68f35c0b8593680133e4
:100158009360936898460b7e23420bd0404509d99b
:100168004b682b40012beed163469b685b009b5b81
:100178000b85ebe7304b9a685b689a42bfd32e4bee
:1001880000221a755a602b4a01211175db68002b71
:10019800b5d0294a10699847b1e727490a6a896999
:1001a8005200535215e0244a2c23d35c002baed0c6
:1001b800214b1a6adb699a42a9d21e4a138d9bb257
:1001c800516807220a40012ae7d01b4a116a92693e
:1001d8005354194b1a6a01321a621a6adb699a4235
:1001e80000d094e7144b00222c215a54da61114aaa
:1001f800583111755b6a002b00d188e70e4a906a66
:10020800984784e70c4b1b7d002b00d177e70a4bfe
:100218009a685868074b1b7edb07abd58242a9d288
:10022800054b1e68034907259c461f001a00012438
:0c02380096e7c046001c00425004002065
:020000040000fa
:1002440010b5334b1c7ee4b21b7e1b074dd4304be0
:100254005b8b5b0710d504222e4bda602c4b5a8340
:100264001b7e5b0705d52a4b04219a6a1a7e0a4233
:10027400fbd1274b80221a76254b1b7e5b070cd5be
:10028400234b9a6a234b9b69ff2b06d8214b996910
:10029400214842549a6901329a611d4b1b7edb0747
:1002a40012d51c4b5a691b699a422dd2194b5a69b3
:1002b4001a49895c5a6901325a61154b1b7e9b07a6
:1002c40000d50224124b9962a3070dd5104b0222cc
:1002d4001a76104b00221a705a611a615b68002b5f
:1002e40002d00c4a9068984710bd094b08221a7630
:1002f400063a9a75074b00229a6101321a7001215d
:10030400074800f059fca2e7014b01221a75dbe70c
:10031400000c0042fc04002000000020000100202a
:040324000044004150
:020000040000fa
:1003280010b5334b1c7ee4b21b7e1b074dd4304bfb
:100338005b8b5b0710d504222e4bda602c4b5a835b
:100348001b7e5b0705d52a4b04219a6a1a7e0a424e
:10035800fbd1274b80221a76254b1b7e5b070cd5d9
:10036800234b9a6a234b9b69ff2b06d8214b99692b
:10037800214842549a6901329a611d4b1b7edb0762
:1003880012d51c4b5a691b699a422dd2194b5a69ce
:100398001a49895c5a6901325a61154b1b7e9b07c1
:1003a80000d50224124b9962a3070dd5104b0222e7
:1003b8001a76104b00221a705a611a615b68002b7a
:1003c80002d00c4a9068984710bd094b08221a764b
:1003d800063a9a75074b00229a6101321a70012178
:1003e800074800f0e7fba2e7014b01221a75dbe79b
:1003f8000008004218050020000200200003002029
:04040800004400416b
:020000040000fa
:10040c00f0b52e4e3f25745de4b2705506012c4daf
:10041c00ad192d7b002d05d0284e4e25765d00257f
:10042c00b6073bd0254e4e25032777550501244ea4
:10043c007619023f3773234ead5b6d0533d5c91862
:10044c000601204dad19696001011e4d495b09057e
:10045c002ed5d21805011b4949198a601949050185
:10046c006a5a9205920fd3409bb249194b80134a9a
:10047c004021535c02252b435354516c536c9b0409
:10048c009b0e08220a4013430125002b06d10b4a70
:10049c001169012383400b4313610125074a3f2354
:1004ac00d4542800f0bd0601064dad196960cbe7a8
:1004bc000501044949198a60d0e7c046004800414b
:0804cc00a004002080040020c0
:020000040000fa
:1004d400e00400201c0000000000000000000020d8
:1004e40000010000000000000001002000010000e5
:1004f40000000000fc0400201c00000000000000bc
:100504003405002009000000000000005004002011
:1005140030000000000000008004002020000000e3
:1005240000000000a00400202000000000000000e3
:10053400c004002020000000000000000002002091
:100544000001000000000000000300200001000082
:1005540000000000180500201c000000000000003e
:1005640040050020040000000000000000040020fa
:1005740050000000000000004405002004000000ba
:100584000000000000000000000000004444444457
:020000040000fa
:100594001d4b00229a619a8c80218a439a841a0006
:1005a4001023d1680b42fcd0184b1b689b0e3f2bc9
:1005b40027d09b02802292001343134a9362102394
:1005c400d1680b42fcd0104b02229a841a001023eb
:1005d400d1680b42fcd00e4b0e4a5a601a00537875
:1005e4005bb2002bfbdb0a4b0b4a5a800b4a5a8046
:1005f4000b4a5a800b4b0c4a1a62034b00221a62b4
:100604007047203bd5e7c0460008004024608000c6
:10061400000c0040000701001440000015400000d9
:0c06240019400000000400408c000100a0
:020000040000fa
:1006300030b583b0002301931a4a118c0f330b405d
:100640003f21545ce4b253540f31525cd2b2019258
:10065000019a0220920708d512494e2288541901a6
:10066000114a5218002111730138019ad20709d595
:100670000c494e220120885419010b4a52180021be
:10068000117301301901084a52185568002d03d022
:10069000054a53189968a847024a3f23d45403b027
:0c06a00030bdc04600480041a00400200e
:020000040000fa
:1006ac0070b500282fd0194b1a7d0023002a26d1b3
:1006bc00164b1860596001321a75154b1b7edb07ff
:1006cc0016d500291dd00023114c0726012507e063
:1006dc00c25c22850133227e2a420ad0994208d973
:1006ec0062683240012af3d15a00825a2285f1e71e
:1006fc000023064a9360064b01229a7501231800c9
:10070c0070bd0b00f5e70023f9e7c046500400204c
:04071c00001c00427b
:020000040000fa
:100720000021f0b5174b184a934208d30027174a07
:1007300013685168002b05d1002903d1f0bd197051
:100740000133f1e7100095680c305c18002d16d0cd
:100750000b25ed1a5219a3420ad10b0003221340b4
:100760005a1e934189085918890040180200dfe792
:100770005d1cae5c1e702b00ede71f700133a342c1
:10078000fbd1f3e70000002000000020d4040000ab
:020000040000fa
:10079000f0b5114a0021516091601173516191616e
:1007a00011770e480e4b58630e4c9c630e4c5c61e7
:1007b0003f27d9550d4959640d4e0680012111700e
:1007c0004d2403251d55d9550a4f5f6406821174c7
:1007d0001d55094a1a80f0bda004002080040020a5
:1007e00000480041c0040020818181810003800015
:0c07f0000908000000018000020f00005a
:020000040000fa
:1007fc0030b5bff35f8f62b6134bc1208000195820
:10080c00124c2140c022120411431950402119608e
:10081c00043019580e4d0d40c021090229431950be
:10082c0080218900196019582140114319508021e9
:10083c00c90019600430195821400a431a5080220b
:10084c00d2011a6030bdc04600e100e0ffff00ff9e
:04085c00ff00ffff9b
:020000040000fa
:1008600000230e4a10b513600d4a13600d4a136041
:100870000d4a13600d4a13600d4a53621361013330
:10088000936000f0aff900f0adf90a4c0a4b9c42be
:1008900000d310bd08cc9847f8e7c04644050020b7
:1008a0000c040020080400200004002004040020a0
:0c08b00010040020c4000000c80000007c
:020000040000fa
:1008bc0010b5144b802292021a60012244215a5422
:1008cc0001315a5401315a5401315a5409315a5494
:1008dc0002200131585401315a5401315a54033118
:1008ec005a5423393224195559540531585401316d
:1008fc00203058543639193019549b301a54ba32a6
:08090c00995410bd00440041a4
:020000040000fa
:1009140010b50f4b0f4a5a601a00d369002bfcd153
:100924000b4b0d4a1a601a00d369002bfcd10b4bf8
:1009340000229a615a611a61da605a601a70044b93
:100944000c329a7500220121054800f035f910bdda
:10095400000c0042400202000a010100fc040020d5
:04096400004400410a
:020000040000fa
:10096800114b124a1a60d22252429a81c022920234
:100978005a601a00d369002bfcd10b4a1368022174
:100988000b431360d369002bfcd1094b00229a61f9
:10099800da611a622c215a545a621a605a609a60b3
:1009a8001a75da60da857047001c0042040120409d
:0409b80050040020c7
:020000040000fa
:1009bc0010b50f4b0f4a5a601a00d369002bfcd1ab
:1009cc000b4b0d4a1a601a00d369002bfcd10b4b50
:1009dc0000229a615a611a61da605a601a70044beb
:1009ec000c329a7500220121054800f0e1f810bd87
:1009fc0000080042400202000a0102001805002013
:040a0c000044004161
:020000040000fa
:100a100010b5064c2378002b07d1054b002b02d0d4
:100a2000044800e000bf0123237010bde004002053
:100a30000000000000000000044b10b5002b03d0a4
:100a40000349044800e000bf10bdc046000000009c
:080a5000e40400200000000096
:020000040000fa
:100a580010b50a4b98470a4b984700f0b7f8094b6e
:100a6800ff229343084a9360084b9847084b9847de
:100a7800084b984700f010f8fee7c046e30b00006b
:100a8800e30b00000000000000ed00e0610800003a
:080a9800e30b0000e30b00007a
:020000040000fa
:100aa00070b5002000f03cf80a4800f08df800f026
:100ab00075f8094c094d0923220029000120fff790
:100ac000a5fc09212000fff7f1fd0a2000f008f83d
:100ad000f1e7c04610270000340500202808004236
:020000040000fa
:100ae00070b50d4b5e681b68db0714d50b4b584384
:100af000094b9b6800280ed00021074c013605e009
:100b0000b51aeb18c9181300884204d9a2689a4292
:100b1000f6d89b1af6e770bd10e000e080bb00003d
:020000040000fa
:100b200010b50b4b06225a60fff7c8fefff732fde7
:100b300000f03ef8fff7eefefff740ff00f020f870
:100b4000fff726fefff710fffff758fe10bdc04667
:040b50000040004120
:020000040000fa
:100b5400094b5b8b5b070dd0074b80221a76793ae1
:100b64005a831b7e5b0705d5034b04211a8d1a7e1d
:0c0b74000a42fbd17047c046001c004242
:020000040000fa
:100b8000044b00221a609a60034a5a6004221a60d9
:0c0b90007047c04610e000e07fbb000092
:020000040000fa
:100b9c00034b00229a601a6801210a431a607047bd
:040bac0010e000e075
:020000040000fa
:0c0bb000014b82225a6070470040004157
:020000040000fa
:0c0bbc0003695a40114059400161704724
:020000040000fa
:0c0bc8000138014b5860704710e000e05d
:020000040000fa
:080bd40010b5fff7a3fd10bdf1
:020000040000fa
:020bdc00fee732
:020000040000fa
:020bde00fee730
:020000040000fa
:020be000fee72e
:020000040000fa
:020be20070475a
:020000040000fa
:020be400704758
:020000040000fa
:0200000400807a
:0440000077c700d8a6
:020000040000fa
:0200000400807a
:044004005c00ffff5e
:00000001FF
