:020000040000fa
:10000000f83f002011030000b3040000b504000015
:1000100000000000000000000000000000000000e0
:10002000000000000000000000000000b10400001b
:100030000000000000000000b104000059040000ae
:10004000b1040000b1040000b1040000b1040000dc
:10005000b1040000ed030000b1040000b104000091
:10006000b1040000b1040000b1040000b1040000bc
:10007000b1040000b1040000b1040000b1040000ac
:10008000b1040000b1040000b1040000b10400009c
:10009000b10400000000000000000000b1040000f6
:1000a000b1040000b1040000b1040000b10400007c
:0800b00000000000b104000093
:020000040000fa
:1000b800f8b5c046f8bc08bc9e467047f10200007f
:1000c800f8b5c046f8bc08bc9e467047c902000097
:020000040000fa
:1000d800184b00229a619a8c80218a439a841a00cc
:1000e8001023d1680b42fcd0134b1b689b0e3f2b8f
:1000f8001dd09b028022920013430e4a9362102364
:10010800d1680b42fcd00b4b02229a841a001023b0
:10011800d1680b42fcd0094b094a5a601a0053783f
:100128005bb2002bfbdb034b00221a627047203bbb
:10013800dfe7c0460008004024608000000c004053
:0401480000070100ab
:020000040000fa
:10014c000021f0b5174b184a934208d30027174ae1
:10015c0013685168002b05d1002903d1f0bd19702b
:10016c000133f1e7100095680c305c18002d16d0a7
:10017c000b25ed1a5219a3420ad10b00032213408e
:10018c005a1e934189085918890040180200dfe76c
:10019c005d1cae5c1e702b00ede71f700133a3429b
:1001ac00fbd1f3e70000002000000020bc010000a0
:020000040000fa
:1001bc00500000201c00000000000000780000200f
:1001cc0004000000000000007c000020040000007f
:1001dc00000000006c0000200c000000000000007b
:1001ec00800000200400000000000000000000203f
:1001fc0050000000000000008400002004000000fb
:10020c0000000000000000000000000044444444d2
:020000040000fa
:10021c0000230e4a10b513600d4a13600d4a13608b
:10022c000d4a13600d4a13600d4a5362136101337a
:10023c00936000f03bf900f039f90a4c0a4b9c42f0
:10024c0000d310bd08cc9847f8e7c04684000020c6
:10025c000c000020080000200000002004000020fa
:0c026c0010000020c4000000c8000000ca
:020000040000fa
:10027800f8b5ce46474680b5002000f0c5f800f036
:10028800f9f80d4800f006f90c4c98239946802798
:10029800ff00b846012666614b464246e250fa2501
:1002a800ad00280000f054f8a6619423e750280018
:1002b80000f04ef8eee7c046102700000044004169
:020000040000fa
:1002c80010b5064c2378002b07d1054b002b02d024
:1002d800044800e000bf0123237010bd5000002037
:1002e8000000000000000000044b10b5002b03d0f4
:1002f8000349044800e000bf10bdc04600000000ec
:08030800540000200000000079
:020000040000fa
:1003100010b50a4b98470a4b984700f0c5f8094baf
:10032000ff229343084a9360084b9847084b98472d
:10033000084b9847fff7a0fffee7c046b704000050
:10034000b70400000000000000ed00e01d02000006
:08035000b7040000b70400002f
:020000040000fa
:1003580070b50d4b5e681b68db0714d50b4b584313
:10036800094b9b6800280ed00021074c013605e098
:10037800b51aeb18c9181300884204d9a2689a4222
:10038800f6d89b1af6e770bd10e000e080bb0000cd
:020000040000fa
:10039800094b01221a6012021a61002240215a54a4
:1003a80010395a5450318020c00058504a315a549c
:0c03b80015395a547047c04600440041fb
:020000040000fa
:1003c400bff35f8f62b6064bc12080001a580549ff
:1003d4001140c02212020a431a5020221a607047a8
:0803e40000e100e0ff00ffff53
:020000040000fa
:1003ec0010b5054b01221a73044b1b68002b02d06d
:1003fc00034a1068984710bd004000417800002067
:04040c007c00002050
:020000040000fa
:1004100010b5074b06225a60fff7befffff75cfee0
:1004200000f036f800f006f8fff7ccff10bdc0462c
:040430000040004147
:020000040000fa
:10043400054a00231360936004495160062111604a
:10044400034a93601360704710e000e0ff9e2400ad
:040454006c00002018
:020000040000fa
:1004580010b5064b1b68064b9a6801329a601b68f8
:10046800002b02d0024a5068984710bd10e000e007
:040478006c000020f4
:020000040000fa
:10047c00034b00229a601a6801210a431a607047e4
:04048c0010e000e09c
:020000040000fa
:0c049000014b82225a607047004000417e
:020000040000fa
:0c049c000138014b5860704710e000e090
:020000040000fa
:0804a80010b5fff74ffe10bd77
:020000040000fa
:0204b000fee765
:020000040000fa
:0204b200fee763
:020000040000fa
:0204b400fee761
:020000040000fa
:0204b60070478d
:020000040000fa
:0204b80070478b
:020000040000fa
:0200000400807a
:0440000077c700d8a6
:020000040000fa
:0200000400807a
:044004005c00ffff5e
:00000001FF
