:020000040000fa
:10000000f03f0020f90600007509000077090000a4
:1000100000000000000000000000000000000000e0
:100020000000000000000000000000005309000074
:10003000000000000000000053090000cd0800008f
:100040005309000053090000530900005309000040
:100050005309000053090000530900005309000030
:100060005309000045020000530900005309000035
:100070005309000053090000d90000005309000093
:100080005309000053090000530900005309000000
:1000900053090000000000000000000053090000a8
:1000a00053090000530900005309000053090000e0
:0800b0000000000053090000ec
:020000040000fa
:1000b800f8b5c046f8bc08bc9e467047d906000093
:1000c800f8b5c046f8bc08bc9e467047b1060000ab
:020000040000fa
:1000d800f0b5c64600b5574b9b7d002b17d0554a47
:1000e800137edbb2927d52b2002a13db514a137e93
:1000f800dbb2927dd20702d5db0700d582e04d4afc
:10010800137edbb2927d520701d55b074bd404bc4a
:100118009046f0bd5bb2002be8da464b5b8b0722ba
:100128001340e3d0444ce38500f0a0fb414b84220c
:100138001a752c230022e254636a002bd6d03e4a5b
:10014800906a9847d2e7bb68f35c0b8593680133e4
:100158009360936898460b7e23420bd0404509d99b
:100168004b682b40012beed163469b685b009b5b81
:100178000b85ebe7304b9a685b689a42bfd32e4bee
:1001880000221a755a602b4a01211175db68002b71
:10019800b5d0294a10699847b1e727490a6a896999
:1001a8005200535215e0244a2c23d35c002baed0c6
:1001b800214b1a6adb699a42a9d21e4a138d9bb257
:1001c800516807220a40012ae7d01b4a116a92693e
:1001d8005354194b1a6a01321a621a6adb699a4235
:1001e80000d094e7144b00222c215a54da61114aaa
:1001f800583111755b6a002b00d188e70e4a906a66
:10020800984784e70c4b1b7d002b00d177e70a4bfe
:100218009a685868074b1b7edb07abd58242a9d288
:10022800054b1e68034907259c461f001a00012438
:0c02380096e7c046001c00425002002067
:020000040000fa
:1002440010b5314b187ec0b21b7e1b0709d52e4b4f
:1002540008221a76063a9a752c4b00229a610132ca
:100264001a70294b5b8b5b0710d50422274bda608d
:10027400254b5a831b7e5b0705d5234b04219a6ac1
:100284001a7e0a42fbd1204b80221a761e4b1b7e1b
:100294005b070cd51c4b9a6a1c4b9b69ff2b06d839
:1002a4001a4b99691a4c62549a6901329a61164b35
:1002b4001b7edb0712d5154b5a691b699a421ed265
:1002c400124b5a691349895c5a6901325a610e4bbf
:1002d4001b7e9b0700d502200b4b996283070dd52b
:1002e400094b02221a76094b00221a705a611a61cc
:1002f4005b68002b02d0054a9068984710bd024bfa
:1003040001221a75eae7c046000800429c02002058
:080314000000002000010020a0
:020000040000fa
:10031c001f4b00229a619a8c80218a439a841a007e
:10032c001023d1680b42fcd01a4b1b689b0e3f2b41
:10033c002bd09b02802292001343154a9362102308
:10034c00d1680b42fcd0124b02229a841a00102363
:10035c00d1680b42fcd0104b04221a720f4b104a7e
:10036c005a60f02212019a601a0053785bb2002b8b
:10037c00fbdb0a4b0b4a5a800b4a5a80064b0b4a42
:10038c001a62034b00221a627047203bd1e7c04629
:10039c00000800402460800000040040000c004075
:1003ac000007010014400000194000008400010007
:020000040000fa
:1003bc00800200201c000000000000000000002053
:1003cc0000010000000000000001002000010000fe
:1003dc00000000009c0200201c0000000000000037
:1003ec00500200203000000000000000b802002085
:1003fc000c00000000000000c402002004000000fb
:10040c00000000000002002050000000000000006e
:10041c00c8020020040000000000000000000000e2
:10042c000000000044444444444444444444444490
:020000040000fa
:10043c0070b500282fd0194b1a7d0023002a26d125
:10044c00164b1860596001321a75154b1b7edb0771
:10045c0016d500291dd00023114c0726012507e0d5
:10046c00c25c22850133227e2a420ad0994208d9e5
:10047c0062683240012af3d15a00825a2285f1e790
:10048c000023064a9360064b01229a75012318003b
:10049c0070bd0b00f5e70023f9e7c04650020020c1
:0404ac00001c0042ee
:020000040000fa
:1004b000f8b5184b9d7dedb21d750c0080235b00d7
:1004c000994200d91c0022000100134800f038fabc
:1004d000124b1c6100225a615a690e4b1b7edb07ce
:1004e00011d5a2420fd20d4b0b4f0a4801265a6973
:1004f000ba5c82625a6901325a615969027e32429b
:1005000001d0a142f3d301231d43024b9d7520006e
:10051000f8bdc04600080042000100209c020020f7
:020000040000fa
:100520000021f0b5174b184a934208d30027174a09
:1005300013685168002b05d1002903d1f0bd197053
:100540000133f1e7100095680c305c18002d16d0cf
:100550000b25ed1a5219a3420ad10b0003221340b6
:100560005a1e934189085918890040180200dfe794
:100570005d1cae5c1e702b00ede71f700133a342c3
:10058000fbd1f3e70000002000000020bc030000c6
:020000040000fa
:1005900070b58eb0002000f083f900f0c7f9fa20a2
:1005a000800000f0ddf907a9124b0a0013cb13c23b
:1005b00013cb13c21b6813600f4b40229a611c00bf
:1005c00040252e0066611c2107a8fff771ff6420fb
:1005d00000f018f91c21684600f032f9642000f0a0
:1005e00011f91c216846fff729ff642000f00af981
:0c05f000a561e7e710090000004400418d
:020000040000fa
:1005fc0000230e4a10b513600d4a13600d4a1360a8
:10060c000d4a13600d4a13600d4a53621361013396
:10061c00936000f0acf900f0aaf90a4c0a4b9c422a
:10062c0000d310bd08cc9847f8e7c046c80200209c
:10063c000c0200200802002000020020040200200e
:0c064c0010020020c4000000c8000000e4
:020000040000fa
:10065800114b124a1a60124a9a81c02292025a60b9
:100668001a00d369002bfcd10b4a136802210b43f3
:100678001360d369002bfcd10a4b00229a61da611e
:100688001a622c215a545a621a605a609a601a7572
:10069800da60da857047c046001c00420401014058
:0806a800b6f3ffff5002002031
:020000040000fa
:1006b00010b5064c2378002b07d1054b002b02d038
:1006c000044800e000bf0123237010bd8002002019
:1006d0000000000000000000044b10b5002b03d008
:1006e0000349044800e000bf10bdc0460000000000
:0806f00084020020000000005c
:020000040000fa
:1006f80010b50a4b98470a4b984700f033f9094b55
:10070800ff229343084a9360084b9847084b984741
:10071800084b9847fff738fffee7c0467909000005
:10072800790900000000000000ed00e0fd05000070
:080738007909000079090000b5
:020000040000fa
:10074000bff35f8f62b60c4bc22080001a580b4972
:100750001140c02212020a431a50802292001a60ed
:1007600004301a5806491140c02212040a431a5094
:100770008022d2011a60704700e100e0ff00ffff15
:04078000ffff00ff78
:020000040000fa
:100784000c4b0d4a5a601a00d369002bfcd1094b5b
:100794000a4a1a601a00d369002bfcd1084b0022c4
:1007a4009a615a611a61da605a601a70014b0c320c
:1007b4009a75704700080042400202000a010200d4
:0407c4009c02002073
:020000040000fa
:1007c8000d4b40221a603f3a44215a5401315a5481
:1007d80001310220585401315a540f315a542339e7
:1007e800303019540238585430390b3019549b3072
:0c07f8001a54ba32995470470044004172
:020000040000fa
:1008040070b50d4b5e681b68db0714d5c8235843cd
:10081400094b9b6800280ed00021074c013605e0e7
:10082400b51aeb18c9181300884204d9a2689a4271
:0c083400f6d89b1af6e770bd10e000e05b
:020000040000fa
:1008400070b50d00084b9c7de4b21c75074b9b698d
:100850008b4201d2054b9d692a00054900f070f8d2
:10086000014b9c75280070bd000800429c020020ce
:040870000000002064
:020000040000fa
:10087400094b5b8b5b070dd0074b80221a76793ac4
:100884005a831b7e5b0705d5034b04211a8d1a7e00
:0c0894000a42fbd17047c046001c004225
:020000040000fa
:1008a00010b5094b06225a60fff78efffff736fda1
:1008b00000f050f8fff766ff00f01af8fff7ccfee3
:0c08c000fff73eff10bdc04600400041a5
:020000040000fa
:1008cc0010b5064b1b68064b9a6801329a601b6880
:1008dc00002b02d0024a5068984710bd10e000e08f
:0408ec00b80200202e
:020000040000fa
:1008f000054a002313609360c7215160c13911601c
:10090000024a93601360704710e000e0b8020020d4
:020000040000fa
:100910006162636465666768696a6b6c6d6e6f704f
:0c0920007172737475767778797a0a002a
:020000040000fa
:10092c00034b00229a601a6801210a431a6070472f
:04093c0010e000e0e7
:020000040000fa
:10094000002310b59a4200d110bdcc5cc4540133d1
:02095000f8e7c6
:020000040000fa
:02095200fee7be
:020000040000fa
:0c095400014b80225a60704700400041b7
:020000040000fa
:0c0960000138014b5860704710e000e0c7
:020000040000fa
:08096c0010b5fff7d7fd10bd27
:020000040000fa
:02097400fee79c
:020000040000fa
:02097600fee79a
:020000040000fa
:020978007047c6
:020000040000fa
:02097a007047c4
:020000040000fa
:0200000400807a
:0440000077c700d8a6
:020000040000fa
:0200000400807a
:044004005c00ffff5e
:00000001FF
