:020000040000fa
:10000000f03f0020990a0000830c0000850c0000de
:1000100000000000000000000000000000000000e0
:10002000000000000000000000000000810c000043
:100030000000000000000000810c0000290c0000fe
:10004000810c0000810c0000810c0000810c00007c
:10005000810c0000810c000031070000810c0000c1
:10006000810c0000d9000000810c0000b1030000e9
:10007000810c0000810c000045020000810c000092
:10008000810c0000810c0000810c0000810c00003c
:10009000810c00000000000000000000810c000046
:1000a000810c0000810c0000810c0000810c00001c
:0800b00000000000810c0000bb
:020000040000fa
:1000b800f8b5c046f8bc08bc9e467047790a0000ef
:1000c800f8b5c046f8bc08bc9e467047510a000007
:020000040000fa
:1000d800f0b5c64600b5574b9b7d002b17d0554a47
:1000e800137edbb2927d52b2002a13db514a137e93
:1000f800dbb2927dd20702d5db0700d582e04d4afc
:10010800137edbb2927d520701d55b074bd404bc4a
:100118009046f0bd5bb2002be8da464b5b8b0722ba
:100128001340e3d0444ce38500f026fd414b842284
:100138001a752c230022e254636a002bd6d03e4a5b
:10014800906a9847d2e7bb68f35c0b8593680133e4
:100158009360936898460b7e23420bd0404509d99b
:100168004b682b40012beed163469b685b009b5b81
:100178000b85ebe7304b9a685b689a42bfd32e4bee
:1001880000221a755a602b4a01211175db68002b71
:10019800b5d0294a10699847b1e727490a6a896999
:1001a8005200535215e0244a2c23d35c002baed0c6
:1001b800214b1a6adb699a42a9d21e4a138d9bb257
:1001c800516807220a40012ae7d01b4a116a92693e
:1001d8005354194b1a6a01321a621a6adb699a4235
:1001e80000d094e7144b00222c215a54da61114aaa
:1001f800583111755b6a002b00d188e70e4a906a66
:10020800984784e70c4b1b7d002b00d177e70a4bfe
:100218009a685868074b1b7edb07abd58242a9d288
:10022800054b1e68034907259c461f001a00012438
:0c02380096e7c04600080042500000207d
:020000040000fa
:10024400f0b5c64600b5574b9b7d002b17d0554ad9
:10025400137edbb2927d52b2002a13db514a137e25
:10026400dbb2927dd20702d5db0700d582e04d4a8e
:10027400137edbb2927d520701d55b074bd404bcdd
:100284009046f0bd5bb2002be8da464b5b8b07224d
:100294001340e3d0444ce38500f086fc414b8422b8
:1002a4001a752c230022e254636a002bd6d03e4aee
:1002b400906a9847d2e7bb68f35c0b859368013377
:1002c4009360936898460b7e23420bd0404509d92e
:1002d4004b682b40012beed163469b685b009b5b14
:1002e4000b85ebe7304b9a685b689a42bfd32e4b81
:1002f40000221a755a602b4a01211175db68002b04
:10030400b5d0294a10699847b1e727490a6a89692b
:100314005200535215e0244a2c23d35c002baed058
:10032400214b1a6adb699a42a9d21e4a138d9bb2e9
:10033400516807220a40012ae7d01b4a116a9269d0
:100344005354194b1a6a01321a621a6adb699a42c7
:1003540000d094e7144b00222c215a54da61114a3c
:10036400583111755b6a002b00d188e70e4a906af8
:10037400984784e70c4b1b7d002b00d177e70a4b91
:100384009a685868074b1b7edb07abd58242a9d21b
:10039400054b1e68034907259c461f001a000124cb
:0c03a40096e7c046001c004280000020cc
:020000040000fa
:1003b000f0b5c64600b5574b9b7d002b17d0554a6c
:1003c000137edbb2927d52b2002a13db514a137eb8
:1003d000dbb2927dd20702d5db0700d582e04d4a21
:1003e000137edbb2927d520701d55b074bd404bc70
:1003f0009046f0bd5bb2002be8da464b5b8b0722e0
:100400001340e3d0444ce38500f0e6fb414b8422eb
:100410001a752c230022e254636a002bd6d03e4a80
:10042000906a9847d2e7bb68f35c0b859368013309
:100430009360936898460b7e23420bd0404509d9c0
:100440004b682b40012beed163469b685b009b5ba6
:100450000b85ebe7304b9a685b689a42bfd32e4b13
:1004600000221a755a602b4a01211175db68002b96
:10047000b5d0294a10699847b1e727490a6a8969be
:100480005200535215e0244a2c23d35c002baed0eb
:10049000214b1a6adb699a42a9d21e4a138d9bb27c
:1004a000516807220a40012ae7d01b4a116a926963
:1004b0005354194b1a6a01321a621a6adb699a425a
:1004c00000d094e7144b00222c215a54da61114acf
:1004d000583111755b6a002b00d188e70e4a906a8b
:1004e000984784e70c4b1b7d002b00d177e70a4b24
:1004f0009a685868074b1b7edb07abd58242a9d2ae
:10050000054b1e68034907259c461f001a0001245d
:0c05100096e7c04600100042b00000203a
:020000040000fa
:10051c00f0b52e4e3f25745de4b2705506012c4d9e
:10052c00ad192d7b002d05d0284e4e25765d00256e
:10053c00b6073bd0254e4e25032777550501244e93
:10054c007619023f3773234ead5b6d0533d5c91851
:10055c000601204dad19696001011e4d495b09056d
:10056c002ed5d21805011b4949198a601949050174
:10057c006a5a9205920fd3409bb249194b80134a89
:10058c004021535c02252b435354516c536c9b04f8
:10059c009b0e08220a4013430125002b06d10b4a5f
:1005ac001169012383400b4313610125074a3f2343
:1005bc00d4542800f0bd0601064dad196960cbe797
:1005cc000501044949198a60d0e7c046004800413a
:0805dc0000010020e0000020f6
:020000040000fa
:1005e400400100201c00000000000000e00000208a
:1005f4002000000000000000000100202000000096
:100604000000000020010020200000000000000085
:100614005000002030000000000000008000002096
:1006240030000000000000005c0100200c0000000d
:1006340000000000700100200a000000010000001a
:10064400737572656e6472610a000000b000002068
:1006540030000000000000006801002004000000d9
:100664000000000000000020500000000000000016
:100674006c010020040000000000000000000000e5
:100684000000000044444444444444444444444436
:020000040000fa
:100694001d4b00229a619a8c80218a439a841a0005
:1006a4001023d1680b42fcd0184b1b689b0e3f2bc8
:1006b40027d09b02802292001343134a9362102393
:1006c400d1680b42fcd0104b02229a841a001023ea
:1006d400d1680b42fcd00e4b0e4a5a601a00537874
:1006e4005bb2002bfbdb0a4b0b4a5a800b4a5a8045
:1006f4000b4a5a800b4b0c4a1a62034b00221a62b3
:100704007047203bd5e7c0460008004024608000c5
:10071400000c0040000701001440000016400000d7
:0c07240019400000000400409400010097
:020000040000fa
:1007300030b583b0002301931a4a118c0f330b405c
:100740003f21545ce4b253540f31525cd2b2019257
:10075000019a0220920708d512494e2288541901a5
:10076000114a5218002111730138019ad20709d594
:100770000c494e220120885419010b4a52180021bd
:10078000117301301901084a52185568002d03d021
:10079000054a53189968a847024a3f23d45403b026
:0c07a00030bdc0460048004100010020b0
:020000040000fa
:1007ac0070b5124a002151609160117351619161d1
:1007bc0011770f480f4b58630f4c9c630f4c5c61c7
:1007cc003f2699550e4959640e490180012111703b
:1007dc004d2403251d5599550b4e5e640b4e068218
:1007ec0011741d550a4a1a8070bdc04600010020c4
:1007fc00e00000200048004120010020818181811f
:10080c0000058000090800000006800009040000b3
:04081c00020f0000c7
:020000040000fa
:100820000021f0b5174b184a934208d30027174a06
:1008300013685168002b05d1002903d1f0bd197050
:100840000133f1e7100095680c305c18002d16d0cc
:100850000b25ed1a5219a3420ad10b0003221340b3
:100860005a1e934189085918890040180200dfe791
:100870005d1cae5c1e702b00ede71f700133a342c0
:10088000fbd1f3e70000002000000020e405000099
:020000040000fa
:1008900030b5bff35f8f62b6144bc12080001a5889
:1008a000134d2a40c02109040a431a5040221a60fd
:1008b00004301a580f4c1440c022120222431a501e
:1008c000802292001a601a581202120ac0242406ca
:1008d00022431a50802212011a6004301a582a400a
:1008e000114319508022d2011a6030bd00e100e0ae
:0808f000ffff00ffff00ffff06
:020000040000fa
:1008f80000230e4a10b513600d4a13600d4a1360a9
:100908000d4a13600d4a13600d4a53621361013397
:10091800936000f0b5f900f0b3f90a4c0a4b9c4219
:1009280000d310bd08cc9847f8e7c0466c010020fa
:100938000c00002008000020000000200400002017
:0c09480010000020c4000000c8000000e7
:020000040000fa
:10095400114b124a1a60d22252429a81c022920248
:100964005a601a00d369002bfcd10b4a1368022188
:100974000b431360d369002bfcd1094b00229a610d
:10098400da611a622c215a545a621a605a609a60c7
:100994001a75da60da8570470008004204012040c5
:0409a40050000020df
:020000040000fa
:1009a800114b124a1a60d22252429a81c0229202f4
:1009b8005a601a00d369002bfcd10b4a1368022134
:1009c8000b431360d369002bfcd1094b00229a61b9
:1009d800da611a622c215a545a621a605a609a6073
:1009e8001a75da60da857047001c0042040120405d
:0409f800800000205b
:020000040000fa
:1009fc00114b124a1a60d22252429a81c0229202a0
:100a0c005a601a00d369002bfcd10b4a13680221df
:100a1c000b431360d369002bfcd1094b00229a6164
:100a2c00da611a622c215a545a621a605a609a601e
:100a3c001a75da60da857047001000420401204014
:040a4c00b0000020d6
:020000040000fa
:100a500010b5064c2378002b07d1054b002b02d094
:100a6000044800e000bf0123237010bd40010020b6
:100a70000000000000000000044b10b5002b03d064
:100a80000349044800e000bf10bdc046000000005c
:080a90004401002000000000f9
:020000040000fa
:100a980010b50a4b98470a4b984700f0e9f8094bfc
:100aa800ff229343084a9360084b9847084b98479e
:100ab800084b984700f048f8fee7c046870c00004e
:100ac800870c00000000000000ed00e0f9080000bd
:080ad800870c0000870c0000f0
:020000040000fa
:100ae0000d4b0121442299540232995402329954f7
:100af000023299540c329954533a32201a5401302c
:100b00001a5401301a5401301a5406301a549b30ca
:0c0b10001954ba315a5470470044004197
:020000040000fa
:100b1c0010b50b4b06225a60fff7dcfffff7b4fd54
:100b2c0000f098f8fff764fffff70eff00f064f891
:100b3c00fff736fefff732fffff7a4fe10bdc046ed
:040b4c000040004124
:020000040000fa
:100b500070b50020fff7e2ff00f078f8054800f0dc
:100b600085f8054d054c0a232a0021000120fff7d6
:100b7000d5fcf8e710270000281000427001002083
:020000040000fa
:100b8000094b5b8b5b070dd0074b80221a76793ab5
:100b90005a831b7e5b0705d5034b04211a8d1a7ef1
:0c0ba0000a42fbd17047c046000800422a
:020000040000fa
:100bac00094b5b8b5b070dd0074b80221a76793a89
:100bbc005a831b7e5b0705d5034b04211a8d1a7ec5
:0c0bcc000a42fbd17047c046001c0042ea
:020000040000fa
:100bd800094b5b8b5b070dd0074b80221a76793a5d
:100be8005a831b7e5b0705d5034b04211a8d1a7e99
:0c0bf8000a42fbd17047c04600100042ca
:020000040000fa
:100c0400054a002313609360044951600621116072
:100c1400034a93601360704710e000e07fbb00005c
:040c24005c0100204f
:020000040000fa
:100c280010b5064b1b68064b9a6801329a601b6820
:100c3800002b02d0024a5068984710bd10e000e02f
:040c48005c0100202b
:020000040000fa
:100c4c00034b00229a601a6801210a431a6070470c
:040c5c0010e000e0c4
:020000040000fa
:0c0c6000014b82225a60704700400041a6
:020000040000fa
:0c0c6c000138014b5860704710e000e0b8
:020000040000fa
:080c780010b5fff7d1fd10bd1e
:020000040000fa
:020c8000fee78d
:020000040000fa
:020c8200fee78b
:020000040000fa
:020c8400fee789
:020000040000fa
:020c86007047b5
:020000040000fa
:020c88007047b3
:020000040000fa
:0200000400807a
:0440000077c700d8a6
:020000040000fa
:0200000400807a
:044004005c00ffff5e
:00000001FF
