:020000040000fa
:10000000f03f002019090000ef0a0000f10a00008b
:1000100000000000000000000000000000000000e0
:10002000000000000000000000000000ed0a0000d9
:100030000000000000000000ed0a0000ed0a0000d2
:10004000ed0a0000ed0a0000ed0a0000ed0a0000d4
:10005000ed0a0000ed0a0000bd050000ed0a0000f9
:10006000ed0a0000d9000000ed0a0000ed0a0000d2
:10007000ed0a0000ed0a000045020000ed0a000054
:10008000ed0a0000ed0a0000ed0a0000ed0a000094
:10009000ed0a00000000000000000000ed0a000072
:1000a000ed0a0000ed0a0000ed0a0000ed0a000074
:0800b00000000000ed0a000051
:020000040000fa
:1000b800f8b5c046f8bc08bc9e467047f908000071
:1000c800f8b5c046f8bc08bc9e467047d108000089
:020000040000fa
:1000d800f0b5c64600b5574b9b7d002b17d0554a47
:1000e800137edbb2927d52b2002a13db514a137e93
:1000f800dbb2927dd20702d5db0700d582e04d4afc
:10010800137edbb2927d520701d55b074bd404bc4a
:100118009046f0bd5bb2002be8da464b5b8b0722ba
:100128001340e3d0444ce38500f072fc414b842239
:100138001a752c230022e254636a002bd6d03e4a5b
:10014800906a9847d2e7bb68f35c0b8593680133e4
:100158009360936898460b7e23420bd0404509d99b
:100168004b682b40012beed163469b685b009b5b81
:100178000b85ebe7304b9a685b689a42bfd32e4bee
:1001880000221a755a602b4a01211175db68002b71
:10019800b5d0294a10699847b1e727490a6a896999
:1001a8005200535215e0244a2c23d35c002baed0c6
:1001b800214b1a6adb699a42a9d21e4a138d9bb257
:1001c800516807220a40012ae7d01b4a116a92693e
:1001d8005354194b1a6a01321a621a6adb699a4235
:1001e80000d094e7144b00222c215a54da61114aaa
:1001f800583111755b6a002b00d188e70e4a906a66
:10020800984784e70c4b1b7d002b00d177e70a4bfe
:100218009a685868074b1b7edb07abd58242a9d288
:10022800054b1e68034907259c461f001a00012438
:0c02380096e7c04600080042500000207d
:020000040000fa
:10024400f0b5c64600b5574b9b7d002b17d0554ad9
:10025400137edbb2927d52b2002a13db514a137e25
:10026400dbb2927dd20702d5db0700d582e04d4a8e
:10027400137edbb2927d520701d55b074bd404bcdd
:100284009046f0bd5bb2002be8da464b5b8b07224d
:100294001340e3d0444ce38500f0fefb414b842241
:1002a4001a752c230022e254636a002bd6d03e4aee
:1002b400906a9847d2e7bb68f35c0b859368013377
:1002c4009360936898460b7e23420bd0404509d92e
:1002d4004b682b40012beed163469b685b009b5b14
:1002e4000b85ebe7304b9a685b689a42bfd32e4b81
:1002f40000221a755a602b4a01211175db68002b04
:10030400b5d0294a10699847b1e727490a6a89692b
:100314005200535215e0244a2c23d35c002baed058
:10032400214b1a6adb699a42a9d21e4a138d9bb2e9
:10033400516807220a40012ae7d01b4a116a9269d0
:100344005354194b1a6a01321a621a6adb699a42c7
:1003540000d094e7144b00222c215a54da61114a3c
:10036400583111755b6a002b00d188e70e4a906af8
:10037400984784e70c4b1b7d002b00d177e70a4b91
:100384009a685868074b1b7edb07abd58242a9d21b
:10039400054b1e68034907259c461f001a000124cb
:0c03a40096e7c046001c004280000020cc
:020000040000fa
:1003b000f0b52e4e3f25745de4b2705506012c4d0c
:1003c000ad192d7b002d05d0284e4e25765d0025dc
:1003d000b6073bd0254e4e25032777550501244e01
:1003e0007619023f3773234ead5b6d0533d5c918bf
:1003f0000601204dad19696001011e4d495b0905db
:100400002ed5d21805011b4949198a6019490501e1
:100410006a5a9205920fd3409bb249194b80134af6
:100420004021535c02252b435354516c536c9b0465
:100430009b0e08220a4013430125002b06d10b4acc
:100440001169012383400b4313610125074a3f23b0
:10045000d4542800f0bd0601064dad196960cbe704
:100460000501044949198a60d0e7c04600480041a7
:08047000e0000020d000002094
:020000040000fa
:10047800b00000201c000000000000005000002018
:10048800300000000000000000010020050000000e
:100498000000000008010020050000000000000026
:1004a80005010020010000000000000006010020f6
:1004b8000100000000000000d00000201000000033
:1004c80000000000e0000020100000000000000014
:1004d800f000002010000000000000008000002054
:1004e8003000000000000000cc00002004000000e4
:1004f8000000000000000020500000000000000084
:1005080010010020040000000000000000000000ae
:1005180000000000444444444444444444444444a3
:020000040000fa
:100528001c4b00229a619a8c80218a439a841a0073
:100538001023d1680b42fcd0174b1b689b0e3f2b36
:1005480025d09b02802292001343124a9362102303
:10055800d1680b42fcd00f4b02229a841a00102358
:10056800d1680b42fcd00d4b0d4a5a601a005378e3
:100578005bb2002bfbdb094b0a4a5a800a4a5a80b5
:100588000a4b0b4a1a62034b00221a627047203b3f
:10059800d7e7c0460008004024608000000c0040f7
:1005a800000701001440000019400000000400404a
:0405b80084000100ba
:020000040000fa
:1005bc0030b583b0002301931a4a118c0f330b40d2
:1005cc003f21545ce4b253540f31525cd2b20192cd
:1005dc00019a0220920708d512494e22885419011b
:1005ec00114a5218002111730138019ad20709d50a
:1005fc000c494e220120885419010b4a5218002133
:10060c00117301301901084a52185568002d03d096
:10061c00054a53189968a847024a3f23d45403b09b
:0c062c0030bdc04600480041e000002046
:020000040000fa
:1006380070b500282fd0194b1a7d0023002a26d127
:10064800164b1860596001321a75154b1b7edb0773
:1006580016d500291dd00023114c0726012507e0d7
:10066800c25c22850133227e2a420ad0994208d9e7
:1006780062683240012af3d15a00825a2285f1e792
:100688000023064a9360064b01229a75012318003d
:1006980070bd0b00f5e70023f9e7c0468000002095
:0406a800001c0042f0
:020000040000fa
:1006ac000021f0b5174b184a934208d30027174a7c
:1006bc0013685168002b05d1002903d1f0bd1970c6
:1006cc000133f1e7100095680c305c18002d16d042
:1006dc000b25ed1a5219a3420ad10b000322134029
:1006ec005a1e934189085918890040180200dfe707
:1006fc005d1cae5c1e702b00ede71f700133a34236
:10070c00fbd1f3e70000002000000020780400007b
:020000040000fa
:10071c0000230e4a10b513600d4a13600d4a136086
:10072c000d4a13600d4a13600d4a53621361013375
:10073c00936000f0d9f900f0d7f90a4c0a4b9c42af
:10074c0000d310bd08cc9847f8e7c0461001002034
:10075c000c000020080000200000002004000020f5
:0c076c0010000020c4000000c8000000c5
:020000040000fa
:1007780030b5bff35f8f62b6104bc12080001a58a6
:100788000f4d2a40c02109040a431a5040221a601a
:10079800c222920098580b4c0440c020000220430b
:1007a8009850093aff3a1a60c32080001a582a4024
:1007b800114319508022d2011a6030bd00e100e0d7
:0807c800ffff00ffff00ffff2f
:020000040000fa
:1007d00010b50d4a00215160916011730b480c4b0c
:1007e00058630c4c9c630c4c5c613f2419550b49bd
:1007f00059640b490180012111704d220231995435
:10080000084a1a8010bdc046e0000020d000002039
:1008100000480041f00000208181818100018000ba
:08082000090c0000020f0000aa
:020000040000fa
:10082800114b124a1a60d22252429a81c022920275
:100838005a601a00d369002bfcd10b4a13680221b5
:100848000b431360d369002bfcd1094b00229a613a
:10085800da611a622c215a545a621a605a609a60f4
:100868001a75da60da857047000800420401104002
:04087800500000200c
:020000040000fa
:10087c00114b124a1a60d22252429a81c022920221
:10088c005a601a00d369002bfcd10b4a1368022161
:10089c000b431360d369002bfcd1094b00229a61e6
:1008ac00da611a622c215a545a621a605a609a60a0
:1008bc001a75da60da857047001c004204010140a9
:0408cc008000002088
:020000040000fa
:1008d00010b5064c2378002b07d1054b002b02d016
:1008e000044800e000bf0123237010bdb0000020c9
:1008f0000000000000000000044b10b5002b03d0e6
:100900000349044800e000bf10bdc04600000000dd
:08091000b4000020000000000b
:020000040000fa
:1009180010b50a4b98470a4b984700f0dff8094b87
:10092800ff229343084a9360084b9847084b98471f
:10093800084b984700f032f8fee7c046f30a00007b
:10094800f30a00000000000000ed00e01d070000b1
:08095800f30a0000f30a00009d
:020000040000fa
:1009600070b504000d00002815d00c4a2c23d35c70
:100970000020002b00d070bd00f04ef8074b9c61aa
:10098000dd6100221a622c2101205854da85044bc3
:1009900084329a75efe70020ede7c0465000002052
:0409a0000008004209
:020000040000fa
:1009a40070b5002000f04cf800220949002000f046
:1009b40089f8084c084d261d01232a002100002037
:1009c400fff7f4fc01340135b442f5d1f1e7c04638
:0c09d400e10900000801002000010020e3
:020000040000fa
:1009e00070b50500094c05212000fff7b9ff05216e
:1009f0002000fff721fe012d03d0054b01221a70c4
:100a000070bd044b01221a70fae7c04600010020b5
:080a1000060100200501002091
:020000040000fa
:100a1800094b5b8b5b070dd0074b80221a76793a1e
:100a28005a831b7e5b0705d5034b04211a8d1a7e5a
:0c0a38000a42fbd17047c0460008004293
:020000040000fa
:100a440010b5094b06225a6000f010f8fff76afd52
:100a540000f040f8fff7e6fefff7b8fefff70cffe3
:0c0a6400fff788fe10bdc04600400041b6
:020000040000fa
:100a7000094b012244215a5401315a5411315a541c
:100a80002439332058542f39083019549b301a54c4
:0c0a9000ba3299547047c046004400413f
:020000040000fa
:100a9c00094b5b8b5b070dd0074b80221a76793a9a
:100aac005a831b7e5b0705d5034b04211a8d1a7ed6
:0c0abc000a42fbd17047c046001c0042fb
:020000040000fa
:100ac80003010248c018416082607047e0000020be
:020000040000fa
:0c0ad800014b82225a6070470040004130
:020000040000fa
:080ae40010b5fff7e1fd10bda4
:020000040000fa
:020aec00fee723
:020000040000fa
:020aee00fee721
:020000040000fa
:020af000fee71f
:020000040000fa
:020af20070474b
:020000040000fa
:020af400704749
:020000040000fa
:0200000400807a
:0440000077c700d8a6
:020000040000fa
:0200000400807a
:044004005c00ffff5e
:00000001FF
