:020000040000fa
:10000000f83f0020e10d0000eb1000002b12000073
:1000100000000000000000000000000000000000e0
:100020000000000000000000000000004708000081
:10003000000000000000000047080000e51100007b
:100040004708000047080000470800004708000074
:100050004708000047080000470800004708000064
:1000600047080000010400006d050000470800007b
:100070004708000047080000470800004708000044
:100080004708000047080000470800004708000034
:1000900047080000000000000000000047080000c2
:1000a0004708000047080000470800004708000014
:0800b0000000000047080000f9
:020000040000fa
:1000b800f8b5c046f8bc08bc9e467047c10d0000a4
:1000c800f8b5c046f8bc08bc9e467047990d0000bc
:020000040000fa
:1000d800980600201c00000000000000b406002064
:1000e8000c0000000000000068060020300000003e
:1000f80000000000c00600200c0000000000000006
:10010800d4060020040000000000000018060020ab
:100118005000000000000000e40600206c00000011
:1001280001000000f0060020ec060020f006002088
:100138000000000025000000080000200004000066
:1001480000000000000000000000000000000000a7
:100158000000000000000000000000000000000097
:10016800cf130000000000000000000000000000a5
:1001780000000000290a0000000000000000000044
:100188000000000000000000000000000000000067
:10019800000000200804000000000000b007002054
:1001a8002000000001000000010000000300000022
:1001b8000000000000000000000000000000000037
:1001c80000000000cc060020cc060020080000003b
:1001d80000000000d8060020040000000000000015
:1001e8000804002010020000000000005007002052
:1001f8006000000001000000010000000300000092
:1002080000000000000000000000000000000000e6
:1002180000000000a10b000000000000000000002a
:1002280000000000ad130000d7130000000000001c
:1002380000000000000000000000000000000000b6
:1002480000000000000000000000000000000000a6
:100258000000000000000000dc0600200400000090
:1002680000000000e006002004000000000000007c
:100278000000000000000000444444444444444456
:020000040000fa
:10028800f0b587b0039003a800f06efe002802daec
:10029800002007b0f0bd039b1b095d1e202d09d966
:1002a8004f49023b4f4a8b4224d8db08d318043b02
:1002b8001d7801352a000120002101f007f80024eb
:1002c80043428c4100930194474f00983a687b68f9
:1002d8001040020001990b401a433fd1039b05a827
:1002e8001033059300f0feff002809d10c223f4b84
:1002f8001a60cee7db09d318043b1d781135d9e71e
:100308003b490c68a04206d0059b0400103b0593ae
:100318000123103483600125059be2180a602b43f2
:10032800083a083c28c26360002cb1d0200000f0d5
:1003380091fe00280bd023686168ab43e31a5a6822
:10034800aa4352185a606168a94362501c002000f1
:10035800039900f030ff200008309ae7214a254928
:100368003c32002831d1584203404b43db0ed65c67
:100378002036300000f066ff731cdb00fc58083b99
:10038800fb189c42a0d0272e25dd0235ae4201dca9
:100398003f2e20d101226368039f9343dd1b280071
:1003a800009300f001fe864215d1e268a168e319c6
:1003b800da60996093609a68d360012217431f60de
:1003c8005d60009be5506760c1e7434203404b43d3
:1003d800db0ed65ccde73100200000f0b1fcb6e7bb
:1003e800ff010000440b000010040020dc06002080
:0803f8000804002029e66b0750
:020000040000fa
:10040000f0b5c64600b5574b9b7d002b17d0554a1b
:10041000137edbb2927d52b2002a13db514a137e67
:10042000dbb2927dd20702d5db0700d582e04d4ad0
:10043000137edbb2927d520701d55b074bd404bc1f
:100440009046f0bd5bb2002be8da464b5b8b07228f
:100450001340e3d0444ce38500f05efe414b842220
:100460001a752c230022e254636a002bd6d03e4a30
:10047000906a9847d2e7bb68f35c0b8593680133b9
:100480009360936898460b7e23420bd0404509d970
:100490004b682b40012beed163469b685b009b5b56
:1004a0000b85ebe7304b9a685b689a42bfd32e4bc3
:1004b00000221a755a602b4a01211175db68002b46
:1004c000b5d0294a10699847b1e727490a6a89696e
:1004d0005200535215e0244a2c23d35c002baed09b
:1004e000214b1a6adb699a42a9d21e4a138d9bb22c
:1004f000516807220a40012ae7d01b4a116a926913
:100500005354194b1a6a01321a621a6adb699a4209
:1005100000d094e7144b00222c215a54da61114a7e
:10052000583111755b6a002b00d188e70e4a906a3a
:10053000984784e70c4b1b7d002b00d177e70a4bd3
:100540009a685868074b1b7edb07abd58242a9d25d
:10055000054b1e68034907259c461f001a0001240d
:0c05600096e7c046000800426806002034
:020000040000fa
:10056c0070b5364b1c7ee4b29b7d23423ad0a30778
:10057c0013d5334a012313709370304b5b8bdb061e
:10058c00db0f53705368002b1ad0916801209847e9
:10059c00002828d0002000f073fa630710d5284bf0
:1005ac005d68002d0cd000f0d7fe002823d1244b21
:1005bc0099680230a847002819d0002000f060fa92
:1005cc00e3070cd51e4b00221a705b68002b03d07e
:1005dc001b4a916804209847184b01221a7664b282
:1005ec00002c1edb70bd012000f04afad5e701207b
:1005fc0000f046fae4e700f0b7fe002803d0104bf9
:10060c009b78002b09d00e4eb1680320a84700231d
:10061c00b370022000f034fad2e7032000f030fa75
:10062c00cee7074b5b68002b03d0054a9168052089
:10063c009847024b80221a76d4e7c046000c004241
:04064c00c0060020c4
:020000040000fa
:10065000f7b5002858d00838436801221e00964399
:1006600085192a680400934200d0ffde01276b68d9
:10067000226813403b420ed1200000f0effc00281e
:1006800043d1280000f01afd0028f0d06b68bb436e
:10069000f618ed18ebe73b003343636030002b6046
:1006a00000f086fc019000f0d1fd6b6822681340d9
:1006b0003b42e1d0184b019a1868596800f0fefde2
:1006c000384212d1019a0120002100f003fe0b00f4
:1006d000002804d0104a126802430f480260002b21
:1006e00003d00d4a53680b435360019b0a4a013300
:1006f000db00d3181a005b68083a66602e60e3607e
:10070000a260d460e3689c60f7bd2368bb43e41a31
:0c0710006368bb43f618b4e71004002037
:020000040000fa
:10071c00204b00229a619a8c80218a439a841a0079
:10072c001023d1680b42fcd01b4b1b689b0e3f2b3c
:10073c002dd09b02802292001343164a9362102301
:10074c00d1680b42fcd0134b02229a841a0010235e
:10075c00d1680b42fcd0114b04221a72104b114a77
:10076c005a60f02212019a601a0053785bb2002b87
:10077c00fbdb0b4b0c4a5a800c4a5a800c4a5a80b1
:10078c00064b0c4a1a62034b00221a627047203b3c
:10079c00cfe7c04600080040246080000004004001
:1007ac00000c004000070100144000001540000040
:0807bc00194000008c0001004f
:020000040000fa
:1007c400f0b51600050002278369426987b00293d9
:1007d400d31a03939b1904910596019302ac3a0032
:1007e4002100286800f0d5fc019b984208d1ab6831
:1007f400ea68ab619a18aa626b61300007b0f0bd79
:1008040000280cda102200236968ab620a43ab614a
:100814006b616a60022f12d06368f61aede7019be0
:100824001b1a01936368984202d9c01a0834013f25
:1008340023681b1823606368181a6060cfe71e00e2
:02084400dbe7f0
:020000040000fa
:02084600fee7cb
:020000040000fa
:1008480070b59cb0002000f02bfa00f057fd1a4854
:1008580000f0a2fd15a8194b0200190031c931c2d8
:1008680031c931c20968116007a91c330a0013cbca
:1008780013c213cb13c21b68136007ae1c2115a843
:1008880000f05cf81c210ea800f0ecfa1c210ea860
:1008980000f0c6fa6c4607ad00f000fd207001219b
:1008a800200000f0bdfa287800f032fd013401354f
:1008b800b442f1d1e2e7c04610270000241000003e
:020000040000fa
:1008c800f8b5846a05000f001600002c0ad0ab6a40
:1008d8006a699b1ab3420cd2320039002800fff72c
:1008e8006dff05e000f0ccfc03002000002beed0eb
:1008f800f8bd002ef0d02b0034331b785bb2002bf0
:100908001adb3400dbb2621eb95c994212d12200b4
:1009180039002800fff752ffa042e9d33f19341be2
:1009280022003900686900f010fd6b6930001c195d
:0c0938006c61dde7141ee6d13400f1e72d
:020000040000fa
:1009440070b500282fd0194b1a7d0023002a26d118
:10095400164b1860596001321a75154b1b7edb0764
:1009640016d500291dd00023114c0726012507e0c8
:10097400c25c22850133227e2a420ad0994208d9d8
:1009840062683240012af3d15a00825a2285f1e783
:100994000023064a9360064b01229a75012318002e
:1009a40070bd0b00f5e70023f9e7c0466806002098
:0409b40000080042f5
:020000040000fa
:1009b8000021f0b5174b184a934208d30027174a6d
:1009c80013685168002b05d1002903d1f0bd1970b7
:1009d8000133f1e7100095680c305c18002d16d033
:1009e8000b25ed1a5219a3420ad10b00032213401a
:1009f8005a1e934189085918890040180200dfe7f8
:100a08005d1cae5c1e702b00ede71f700133a34226
:100a1800fbd1f3e70000002000000020d800000010
:020000040000fa
:100a28007fb51600c2680d0013000091591e8b4156
:100a3800f31a01938368040003926946022200684e
:100a4800029300f090fb002808dc182208230240db
:100a58005340626813436360060010e0019b8342c1
:100a6800fad2a268c01ae3681018e2632064002b67
:100a780005d0531ce3631378ad19013d2b7030008a
:040a880004b070bd89
:020000040000fa
:100a8c00002808d112494b68124a1a40c0239b0215
:100a9c0013434b60704701280cd0022811d0032857
:100aac00f8d10b494b680c4a1a4080239b02134324
:100abc004b60efe7064a5168e023db020b435360bf
:100acc00e8e7034a5168c0239b020b435360e1e7fc
:0c0adc00000c0042fffff8fffffffcffd2
:020000040000fa
:100ae80000230e4a10b513600d4a13600d4a1360b7
:100af8000d4a13600d4a13600d4a536213610133a6
:100b0800936000f03bfc00f0f8fb0a4c0a4b9c4257
:100b180000d310bd08cc9847f8e7c046d806002097
:100b28002406002020060020180600201c060020ad
:0c0b380028060020c4000000c8000000d7
:020000040000fa
:100b4400202122232424252526262727282828284f
:100b5400292929292a2a2a2a2b2b2b2b2c2c2c2ce9
:100b64002c2c2c2c2d2d2d2d2d2d2d2d2e2e2e2eb1
:100b74002e2e2e2e2f2f2f2f2f2f2f2f0001170227
:100b84001d1813031e1b190b1408040d1f161c1229
:0c0b94001a0a070c1511090610050f0eb7
:020000040000fa
:100ba00070b504000d00002801d1002070bd43681d
:100bb0009b0607d543698269934215d80023a36237
:100bc000a3616361e16b236c994204d2c91a0122cb
:100bd000206800f0fefb00232364e3639d42e4d021
:100be000206800f0f1fbe1e70022c36a110098479a
:0c0bf0006369002be2d101204042d7e7ee
:020000040000fa
:100bfc00114b124a1a60124a9a81c02292025a6010
:100c0c001a00d369002bfcd10b4a136802210b4349
:100c1c001360d369002bfcd10a4b00229a61da6174
:100c2c001a622c215a545a621a605a609a601a75c8
:100c3c00da60da857047c046000800420401304093
:080c4c00b6f3ffff680600206b
:020000040000fa
:100c5400f8b505000c000020002d20d000f044fa67
:100c6400002c17d000200e4a0421072605e0178d1a
:100c74004300ef52013084420dd0137e0b42fcd06e
:100c8400538b334207d153683340012befd0138d7c
:100c94002b54efe72000201a44426041c0b2f8bd53
:040ca400001c0042ee
:020000040000fa
:100ca80010b5104b06225a600f4b1b6818680021bc
:100cb80000f042fb0d4b1b681868002100f03cfb5c
:100cc80000f012f9fff726fd00f060fb00f02cf9a8
:100cd800fff790ff00f0a6fa00f084f900f0e4f8be
:100ce80010bdc04600400041e8060020cc070020a7
:020000040000fa
:100cf80070b5040016001d00022a1cd043689b062c
:100d080019d4002908d1002d01d18025ed00280033
:100d18000830fff7b5fa010020236268a160134389
:100d280063602300e5603433ff22012e00d10a22dc
:100d38001a70024be362002070bdc046c90800006b
:020000040000fa
:100d480070b5c668856804000a00ae4211d101205a
:100d5800002100f0bbfac043c943431c03d00b4b2e
:100d68001a68104018604b1c03d0084a5368194091
:100d78005160012319006268b56011439a43ee601f
:100d88006160a41822681343236070bd100400201a
:020000040000fa
:100d980010b5064c2378002b07d1054b002b02d049
:100da800044800e000bf0123237010bd980600200e
:100db8000000000000000000044b10b5002b03d019
:100dc8000349044800e000bf10bdc0460000000011
:080dd8009c0600200000000051
:020000040000fa
:100de00010b50a4b98470a4b984700f0e4fa094bb4
:100df000ff229343084a9360084b9847084b984753
:100e0000084b9847fff720fdfee7c046a3120000fd
:100e1000a31200000000000000ed00e0e90a00005d
:080e2000a3120000a312000060
:020000040000fa
:100e280070b5002818d0002918d000250c4a0124d4
:100e3800072605e06b00c35a13850135a94209d07e
:100e4800137e2342fcd053683340012bf2d0435d1c
:100e58001385f2e7012070bd0020fce70120fae7c6
:040e6800001c004228
:020000040000fa
:100e6c0070b504000d00002815d00c4a2c23d35c5f
:100e7c000020002b00d070bd00f048f9074b9c619e
:100e8c00dd6100221a622c2101205854da85044bb2
:100e9c0084329a75efe70020ede7c0466806002023
:040eac0000080042f8
:020000040000fa
:100eb000bff35f8f62b60b4bc222920099580a486b
:100ec0000840c0210902014399508021890019601e
:100ed000995806480840c021090401439950f83246
:100ee0001a60704700e100e0ff00ffffffff00ff16
:020000040000fa
:100ef0000e4b012247215a5401315a5408315a5499
:100f000001315a5405315a54233930205854013193
:100f10002e3858540431203058543539193019546a
:100f20009b301a54ba3299547047c046004400416d
:020000040000fa
:100f30000d4b01221a601a00d369002bfcd10a4b19
:100f40000a4a1a601a00d369002bfcd1064b802292
:100f50005a6207329a751a6802210a431a601a0007
:100f6000d369002bfcd17047000c00421000100028
:020000040000fa
:100f70000c4a036810b5546a0b4a591e121b914261
:100f80000bd9002b05d00c220120084b40421a60df
:100f900010bd102202600020fae70f22173393439e
:100fa0000360f8e728060020efffff7fdc06002043
:020000040000fa
:100fb0000309013b1800202b07d90a4a934205d8a0
:100fc0000948db08c318043b18787047e0223f202b
:100fd00052019342f9d80448db09c318043b18783e
:0c0fe0001030f2e7ff010000440b00009d
:020000040000fa
:100fec000a4b0b4a1a600b4a9a81c02292025a6031
:100ffc001a00d369002bfcd1044a136802210b435d
:10100c001360d369002bfcd17047c046001c004212
:08101c0004012040b6f3ffffc0
:020000040000fa
:101024007561727465666768696a6b6c6d6e6f7002
:101034007172737475767778797a0a0069326364a9
:1010440065666768696a6b6c6d6e6f7071727374d4
:0810540075767778797a0a00bd
:020000040000fa
:10105c00f8b5050001262c68344201d000200ee0c2
:10106c002000fff79fff070000f0eaf82868a04275
:10107c00f1d1b043281a3900fff760fe0120f8bd0a
:020000040000fa
:10108c00084b02001968002901d10749196018683a
:10109c00064982188a4201d81a60704701204042e2
:1010ac00fbe7c046e0060020d8070020d809002046
:020000040000fa
:1010bc00f8b5050001276c683c4201d000200de01a
:1010cc002000fff76fff060000f0baf86b68a34230
:0e10dc00f1d128003100fff731fe0120f8bdf0
:020000040000fa
:0210ea00fee71f
:020000040000fa
:1010ec00094b5b8b5b070dd0074b80221a76793a44
:1010fc005a831b7e5b0705d5034b04211a8d1a7e80
:0c110c000a42fbd17047c046001c0042a4
:020000040000fa
:10111800094b5b8b5b070dd0074b80221a76793a17
:101128005a831b7e5b0705d5034b04211a8d1a7e53
:0c1138000a42fbd17047c046000800428c
:020000040000fa
:10114400020000234832d356591e0b431370042364
:101154004268134005d010231343436001204042ea
:0a11640070470364c3631800fae744
:020000040000fa
:10116e00f7b5002507000c002e000192019b9e4250
:10117e0001db2800febd62682168380000f03df8f2
:08118e0001362d180834f1e7c9
:020000040000fa
:10119600f7b5002507000c002e000192019b9e4228
:1011a60001db2800febd62682168380000f05bf8ac
:0811b60001362d180834f1e7a1
:020000040000fa
:1011be00012370b544689c43651a102d0ad9421854
:1011ce0019432b43116053600832035141601000e4
:0611de00fff737fa70bdb7
:020000040000fa
:1011e40010b5064b1b68064b9a6801329a601b685f
:1011f400002b02d0024a5068984710bd10e000e06e
:04120400b40600200c
:020000040000fa
:1012080010b50c000023002809d10300002a06d0dd
:1012180001212000fff71afd0028f9d0012318004a
:0212280010bdf7
:020000040000fa
:02122a00fee7dd
:020000040000fa
:10122c00054a002313609360c7215160c1391160d6
:10123c00024a93601360704710e000e0b40600208f
:020000040000fa
:10124c00064b0130c000c258002a05d10200083af2
:10125c00d21819184a60c2507047c04610040020ba
:020000040000fa
:10126c0070b50d001400012801d0200070bd2100c4
:0c127c002800fff7d3fd0028f9d0f6e7aa
:020000040000fa
:1012880010b50400fff75aff002805d1a368e268eb
:0a129800a36163619b18a36210bdff
:020000040000fa
:0212a200704793
:020000040000fa
:1012a400044ad369002bfcd1024a2833d05cc0b273
:0812b4007047c046000c004227
:020000040000fa
:1012bc00d0400b1cd1409c46203ad340184352429c
:1012cc0063469340184370479140031c90409c46e2
:1012dc00203a9340194352426346d3401943704716
:020000040000fa
:1012ec00006810b5002801da002010bdfff7c8fe19
:0612fc00431cfad1f8e7e3
:020000040000fa
:02130200704732
:020000040000fa
:10130400034b00229a601a6801210a431a6070474d
:0413140010e000e005
:020000040000fa
:10131800034a2823d054d369002bfcd17047c04618
:04132800000c004273
:020000040000fa
:10132c0010b500f047f8024b1860586010bdc0466d
:04133c00cc060020bb
:020000040000fa
:101340004a424a41802310b55200db00fff7d4fc2b
:0213500010bdce
:020000040000fa
:10135200002310b59a4200d110bdcc5cc4540133b5
:02136200f8e7aa
:020000040000fa
:10136400024b588b0007c00f7047c046000c004268
:020000040000fa
:10137400024b588b4007c00f7047c046000c004218
:020000040000fa
:1013840010b5fff7d1ff00f018f800f016f810bd03
:020000040000fa
:0c139400014b80225a607047004000416d
:020000040000fa
:0c13a0000138014b5860704710e000e07d
:020000040000fa
:0a13ac0010b50068fff75cff10bdec
:020000040000fa
:0813b60010b5fff7fefa10bdaf
:020000040000fa
:0213be00704776
:020000040000fa
:0813c0000048704750070020af
:020000040000fa
:0613c800012040427047c5
:020000040000fa
:0413ce000020704744
:020000040000fa
:0413d2000020704740
:020000040000fa
:0213d60070475e
:020000040000fa
:0200000400807a
:0440000077c700d8a6
:020000040000fa
:0200000400807a
:044004005c00ffff5e
:00000001FF
