:020000040000fa
:10000000f83f002065130000fb0d00001f100000ea
:1000100000000000000000000000000000000000e0
:100020000000000000000000000000003309000094
:10003000000000000000000033090000e917000084
:1000400033090000330900003309000033090000c0
:1000500033090000330900003309000033090000b0
:1000600033090000330900003309000033090000a0
:100070003309000033090000330900003309000090
:100080003309000033090000330900003309000080
:1000900033090000000000000000000033090000e8
:1000a0003309000033090000330900003309000060
:0800b00000000000330900000c
:020000040000fa
:1000b800f8b5c046f8bc08bc9e467047451300001a
:1000c800f8b5c046f8bc08bc9e4670471d13000032
:020000040000fa
:0800d8007807000001000000a0
:020000040000fa
:1000e0000023f0b506001500afb005910193059906
:1000f0000b78002b00d10fe101235b420a930eab7a
:1001000000240c93802309940b940d930b5d002b1a
:1001100001d0252b2ad1002c06d02200300001f07e
:1001200025fa059b1b190593059b1a78252a00d0f3
:10013000e7e0013302930593022310219c46082730
:10014000059803782b2b1bd025d8202b1bd0232bd5
:100150001dd02a2b2ad001f06df90b90059b1a783f
:10016000303a092a33d801330593f7e70134cde754
:100170000122099b80180393134309930590dfe73d
:100180000423099a0ee0099b03933b430be0099b70
:1001900003930b4307e02d2bead0302bd9d16246d5
:1001a000099b0393134309930130e7e72b68013060
:1001b0001a1d1b6805902a600b93002b07da099a19
:1001c0005b420392012203990b934a400992099bd7
:1001d000da0702d5022293430993059b1a782e2a47
:1001e0000ed10022581c0a9205905a782a2a28d14a
:1001f000023305932b681a1d1b682a6003930a9328
:1002000005a801f0e9f9059b0700187801f0f6fb55
:10021000692800d183e035dc632800d1d6e01bdcff
:10022000252800d1dfe0612859d0252306aa1370c4
:10023000029b0593002309930b93013b0a9302331e
:10024000b2e001f0f7f80a90059b1a78303a092ad3
:10025000d6d801330593f7e7642860d06728e4dc3b
:100260002a00390006a801f047fa002800d1a9e0c9
:10027000059b09a95a1c05921b7806aa300001f0bb
:10028000f3fb3de0702800d17de016dc6e2800d144
:1002900091e06f28c9d12b000022390006a800f098
:1002a000affb002800d18de0059b06aa013309a908
:1002b0003000059300f016fe22e0752840d0782823
:1002c0004fd07328b1d1802f00d07be0059b2a68e6
:1002d00001330593131d2b601268002364e02a008c
:1002e000390006a801f008fa002800d16ae0059b51
:1002f00009a95a1c05921b7806aa300001f0b4fb2c
:100300002418019b1c19a34200dc74e04f223b4bd4
:100310001a6001235b42019301982fb0f0bd2b00be
:100320000122390006a800f06bfb00284ad0059b8b
:1003300006aa013309a93000059300f0c0fbdfe7ee
:100340002b000022390006a800f05afb002839d003
:10035000059b06aa013309a93000059300f0eafec7
:10036000cee72b000022390006a800f049fb002848
:1003700028d0059b5a1c05921b7806aa09a93000b3
:1003800000f0ccf9bce72b000022f02106a800f019
:1003900037fb002816d0059b079a01330593069b6f
:1003a000134306d1164a163209a9300000f018ff8f
:1003b000a6e77823e1e7019b39001a1906a82b006c
:1003c00000f0c7fd059b013305939ae7802ff9d113
:1003d000059b013305932b681a1d1b682a6006aa2a
:1003e00013700123e0e7802fecd1059b06aa0133af
:1003f00005931070f5e7019479e6c046a406002045
:040400008c18000054
:020000040000fa
:10040400680600201c000000000000008406002094
:100414000c0000000000000098060020040000000a
:10042400000000009c060020040000000000000002
:10043400180600205000000000000000ac06002058
:100444006c00000001000000b8060020b406002083
:10045400b80600200000000025000000080000206d
:100464000004000000000000000000000000000084
:100474000000000000000000000000000000000078
:10048400000000006d1a00000000000000000000e1
:100494000000000000000000bb0f0000000000008e
:1004a4000000000000000000000000000000000048
:1004b400000000000000002008040000000000000c
:1004c4007807002020000000010000000100000067
:1004d4000300000000000000000000000000000015
:1004e400000000000000000090060020900600209c
:1004f4000800000000000000a00600200400000026
:1005040000000000a4060020040000000000000019
:10051400080400201002000000000000180700205a
:100524006000000001000000010000000300000062
:1005340000000000000000000000000000000000b7
:1005440000000000d91000000000000000000000be
:1005540000000000311a00002f1800000000000005
:100564000000000000000000000000000000000087
:100574000000000000000000000000000000000077
:100584000000000000000000a80600200400000095
:100594000000000000000000000000004444444447
:020000040000fa
:1005a400f0b587b0039003a800f062ff002802dad8
:1005b400002007b0f0bd039b1b095d1e202d09d947
:1005c4004f49023b4f4a8b4224d8db08d318043be3
:1005d4001d7801352a000120002101f0a1f9002431
:1005e40043428c4100930194474f00983a687b68da
:1005f4001040020001990b401a433fd1039b05a808
:100604001033059301f0a4f9002809d10c223f4bc3
:100614001a60cee7db09d318043b1d781135d9e7fe
:100624003b490c68a04206d0059b0400103b05938f
:100634000123103483600125059be2180a602b43d3
:10064400083a083c28c26360002cb1d0200000f0b6
:10065400f3ff00280bd023686168ab43e31a5a68a0
:10066400aa4352185a606168a94362501c002000d2
:10067400039901f091f8200008309ae7214a2549ae
:100684003c32002831d1584203404b43db0ed65c48
:100694002036300001f0daf8731cdb00fc58083b0c
:1006a400fb189c42a0d0272e25dd0235ae4201dc8a
:1006b4003f2e20d101226368039f9343dd1b280052
:1006c400009300f015ff864215d1e268a168e31992
:1006d400da60996093609a68d360012217431f60bf
:1006e4005d60009be5506760c1e7434203404b43b4
:1006f400db0ed65ccde73100200000f0bffdb6e78d
:10070400ff0100007c10000010040020a40600205b
:080714000804002029e66b0730
:020000040000fa
:10071c00f0b58fb00d934b680c9006938b680d0061
:10072c000793cb6816000393069b0f68002b44dbe2
:10073c0002239f4310233b400a93079b04930a9b7d
:10074c00002b07d0726833681343079a02d013004a
:10075c00023b049308233b400b935a1e9341049a8b
:10076c00d31a04933368039a0893736809932b691b
:10077c005c1e00231355069b0593012c20dc0a9b61
:10078c00002b52d10b9b002b03d02023039a013c4e
:10079c0013552b6900975a1e039b121b19190c98a1
:1007ac00079b00f0e7fa0c9b5b68db0503d56b68d5
:1007bc00984200da18000fb0f0bd01230693b9e798
:1007cc00089b099a13430cd1059b002b09dc069a54
:1007dc00049b9b1a059a9b18002bd0dd02231f4209
:1007ec00cdd00f22089b013c134018005730092b29
:1007fc0001dc303318000d9b413b192b06d820230c
:10080c000343613b192b01d801f0f9f8039b1855f0
:10081c00059b013b0593099b1a07089b1b091a436f
:10082c00099b08921b090993a7e70cce1343a9d087
:10083c00039b0d9a1b19013b1a703023039a023c3f
:04084c0013559fe7ba
:020000040000fa
:10085000f0b5060085b00f0015001c008b4265d86e
:1008600001d1824262d82100280001f067f83900e6
:100870000090300001f062f8009b21001b1a1a0062
:100880002800039301f04ef800900191019bbb42b8
:1008900046d802d1009bb34242d8009b019c039ae8
:1008a00001200021f61aa74101f03cf8039b002b20
:1008b0002fd0019b009adb0754081c43019b5d0865
:1008c000039b9c46bd422ed801d1b4422bd83200a6
:1008d0003b00121bab41012692185b410027b61862
:1008e0005f4101235b429c446346002bead180199f
:1008f0007941039a04000d003000390001f006f838
:10090000039a06000f0001f00df8241a8d41200013
:1009100029000a9b002b01d01e605f6005b0f0bd6e
:1009200000200021c2e7b6197f41dae7002000214c
:02093000efe7ef
:020000040000fa
:02093200fee7de
:020000040000fa
:10093400f7b5002858d00838436801221e009643b2
:1009440085192a680400934200d0ffde01276b68f2
:10095400226813403b420ed1200000f06dfe0028b7
:1009640043d1280000f098fe0028f0d06b68bb4308
:10097400f618ed18ebe73b003343636030002b605f
:1009840000f0b6fd019000f061ff6b68226813402f
:100994003b42e1d0184b019a1868596800f0b4ff43
:1009a400384212d1019a0120002100f0b9ff0b0056
:1009b400002804d0104a126802430f480260002b3a
:1009c40003d00d4a53680b435360019b0a4a013319
:1009d400db00d3181a005b68083a66602e60e36097
:1009e400a260d460e3689c60f7bd2368bb43e41a4b
:0c09f4006368bb43f618b4e71004002051
:020000040000fa
:100a000010b588293cd015dc81294dd003dc802924
:100a10004ad0002010bd822911d08429f9d119684b
:100a2000002a26d00a1d1a6000228b5e0360db17a5
:100a3000436011e0a02930d010dc9029e9d1196879
:100a40000724002a2ed00919a1430a0008321a608f
:100a50000b684c68036044600120dbe7c02901d0cb
:100a6000f029d6d11a68111d19601368036000239c
:100a7000dee70c1d1c600b689bb203604260ebe775
:100a80001968002a04d00a1d1a600023cb56cde74e
:100a90000c1d1c600b68dbb2efe71a68111d1960b2
:100aa0001368c3e70731cfe71968002a03d00a1d8e
:0e0ab0001a600b68bae70c1d1c600b68dde7ce
:020000040000fa
:100abe00f0b54b6889b005930b6807009c46079309
:100ace00cb680c008e68049310685168cd0f44d02b
:100ade000b000200002150429941059b002b08dbc0
:100aee000222634693430793002d02d1079b5a07b8
:100afe002ad5731e07aa02920a22009301920b00b6
:100b0e000200200000f0b8f8002d02d1079b5a0712
:100b1e001ed501382d23002d00d1023b049a13540b
:100b2e0023695a1e049b121a1918079b380000934a
:100b3e00330000f01ef97b68db0503d5636898422d
:100b4e0000da180009b0f0bd1b07db0ff31ad1e76e
:100b5e001b07e5d501382023e0e7059b002bbfda04
:020b6e00c4e7da
:020000040000fa
:100b70001c4b00229a619a8c80218a439a841a0025
:100b80001023d1680b42fcd0174b1b689b0e3f2be8
:100b900025d09b02802292001343124a93621023b5
:100ba000d1680b42fcd00f4b02229a841a0010230a
:100bb000d1680b42fcd00d4b0d4a5a601a00537895
:100bc0005bb2002bfbdb094b0a4a5a800a4a5a8067
:100bd0000a4b0b4a1a62034b00221a627047203bf1
:100be000d7e7c0460008004024608000000c0040a9
:100bf00000070100194000001e40000000040040f2
:040c0000800001006f
:020000040000fa
:100c0400f0b51600050002278369426987b0029394
:100c1400d31a03939b1904910596019302ac3a00ed
:100c24002100286800f0a4fd019b984208d1ab681c
:100c3400ea68ab619a18aa626b61300007b0f0bd34
:100c440000280cda102200236968ab620a43ab6106
:100c54006b616a60022f12d06368f61aede7019b9c
:100c64001b1a01936368984202d9c01a0834013fe1
:100c740023681b1823606368181a6060cfe71e009e
:020c8400dbe7ac
:020000040000fa
:100c8600f0b5050085b019000c9b100001931a6899
:100c96002b696c68013bef681d00002c00da01240b
:100ca6000026fe540a9e0123361b02960226164093
:100cb6000b9ad2170392002d04dc002b17d02800c4
:100cc60005b0f0bd02000a4307d1002c05dc029aec
:100cd6001219002af1dd002eefd00b9a039b00f0cb
:100ce600e6fb013d130030327a55013ce3e7102361
:0e0cf600019a12689a431300019a1360dfe717
:020000040000fa
:100d0400f8b5846a05000f001600002c0ad0ab6aff
:100d14006a699b1ab3420cd2320039002800fff7eb
:100d24006fff05e000f0befd03002000002beed0b5
:100d3400f8bd002ef0d02b0034331b785bb2002baf
:100d44001adb3400dbb2621eb95c994212d1220074
:100d540039002800fff754ffa042e9d33f19341ba0
:100d640022003900686900f026fe6b6930001c1906
:0c0d74006c61dde7141ee6d13400f1e7ed
:020000040000fa
:100d8000f0b51d00012389b014000e9a06001a4028
:100d90000391029201d1a5420ad8220003993000a2
:100da00000f0e4fba54203d82500280009b0f0bdff
:100db0002f1b01973a00102f00d91022202104a8e0
:100dc00000f004fe019b0f2b0ed80f2204a93a401d
:100dd000300000f0cbfb029b002be6d122000399f0
:100de000300000f0c3fbe0e7102204a9300000f05f
:0a0df000bdfb019b103b0193e4e7fb
:020000040000fa
:020dfa00fee712
:020000040000fa
:100dfc00194b01221a701a00537e5bb2002bfbdbdd
:100e0c00164b1a68164b1b68db0e07211140490163
:100e1c000b435201e021c9000a4013430e4a1385cb
:100e2c000323d37053700f4b1361537e5bb2002bb3
:100e3c00fbdb094bc12292009a801a00537e5bb2f5
:100e4c00002bfbdb044b0f221a761a00537e5bb28d
:100e5c00002bfbdb7047c046004000422460800042
:080e6c00206080000618000060
:020000040000fa
:100e74000021f0b5174b184a934208d30027174aac
:100e840013685168002b05d1002903d1f0bd1970f6
:100e94000133f1e7100095680c305c18002d16d072
:100ea4000b25ed1a5219a3420ad10b000322134059
:100eb4005a1e934189085918890040180200dfe737
:100ec4005d1cae5c1e702b00ede71f700133a34266
:100ed400fbd1f3e700000020000000200404000020
:020000040000fa
:100ee400f0b50b680c008f68cd68496887b00600c0
:100ef4000593002902db02218b43059305a953685e
:100f0400126802910821009701912000fff7b9feb1
:100f1400059bdb0602d5302301382b54059b1b07a8
:100f240002d5202301382b54236929185a1e059b06
:100f3400121a009330003b00fff720ff7368db05b3
:0e0f440003d56368984200da180007b0f0bdcc
:020000040000fa
:100f520010b584291fd007dc812915d0822922d01f
:100f6200802911d0002010bd90291cd008dc8829ce
:100f7200f8d119680c1d1c600b6803601a7010e030
:100f8200a02901d0c029edd119680c1d1c600b6885
:100f920003601a6005e019680c1d1c600b68036091
:100fa2001a800120dfe719680c1d1c600b680360c2
:080fb2001a60d2175a60f4e73f
:020000040000fa
:100fba007fb51600c2680d0013000091591e8b41bf
:100fca00f31a0193836804000392694602220068b7
:100fda00029300f0b6fb002808dc1822082302401e
:100fea005340626813436360060010e0019b83422a
:100ffa00fad2a268c01ae3681018e2632064002bd0
:10100a0005d0531ce3631378ad19013d2b703000f2
:04101a0004b070bdf1
:020000040000fa
:02101e00fee7eb
:020000040000fa
:1010200000230e4a10b513600d4a13600d4a136079
:101030000d4a13600d4a13600d4a53621361013368
:10104000936000f0d3fc00f040fb0a4c0a4b9c423a
:1010500000d310bd08cc9847f8e7c046a006002092
:101060002406002020060020180600201c06002070
:0c10700028060020c4000000c80000009a
:020000040000fa
:10107c002021222324242525262627272828282812
:10108c00292929292a2a2a2a2b2b2b2b2c2c2c2cac
:10109c002c2c2c2c2d2d2d2d2d2d2d2d2e2e2e2e74
:1010ac002e2e2e2e2f2f2f2f2f2f2f2f00011702ea
:1010bc001d1813031e1b190b1408040d1f161c12ec
:0c10cc001a0a070c1511090610050f0e7a
:020000040000fa
:1010d80070b504000d00002801d1002070bd4368e0
:1010e8009b0607d543698269934215d80023a362fa
:1010f800a3616361e16b236c994204d2c91a01228e
:10110800206800f0b3fc00232364e3639d42e4d02d
:10111800206800f09ffce1e70022c36a11009847ad
:0c1128006369002be2d101204042d7e7b0
:020000040000fa
:10113400f0b50b680c008f68cd68496887b006006d
:101144000593002902db02218b43059305a953680b
:10115400126802910a21009701912000fff791fd86
:10116400236929185a1e059b121a009330003b006c
:10117400fff704fe7368db0503d56368984200da61
:06118400180007b0f0bde9
:020000040000fa
:02118a007047ac
:020000040000fa
:10118c00f8b505000c000020002d20d000f098fad6
:10119c00002c17d000200e4a0421072605e0178ddd
:1011ac004300ef52013084420dd0137e0b42fcd031
:1011bc00538b334207d153683340012befd0138d3f
:1011cc002b54efe72000201a44426041c0b2f8bd16
:0411dc00001c0042b1
:020000040000fa
:1011e000f0b50f0087b0039015001049072204a83e
:1011f0001c0000f0e2fbbb687e6802933f68002d94
:1012000000d104ad002c03d1280000f0e7fb04005e
:10121000002e02dbb44200d934000097029b22006a
:1012200029000398fff7acfd07b0f0bd541a000089
:020000040000fa
:1012300070b5040016001d00022a1cd043689b06ee
:1012400019d4002908d1002d01d18025ed002800f6
:101250000830fff7a7f9010020236268a16013435b
:1012600063602300e5603433ff22012e00d10a229f
:101270001a70024be362002070bdc046050d0000ed
:020000040000fa
:1012800070b5c668856804000a00ae4211d101201d
:10129000002100f047fbc043c943431c03d00b4b64
:1012a0001a68104018604b1c03d0084a5368194054
:1012b0005160012319006268b56011439a43ee60e2
:1012c0006160a41822681343236070bd10040020dd
:020000040000fa
:1012d00010b50f4b06225a600e4b1b681868002190
:1012e00000f062fb0c4b1b681868002100f05cfbef
:1012f00000f05cf8fff73cfc00f094fb00f062fab1
:1013000000f050f9fff77afd00f097fb10bdc046e2
:0c13100000400041b006002094070020bf
:020000040000fa
:10131c0010b5064c2378002b07d1054b002b02d0bf
:10132c00044800e000bf0123237010bd68060020b4
:10133c000000000000000000044b10b5002b03d08f
:10134c000349044800e000bf10bdc0460000000087
:08135c006c06002000000000f7
:020000040000fa
:1013640010b50a4b98470a4b984700f068fb094ba5
:10137400ff229343084a9360084b9847084b9847c9
:10138400084b984700f040f9fee7c0468b11000077
:101394008b1100000000000000ed00e021100000af
:0813a4008b1100008b11000009
:020000040000fa
:1013ac0010b50f4b012244215a5402315a541031ba
:1013bc005a5424395a5401315a5430393b20195457
:1013cc004530802464001c504830fe3c1c540e30c8
:1013dc001a54b332002098540732995410bdc046a9
:0413ec000044004178
:020000040000fa
:1013f00070b5002818d0002918d000250c4a012407
:10140000072605e06b00c35a13850135a94209d0b0
:10141000137e2342fcd053683340012bf2d0435d4e
:101420001385f2e7012070bd0020fce70120fae7f8
:04143000001c00425a
:020000040000fa
:10143400030010b51a78202a0dd0110009390429a7
:1014440009d900212b2a02d02d2a01d101310133df
:1014540000200a2404e00133ece760430133801ade
:101464001a78303a092af8d9002900d1404210bd2f
:020000040000fa
:101474000c4a036810b5546a0b4a591e121b914258
:101484000bd9002b05d00c220120084b40421a60d6
:1014940010bd102202600020fae70f221733934395
:1014a4000360f8e728060020efffff7fa406002072
:020000040000fa
:1014b400002b11d1002a0fd1002900d1002802d01d
:1014c4000021c943081c07b4024802a14018029035
:1014d40003bdc0469905000003b4684601b50298ef
:1014e400fff7b4f9019b9e4602b00cbc7047c0469e
:020000040000fa
:1014f4000309013b1800202b07d90a4a934205d857
:101504000948db08c318043b18787047e0223f20e1
:1015140052019342f9d80448db09c318043b1878f4
:0c1524001030f2e7ff0100007c10000016
:020000040000fa
:101530001c2101231b04984201d3000c10391b0a03
:10154000984201d3000a08391b09984201d30009c7
:10155000043902a2105c40187047c046040302021e
:0c1560000101010100000000000000007b
:020000040000fa
:10156c00436870b50400d80510d52569954200d99b
:10157c0015002a00606900f01afa226963695b1988
:10158c00551b0022636125611a7070bddb06fcd40b
:08159c00200000f0f9f9f8e766
:020000040000fa
:1015a4000a4b0b4a1a60d22252429a81c0229202fa
:1015b4005a601a00d369002bfcd1044a1368022133
:1015c4000b431360d369002bfcd17047001c00420d
:0415d40004012240ac
:020000040000fa
:1015d800f0b5050000200a4c4200165d002e02d12d
:1015e800a2185078f0bd296801300f78c0b2b74210
:1015f80003d1a2180131507829600a28ecd9f1e703
:041608008c1800003a
:020000040000fa
:10160c0070b50020fff75efe00f0aaf900f054f967
:10161c00054d064c00f05cf900f0f8f9010028606b
:10162c00200000f0fff8f5e798060020641a00008f
:020000040000fa
:10163c00f8b5050001262c68344201d000200ee0dc
:10164c002000fff751ff070000f0fcf82868a042cb
:10165c00f1d1b043281a3900fff70cfe0120f8bd78
:020000040000fa
:10166c00084b02001968002901d107491960186854
:10167c00064982188a4201d81a60704701204042fc
:10168c00fbe7c046a8060020a0070020a009002008
:020000040000fa
:10169c00f8b5050001276c683c4201d000200de034
:1016ac002000fff721ff060000f0ccf86b68a34286
:0e16bc00f1d128003100fff7ddfd0120f8bd5f
:020000040000fa
:0216ca00704767
:020000040000fa
:1016cc00094b5b8b5b070dd0074b80221a76793a5e
:1016dc005a831b7e5b0705d5034b04211a8d1a7e9a
:0c16ec000a42fbd17047c046001c0042bf
:020000040000fa
:1016f800002380290fdb812901dd83290bd10721f4
:10170800136807338b431900083111601a685b6846
:0a17180002604360012318007047cf
:020000040000fa
:10172200020000234832d356591e0b431370042380
:101732004268134005d01023134343600120404206
:0a17420070470364c3631800fae760
:020000040000fa
:10174c00f7b5002507000c002e000192019b9e426c
:10175c0001db2800febd62682168380000f050f8fb
:08176c0001362d180834f1e7e5
:020000040000fa
:10177400f7b5002507000c002e000192019b9e4244
:1017840001db2800febd62682168380000f06ef8b5
:0817940001362d180834f1e7bd
:020000040000fa
:10179c00012370b544689c43651a102d0ad9421870
:1017ac0019432b4311605360083203514160100000
:0617bc00fff7baf870bd52
:020000040000fa
:0217c20070476e
:020000040000fa
:1017c400054a0023136093600449516006211160a7
:1017d400034a93601360704710e000e07fbb000091
:0417e4008406002057
:020000040000fa
:1017e80010b5064b1b68064b9a6801329a601b6855
:1017f800002b02d0024a5068984710bd10e000e064
:041808008406002032
:020000040000fa
:10180c0010b50c000023002809d10300002a06d0d3
:10181c0001212000fff7b4fc0028f9d001231800a7
:02182c0010bded
:020000040000fa
:02182e00704701
:020000040000fa
:101830000fb407b5054b04aa1b6802ca18680192c9
:1018400000f058f803b008bc04b018479407002013
:020000040000fa
:10185000064b0130c000c258002a05d10200083ae8
:10186000d21819184a60c2507047c04610040020b0
:020000040000fa
:1018700070b50d001400012801d0200070bd2100ba
:0c1880002800fff7b5fd0028f9d0f6e7be
:020000040000fa
:10188c0068076c094c836a9074a07ac000806888e1
:0c189c0000846c820081286e696c2900b9
:020000040000fa
:1018a80010b50400fff739ff002805d1a368e268e6
:0a18b800a36163619b18a36210bdd9
:020000040000fa
:1018c400044a137802210b431370537e5bb2002b3e
:0818d400fbdb704700400042fd
:020000040000fa
:1018dc00044a137b02210b431373537e5bb2002b20
:0818ec00fbdb704700400042e5
:020000040000fa
:1018f40013b50400019201aafef7f0fb6368db064e
:0819040001d50120404216bd8f
:020000040000fa
:10190c00d0400b1cd1409c46203ad3401843524245
:10191c0063469340184370479140031c90409c468b
:10192c00203a9340194352426346d34019437047bf
:10193c0010b5002903d1fff7f5fd203002e0081c9b
:08194c00fff7f0fd10bdc046dd
:020000040000fa
:10195400006810b5002801da002010bdfff784feee
:06196400431cfad1f8e774
:020000040000fa
:10196c00034b00229a601a6801210a431a607047df
:04197c0010e000e097
:020000040000fa
:1019800010b500f063f8024b1860586010bdc046f7
:04199000900600209d
:020000040000fa
:10199400c36a10b5002b01d0984710bd0068fff74b
:0419a40065fffae7fa
:020000040000fa
:1019a8004a424a41802310b55200db00fff73cfc55
:0219b80010bd60
:020000040000fa
:1019ba00002310b59a4200d110bdcc5cc454013347
:0219ca00f8e73c
:020000040000fa
:1019cc0003001218934200d1704719700133f9e7e4
:020000040000fa
:1019dc0003001a78002a01d1181a70470133f8e76e
:020000040000fa
:1019ec0010b5fff7c7fffff7e6fefff7e4fe10bdeb
:020000040000fa
:0e19fc000300413b192b01d8202318437047ec
:020000040000fa
:0e1a0a000300613b192b01d85f231840704781
:020000040000fa
:0c1a1800014b588b80b270470040004228
:020000040000fa
:0c1a2400014b82225a60704700400041d4
:020000040000fa
:0a1a300010b50068fff71cff10bda1
:020000040000fa
:081a3a00bff35f8f62b6704735
:020000040000fa
:081a420010b5fff716fa10bd04
:020000040000fa
:081a4c00004870471807002054
:020000040000fa
:071a5400286e756c6c29007f
:020000040000fa
:061a5c000120404270472a
:020000040000fa
:041a640025642000d5
:020000040000fa
:041a680000207047a3
:020000040000fa
:041a6c00002070479f
:020000040000fa
:041a70007047c046b5
:020000040000fa
:041a74000020704797
:020000040000fa
:0200000400807a
:0440000077c700d8a6
:020000040000fa
:0200000400807a
:044004005c00ffff5e
:00000001FF
