:020000040000fa
:10000000f83f002071060000050900000709000004
:1000100000000000000000000000000000000000e0
:10002000000000000000000000000000b308000015
:100030000000000000000000b30800006908000094
:10004000b3080000b3080000b3080000b3080000c4
:10005000b3080000b3080000b3080000b3080000b4
:10006000b308000045020000b3080000b308000018
:10007000b3080000b3080000d9000000b308000076
:10008000b3080000b3080000b3080000b308000084
:10009000b30800000000000000000000b3080000ea
:1000a000b3080000b3080000b3080000b308000064
:0800b00000000000b30800008d
:020000040000fa
:1000b800f8b5c046f8bc08bc9e467047510600001b
:1000c800f8b5c046f8bc08bc9e4670472906000033
:020000040000fa
:1000d800f0b5c64600b5574b9b7d002b17d0554a47
:1000e800137edbb2927d52b2002a13db514a137e93
:1000f800dbb2927dd20702d5db0700d582e04d4afc
:10010800137edbb2927d520701d55b074bd404bc4a
:100118009046f0bd5bb2002be8da464b5b8b0722ba
:100128001340e3d0444ce38500f05cfb414b842250
:100138001a752c230022e254636a002bd6d03e4a5b
:10014800906a9847d2e7bb68f35c0b8593680133e4
:100158009360936898460b7e23420bd0404509d99b
:100168004b682b40012beed163469b685b009b5b81
:100178000b85ebe7304b9a685b689a42bfd32e4bee
:1001880000221a755a602b4a01211175db68002b71
:10019800b5d0294a10699847b1e727490a6a896999
:1001a8005200535215e0244a2c23d35c002baed0c6
:1001b800214b1a6adb699a42a9d21e4a138d9bb257
:1001c800516807220a40012ae7d01b4a116a92693e
:1001d8005354194b1a6a01321a621a6adb699a4235
:1001e80000d094e7144b00222c215a54da61114aaa
:1001f800583111755b6a002b00d188e70e4a906a66
:10020800984784e70c4b1b7d002b00d177e70a4bfe
:100218009a685868074b1b7edb07abd58242a9d288
:10022800054b1e68034907259c461f001a00012438
:0c02380096e7c046001c00425002002067
:020000040000fa
:1002440010b5334b1c7ee4b21b7e1b074dd4304be0
:100254005b8b5b0710d504222e4bda602c4b5a8340
:100264001b7e5b0705d52a4b04219a6a1a7e0a4233
:10027400fbd1274b80221a76254b1b7e5b070cd5be
:10028400234b9a6a234b9b69ff2b06d8214b996910
:10029400214842549a6901329a611d4b1b7edb0747
:1002a40012d51c4b5a691b699a422dd2194b5a69b3
:1002b4001a49895c5a6901325a61154b1b7e9b07a6
:1002c40000d50224124b9962a3070dd5104b0222cc
:1002d4001a76104b00221a705a611a615b68002b5f
:1002e40002d00c4a9068984710bd094b08221a7630
:1002f400063a9a75074b00229a6101321a7001215d
:10030400074800f0e3faa2e7014b01221a75dbe784
:10031400000800429c020020000000200001002090
:040324000044004150
:020000040000fa
:100328001d4b00229a619a8c80218a439a841a0074
:100338001023d1680b42fcd0184b1b689b0e3f2b37
:1003480028d09b02802292001343134a9362102301
:10035800d1680b42fcd0104b02229a841a00102359
:10036800d1680b42fcd00e4b01221a720d4b0e4a7b
:100378005a601a0053785bb2002bfbdb094b0b4a1f
:100388005a800b4a5a80064b0a4a1a62024b0022cc
:100398001a627047203bd4e70008004024608000c0
:1003a80000040040000c0040000701001440000059
:0803b80019400000840001005f
:020000040000fa
:1003c000800200201c00000000000000000000204f
:1003d00000010000000000000001002000010000fa
:1003e000000000009c0200201c0000000000000033
:1003f000500200203000000000000000b802002081
:100400000c00000000000000c40200200a000000f0
:1004100000000000d00200200400000000000000e6
:10042000000200205000000000000000d402002064
:1004300004000000000000000000000000000000b8
:020000040000fa
:1004400070b500282fd0194b1a7d0023002a26d121
:10045000164b1860596001321a75154b1b7edb076d
:1004600016d500291dd00023114c0726012507e0d1
:10047000c25c22850133227e2a420ad0994208d9e1
:1004800062683240012af3d15a00825a2285f1e78c
:100490000023064a9360064b01229a750123180037
:1004a00070bd0b00f5e70023f9e7c04650020020bd
:0404b000001c0042ea
:020000040000fa
:1004b4000021f0b5174b184a934208d30027174a76
:1004c40013685168002b05d1002903d1f0bd1970c0
:1004d4000133f1e7100095680c305c18002d16d03c
:1004e4000b25ed1a5219a3420ad10b000322134023
:1004f4005a1e934189085918890040180200dfe701
:100504005d1cae5c1e702b00ede71f700133a3422f
:10051400fbd1f3e70000002000000020c00300002e
:020000040000fa
:1005240000230e4a10b513600d4a13600d4a136080
:100534000d4a13600d4a13600d4a5362136101336f
:10054400936000f0e0f900f0def90a4c0a4b9c429b
:1005540000d310bd08cc9847f8e7c046d402002069
:100564000c020020080200200002002004020020e7
:0c05740010020020c4000000c8000000bd
:020000040000fa
:1005800010b50f4b0f4a5a601a00d369002bfcd1eb
:100590000b4b0d4a1a601a00d369002bfcd10b4b90
:1005a00000229a615a611a61da605a601a70044b2b
:1005b0000c329a7500220121054800f089f910bd1e
:1005c00000080042400202000a0102009c020020d2
:0405d00000440041a2
:020000040000fa
:1005d400114b124a1a60d22252429a81c0229202cc
:1005e4005a601a00d369002bfcd10b4a136802210c
:1005f4000b431360d369002bfcd1094b00229a6191
:10060400da611a622c215a545a621a605a609a604a
:100614001a75da60da857047001c00420401204034
:040624005002002060
:020000040000fa
:1006280010b5064c2378002b07d1054b002b02d0c0
:10063800044800e000bf0123237010bd80020020a1
:100648000000000000000000044b10b5002b03d090
:100658000349044800e000bf10bdc0460000000088
:080668008402002000000000e4
:020000040000fa
:1006700010b50a4b98470a4b984700f03ff9094bd1
:10068000ff229343084a9360084b9847084b9847ca
:10069000084b984700f052f8fee7c04609090000f1
:1006a000090900000000000000ed00e02505000041
:0806b00009090000090900001e
:020000040000fa
:1006b800bff35f8f62b60c4bc22080001a580b49fb
:1006c8001140c02212020a431a50802292001a6076
:1006d80004301a5806491140c02212040a431a501d
:1006e8008022d2011a60704700e100e0ff00ffff9e
:0406f800ffff00ff01
:020000040000fa
:1006fc0070b50d4b5e681b68db0714d50b4b58436c
:10070c00094b9b6800280ed00021074c013605e0f0
:10071c00b51aeb18c9181300884204d9a2689a427a
:10072c00f6d89b1af6e770bd10e000e0c05d000043
:020000040000fa
:10073c0010b5002000f06af800f0a2f8094800f0ab
:10074c00cdf80021084800f0c3f8084c0a2120001d
:10075c0000f02cf80a212000fff76cfe6420fff754
:10076c00c7fff3e710270000f5080000c4020020c3
:020000040000fa
:10077c000d4b40221a603f3a44215a5401315a54cd
:10078c0001310220585401315a540f315a54233933
:10079c00303019540238585430390b3019549b30be
:0c07ac001a54ba329954704700440041be
:020000040000fa
:1007b80070b50d00084b9c7de4b21c75074b9b6916
:1007c8008b4201d2054b9d692a00054900f064f867
:1007d800014b9c75280070bd000800429c02002057
:0407e80000000020ed
:020000040000fa
:1007ec00094b5b8b5b070dd0074b80221a76793a4d
:1007fc005a831b7e5b0705d5034b04211a8d1a7e89
:0c080c000a42fbd17047c046001c0042ad
:020000040000fa
:1008180010b5094b06225a60fff7acfffff780fdc1
:1008280000f04cf8fff7a8fe00f008f8fff7cefe3e
:0c083800fff73eff10bdc046004000412d
:020000040000fa
:10084400054a002313609360044951600621116036
:10085400034a93601360704710e000e0bf5d00003e
:04086400b8020020b6
:020000040000fa
:1008680010b5064b1b68064b9a6801329a601b68e4
:10087800002b02d0024a5068984710bd10e000e0f3
:04088800b802002092
:020000040000fa
:10088c00034b00229a601a6801210a431a607047d0
:04089c0010e000e088
:020000040000fa
:1008a000002310b59a4200d110bdcc5cc454013372
:0208b000f8e767
:020000040000fa
:0208b200fee75f
:020000040000fa
:1008b400024bd8680022da607047c0469c020020d0
:020000040000fa
:0c08c400014b80225a6070470040004148
:020000040000fa
:0c08d00003695a40114059400161704713
:020000040000fa
:0c08dc00014b5860996070479c0200209e
:020000040000fa
:0c08e8000138014b5860704710e000e040
:020000040000fa
:0808f40010b5fff7ddff10bd98
:020000040000fa
:0808fc0010b5fff7d9fd10bd96
:020000040000fa
:02090400fee70c
:020000040000fa
:02090600fee70a
:020000040000fa
:02090800704736
:020000040000fa
:02090a00704734
:020000040000fa
:0200000400807a
:0440000077c700d8a6
:020000040000fa
:0200000400807a
:044004005c00ffff5e
:00000001FF
