:020000040000fa
:10000000f03f0020394c0000e72e0000333d000097
:1000100000000000000000000000000000000000e0
:100020000000000000000000000000003b21000074
:1000300000000000000000003b21000019550000f6
:100040003b2100003b2100003b2100003b21000040
:100050003b2100003b2100003b2100003b21000030
:100060003b2100003b2100003b2100003b21000020
:100070003b2100003b2100003b210000dd5300003c
:100080003b210000055400003b2100003b21000003
:100090003b21000000000000000000003b210000a8
:1000a0003b2100003b2100003b2100003b210000e0
:0800b000000000003b210000ec
:020000040000fa
:1000b800f8b5c046f8bc08bc9e467047194c00000d
:1000c800f8b5c046f8bc08bc9e467047f14b000026
:020000040000fa
:0800d800723500000100000078
:020000040000fa
:1000e000f0b5be4c0125a544109300230400080080
:1000f00008920693302855d02e287ad1e36be26c13
:1001000093425cd25a1ce263187800220023012734
:1001100002920393302856d0012309930023002232
:100120001e0015001f001293049301930300303b3f
:10013000092b64d92e2864d0099b002b01d102958c
:100140000396069b002b00d1bbe320230343652bc2
:1001500000d0cfe39999200002f082ff00280fd150
:1001600080231b0699420bd1999b002b00d1b7e34a
:10017000e36c00200021002b02d0e36b013be36322
:10018000029b039c1b184c4102930394129c002c6d
:1001900000d085e0989805f06bfa0022002302f069
:1001a000f9fda3e3e36be26c934204d25a1ce263d1
:1001b000187806959ee7200004f0aefaf9e72000d3
:1001c00004f0aafaa1e701225242d3170298039938
:1001d00080185941e36be26c02900391934204d280
:1001e0005a1ce2631878069794e7200004f094fa0a
:1001f000f9e7002300220993029203938ee72e2849
:100200000ed1099b002b49d1029503960133099326
:10021000e36be26c93423dd25a1ce263187885e7a7
:10022000019a7c2a21dc2900320001250026491987
:1002300072410d001600302800d00491002f06d026
:10024000019a12a9920052580a214a43d318019ade
:1002500012a992005350012301370693092fd7d1d9
:10026000019b002701330193d2e72a0033000125c7
:1002700000265219734115001e003028c8d0f822fc
:100280000121520012ab9b580b4312a98b50544bc7
:100290000493bde7200004f03ffa47e72e2050e723
:1002a000029a95421bd1039a964218d1002e16dc71
:1002b00001d1092d13d8089b1e2b03dc2300089abb
:1002c000d3400cd1989805f0d3f9060020000f0018
:1002d00005f0dcf902000b00300039005fe7109bed
:1002e000109adb0f9b185b1003995b42da1791425f
:1002f00003dc11d1029a9a420ed92222394b9898e6
:100300001a6005f0b5f90122374b524202f042fd66
:100310000122354b524242e7109b03996a3bda17a0
:100320008a4203dc11d1029a93420ed922222d4b2c
:1003300098981a6005f09cf9802300225b0302f074
:1003400029fd802300225b0329e7002f07d00a2123
:10035000019b9a00082f19dd019b01330193049b37
:10036000029e082b66dcb34264dc112e62dc092e8f
:1003700014d1129805f08af90d000400989805f040
:1003800077f902000b002000290008e712abd358d0
:1003900012a806934b4301371350dbe7082e27dce6
:1003a000129805f073f9040098980d0005f060f9b3
:1003b00002000b002000290002f0ecfc08230b4a8d
:1003c0009b1b9b00040098580d0005f051f902009a
:1003d0000b002000290003f0ddfa87e2b4fdffffe7
:1003e0005c040000b8060020ffffef7f745000009f
:1003f0003300093b9a009b1a089a9b181e2b02dcbb
:10040000129ada4016d1129805f040f90400989833
:100410000d0005f02df902000b002000290002f06c
:10042000b9fc33008e4a0a3b9b0004000d0098582b
:10043000a5e70193019b12a9013b9a005258002a9b
:10044000f7d00921300003f0bffc0f1e1bd0002e97
:1004500000da093708230024db1b814a9b009b58e4
:1004600012ad099304940294029b019a93420dd118
:10047000002c05d0930012aa9c50019b01330193dc
:10048000f61b049f09360023029380e0286809992f
:1004900003f05efe03190e912b60099971480693d3
:1004a00003f048fc0e9c029b049a4443934208d1fb
:1004b000069b002b05d17f22029b093e01331a4087
:1004c0000492029b043501330293cde7029b002581
:1004d0001d3b0293019b5c1e7f231c4012aaa300bc
:1004e0009b580022d9085b070b910d920a930c953b
:1004f0000a9a0b9b0c980d9912184b410492059384
:10050000059b002b04d1049b1a00564b9a421ed91e
:1005100004980599534a002304f09afc514a0500b7
:1005200004980599002304f093fca30012a95a50e3
:100530007f21019b013b0b40a3420bd1bc4269d000
:10054000002a00d101947f23013c1c40c6e7049a95
:10055000059deae7bc42f6d1002d18d07f22013f6d
:100560001740019a0936ba420ed17f215a1e0a401d
:10057000920012a810589900019012a809580198e9
:100580000193014312a81150bb0012aa9d50112ed5
:100590009cdd122e05d1bb0012a9334a5b58934251
:1005a00094d97f22019b9f4213d012a9bb005b58b4
:1005b0002d498b420dd92d498b420cd101997b1cc1
:1005c0001340994205d09b0012a829491b588b4221
:1005d00001d8122e4ed001211b2e00dd0831029bc6
:1005e00000205b18029301238b40013b04931d4bb9
:1005f0000b4106933b00019ca3420dd10028d1d0b2
:10060000230001331340bb421ed0a10012ac605046
:100610000193c7e73b009fe79c00250012ac2c59d3
:10062000a446cc40241812a82c506046049d2840b3
:10063000069d6843bb4204d1002c02d15f1c1740c9
:10064000093e01331340d6e70120019b12a9013b6b
:1006500013409b00c9580491014312a8c150a1e75f
:100660007450000000ca9a3b5e7089005f70890078
:10067000ff092f0f019b9f4209d17f237a1c1a404b
:10068000130001920022013b9b0012a9ca50bb003b
:1006900012aad05804f0faff0022002302f09af9bf
:1006a0007f23019a7e1c1e40964208d101321a40d7
:1006b000130001920022013b9b0012ace250002289
:1006c0008e4b02f067fb04000d0012abb600f05831
:1006d00004f0dcff22002b0002f07cf904000d0086
:1006e000989804f0c5ff22002b000690079102f0b5
:1006f00051fb029b109a353311939b1a089a0a906a
:100700000b910c93934200dbbde0002b00dabee0be
:10071000049301230993049b342b00ddbce0692280
:10072000049b0020d21a764904f000f90a9a0b9b28
:1007300005f09ef83522049b0e900f91d21a0020ee
:100740006f4904f0f3f802000b000a980b9905f0ca
:10075000e3f802000b0004000d000a980b9905f065
:1007600097f802000b000e980f9902f033f90a90e7
:100770000b917f21019bba1c0a409a4234d092000f
:1007800012abd3585f4a934200d98ce0002b04d1be
:10079000019afb1c0b4093420dd000225a4b069845
:1007a000079902f0f7fa02000b002000290002f07e
:1007b00011f904000d003523049a9b1a012b13dd57
:1007c00000224f4b2000290005f0a6f8002200234c
:1007d00004f096fd002807d0200029000022484b95
:1007e00002f0f8f804000d000a980b99109b089a83
:1007f0005b429b1a019322002b0002f0ebf80e9a49
:100800000f9b05f045f8019b06005a1e119b0f0037
:100810005b005b089a4230dc05f07af800223b4b23
:1008200004f072fa002814d0099b002b06d0049a19
:100830000c9b9b1a1a00531e9a410992344b3000ac
:100840003900002202f0a6fa06000f00029b0133d5
:100850000293019a029b0332343393420ada099bd2
:10086000002b0ad0002200232000290004f048fdbc
:10087000002802d12222274b1a60029a3000390048
:1008800005f042f832e0089b0493002342e701237d
:1008900009930023049342e70024002325000e93cc
:1008a0000f941c0065e71c4a934202d000221b4ba8
:1008b00075e7019afb1c0b409342f7d10022144bc1
:1008c0006de7002809dbe36c002b02d0e36b013bf2
:1008d000e363069b002b00d058e416220d4b1a60f0
:1008e0000021200004f0e0fe0020002193239b0063
:1008f0009d44f0bd0028e6da48e4c04665cdcd4110
:100900000000f03fff64cd1d0000d03f00004043d9
:100910000000e03fb80600200065cd1d0000e83f64
:020000040000fa
:10092000f0b595b004000492022900d9dae0b34b87
:100930005a1c5218d27f490052b2591812922422de
:100940008b5e0a93e36be26c93422fd25a1ce263f4
:100950001d78202df6d02b00093b042bf2d9012263
:100960002b2d28d0069202232d2d25d00027a34e13
:100970002a362023ba5d2b4393422cd0032f03d079
:1009800044d9049b002b4cd0e26c002a02d0e36bcc
:10099000013be363049b002b2bd0032f29d0002abb
:1009a00002d0e36b013be363013ff6e7200003f075
:1009b000b3fe0500cde70023d31a0693e26ce36b88
:1009c000934203d25a1ce2631d78cfe7200003f064
:1009d000a3fe0500cae77b1c0293072f09d0e36b37
:1009e000e26c93420dd25a1ce2631d78029f082fdd
:1009f000bfd1069b0020013300d1abe2804915b086
:100a0000f0bd200003f088fe0500efe7002f08d1bd
:100a10007a4e33362023ba5d2b43934208d0002f01
:100a20006bd0e36c002b56d0e36b013be36352e0e9
:100a30007b1c0293022f09d0e36be26c93420dd230
:100a40005a1ce2631d78029f032fe3d1e36be26c33
:100a5000934208d3200003f05ffe07e0200003f07c
:100a60005bfe0500efe75a1ce26318782838431e46
:100a70009841c0b201252026002809d0e36c002b44
:100a800002d100205f49bae7e36b013be363f8e77b
:100a9000e36be26c93420fd25a1ce26318780300b6
:100aa000303b092b06d90300b343413b192b01d935
:100ab0005f2805d10135ebe7200003f02dfeeee7be
:100ac0002928ded0e26c002a02d0e36b013be3630d
:100ad000049b002b0ed116224b4b1a6000212000e4
:100ae00004f0e2fd0020002189e7002a02d0e36b38
:100af000013be363013df8d2c3e7129b0b93302d1a
:100b000000d01ce2e36be26c93424cd25a1ce263cd
:100b100018782023e26c0343782b00d00ae2e36bc1
:100b2000934244d25a1ce2631878002301250f93a4
:100b3000302840d02e284bd0002200230892099361
:100b40000e93002300221393304b00251092119333
:100b500000230026029203930300303b0c93092be1
:100b60006ad920230343613b052b65d92e2865d024
:100b70000f9b002b00d0cce0e36c002b00d1ebe10d
:100b8000049ae36b002a00d1bce00e9a002a00d040
:100b9000b6e0023be363069804f06afd00220023fe
:100ba00002f0f8f82be7200003f0b6fdb1e72000d3
:100bb00003f0b2fdb9e7e36be26c934204d25a1c36
:100bc000e26318780f95b3e7200003f0a5fdf9e77d
:100bd000e36be26c93420dd25a1ce2631878002258
:100be000002301256d42ee170892099330280fd09b
:100bf0000123a5e7200003f08ffdf0e7745000000b
:100c00000000f07f0000f87fb80600200000f03ff1
:100c1000e36be26c93420bd25a1ce2631878089a99
:100c2000099b521973410892099301230f93dde741
:100c3000200003f071fdf2e72e2813d10e9b002b4c
:100c400000d08ee10c950d9601330e93e36be26cb0
:100c5000934251d25a1ce2631878089509960c9d6c
:100c60000d9e79e7392803dd20230343573b0c937e
:100c7000002e2adc01d1072d0dd80c9b3f01df1976
:100c80000122002352197341089d099e0c920d9375
:100c900001230f93dae70d2d17d810981199002230
:100ca000b34b02f077f8109011910c9804f0e0fc2f
:100cb000109a119b02f06ef802000b000298039943
:100cc00001f088fe02900391dae70c9b002bd7d04d
:100cd000139b002bd4d1109811990022a54b02f040
:100ce00059f80b0002000298039901f073fe0123ea
:100cf000029003911393c3e7200003f00dfdace7ce
:100d0000033b47e7013be3630021200004f0ccfcf8
:100d100041e70e9b002b01d1089509960122002383
:100d200002e0ad185e413f01002e02dcf9d1072d33
:100d3000f7d92025284370280dd10499200002f00e
:100d40008ff900280fd180231b0699420bd1049bf9
:100d5000002b00d1c2e6e36c002b02d0e36b013b19
:100d6000e36300200021002f00d114e7089a099bbb
:100d700008246442e51712196b411400960f9b007a
:100d80003343a20012184b41049205930a9b059924
:100d90005b42da17914203dc11d1049a9a420ed9d0
:100da0002222754b06981a6004f062fc0122734bf4
:100db000524201f0efff0122704b5242f0e60a9bd3
:100dc00005996a3bda178a4205dc00d0a8e0049a4c
:100dd000934200d8a4e02222674b06981a6004f0e0
:100de00047fc802300225b0301f0d4ff8023002214
:100df0005b03d5e60022029803995e4b03f084ff63
:100e00007f00002800d186e00298039900225c4b05
:100e100004f03efd013702000b000298039901f037
:100e2000d9fd049a059b12196b410290039104921b
:100e30000593002fdeda04980599129b2022dc1717
:100e4000002312184b410a98c117121a8b419c4279
:100e500003dc08d11299914205d9049b0a9a9b1a86
:100e600020330b9360d40b9b342b60dc54220b9b00
:100e70000020d21a424903f059fd040006980d00e3
:100e800004f0f6fb0b0002002900200004f0f0fc47
:100e90000b9b04000d001f2b0edc0298039900220f
:100ea000002304f02dfa002806d1fb0704d4002209
:100eb0000023029203930137069804f0d9fb029aab
:100ec000039b0690079101f065ff029003913800a3
:100ed00004f0dcfb069a079b01f05cff22002b006c
:100ee00001f078fd029a039b01f074fd22002b00b3
:100ef00004f0cefc0022002304000d0004f000faf0
:100f0000002802d022221c4b1a60049a20002900db
:100f100004f0fafc73e5029a039b100019007ee7c7
:100f200001246442e51784e700230b939ee7002425
:100f30000025c1e7002a02d0e36b013be363049b79
:100f4000129a0193069b2900009320000a9bfff749
:100f5000c7f854e50b4952e5049b002b00d01ae674
:100f6000d2e60f9b2e20002b00d0d7e604e6c04629
:100f70000000b03f0000e03fb8060020ffffef7f19
:080f80000000f03f0000f0ff4b
:020000040000fa
:100f8800f0b59bb013930b6815900d934b681291b5
:100f980004938b680e930b691893cb6806931368b8
:100fa8000b9353680b98089300220023089903f0c9
:100fb800a9ff00280dd10d9b5b073ad408200d9b93
:100fc80003400c930e9b07930c9b002b0fd0202300
:100fd80006e0802212069446089b634408932d235a
:100fe800069a13700e9b013b079301230c93089bf1
:100ff8000b995b005b08984a00291ed193421cd1cb
:10100800069c139ba4460c9a413b624493491000ea
:10101800192b10d804f054fc069804f004fc0d9b1e
:101028000200009306990e9b159803f093f91bb0e4
:10103800f0bd2b23d4e70431ece7934203d810d159
:101048000b9b002b0dd0069c139ba4460c9a413b8e
:10105800624482491000192b01d80831dae70c31b3
:10106800d8e7002200230b98089904f045f90026d8
:101078007b4f002833d000230393139804f00cfc13
:10108800c3b20f93049b002b00dae8e10f9b0a938d
:10109800672b00d0f1e0049b002b00d1dae1039b21
:1010a800043304db039b049a934200dae0e06523ef
:1010b800f9e026002f00039b013303930022694bbc
:1010c8003000390001f062fe0b9a089b04000d0005
:1010d80003f0f9fe0028ecd00024012524e0039059
:1010e800ece7039b1a00604b9a4212da002c10d1ed
:1010f80000225e4b0b98089901f048fe00220b90e5
:10110800089130003900594b01f040fe2c000600d0
:101118000f00544b30003900002202f037fc060063
:101128000f00039b013b039332003b000b98089987
:1011380003f0e8fe0028d4d19fe700230024109391
:101148001194fee0089609970a9b039d652b00d031
:1011580019e1002517e1002f0ad1002d08da2e2306
:10116800069a149901365354079b0137013b07939c
:10117800a21933009446302102e0069ad154013373
:101188009c45fad1079aa319141b069a30305e1ca5
:10119800d054631e0793002421e0129b14961b6908
:1011a8000493053bb34200d8f7e0089a099b0b98d3
:1011b800109902f0ebfb02f005fd0490059103f095
:1011c800ddff092800dd092010230d9a1340034391
:1011d800c1d10f9b672bbed1002dc9da0134802005
:1011e8000006844610990b9a61440b0004980599ef
:1011f80000920193089a099b04f03efb80231b068a
:10120800cb180b901093089809990022154b02f0ff
:10121800bdfb013d08900991bbe00d9bdb0600d4a6
:10122800bee02e23069a93550136b9e0039839009b
:1012380002f0c6fd069b3031013c19550398390070
:1012480002f074fd079b0390013b0793bfe0069ae9
:10125800125c1a540138ede00000f07f5e5800007f
:101268000000f03f00002440d4feffff0000504380
:10127800039b002b16da66230a93049b013304931d
:101288000a9b662b10d1039b002b03da0023002650
:10129800764f03930f9b672b04d0039a049b9446c5
:1012a8006344049366230a930023109611970b9db9
:1012b800089c1493109a119b2800210002f066fbe9
:1012c80002f080fc1690179103f058ff80212a0045
:1012d8000906631819900092019316981799109aa5
:1012e800119b04f0c9fa80231b06cc180022604b1e
:1012f80005001098119902f049fb149b1090119168
:1013080001331493149a049b9342d3d10022594b6e
:1013180001f03cfd1090119102000b002800210003
:1013280003f0f0fd002800d007e7109a119b280071
:10133800210003f0e1ff002803d0199bdb0700d44c
:10134800fbe6109a119b0b98089901f03ffb0022cd
:101358000b901091464b3000390001f017fd0b9aa5
:10136800109b0890099103f0a9fc002800d1e9e638
:10137800039b013303930a9b662b00d0e4e6049b8e
:10138800039d0133049300242700049b0c9eeb1a51
:101398001693169b9d4200d0ffe6002f00d13ce734
:1013a8000025069b9b1904931d700a9b652b31d160
:1013b800189b5c1e069b1d55039bab4202da5b42e1
:1013c8000393013503230a27189a9b1a0893039b52
:1013d800002b00d02ae7089b1b19002b00dd25e70e
:1013e800621e2d23002d00d1023b0699023c8b542e
:1013f800139b413b192b01d845230a93069b1919c6
:101408000a9b0b70079b023b0793a64202da0498db
:1014180004f056fa03230d9a1340022b00d0fbe583
:10142800079b002b00dcf7e5069804f0fcf9069b07
:10143800079a9b180c9a824200dc08e71300069a68
:101448003021944663441800079a04f0e4f9002315
:101458000e93e1e50123049321e60623fbe70f9ba6
:10146800672bfad00a930623049306e70000f03f9f
:081478000000244000001440b4
:020000040000fa
:10148000f0b599b014930b68566809934b681390a4
:101490000d938b68cf680c930b693100119313681f
:1014a000002207930798002303f030fd00280cd199
:1014b000099b5b0732d40820099b0c9d03400593d0
:1014c0000cd02023013d3b7006e080231b06f6185c
:1014d0002d233b700c9b5d1e01230593079a73001f
:1014e0005b08002a1cd1b24a934219d1149bb14c1b
:1014f000059a413bb8182100192b00d9211d04f091
:10150000e3f9201d04f093f9099b020000933900d0
:101510000c9b139802f022ff19b0f0bd2b23d8e7e3
:10152000a34a934203d812d1079b002b0fd0149be0
:10153000a04c059a413bb8182100192b05d8083159
:1015400004f0c2f920000c30dce70c31f8e7059b11
:1015500005995a1c30237b54149b413b0e930e99e2
:101560005823192900d920330599bb540231ab1ee9
:1015700005910893002200230798310003f0c0fe74
:10158000002800d164e100238b4c0693029303945e
:101590000d9b1093002b01da18231093029b039ce0
:1015a0000a930b9434000023079d129328000a9a93
:1015b0000b9b210002f0eef902f008fb0a9a0b9b4c
:1015c0001690179101f0e6fb02000b0028002100a5
:1015d00004f05ef9794b05000c000a980b99002283
:1015e00001f0d8fb129b0a900b9101330f930d9bd6
:1015f000002b07da002200232800210003f080fee0
:10160000002806d1109b129a934200dd26e1013397
:101610000f9300220a980b99694b01f0bbfb0a90cb
:101620000b9102000b002800210003f06ffc002842
:1016300000d015e10a9a0b9b2800210003f060fe00
:10164000002806d01698179903f09cfdc30700d414
:1016500006e10a9a0b9b0798310001f0bbf9129141
:1016600049000a904908002803d1514b994200d102
:101670003ce70025059c10950795119b2600053b2e
:10168000a34230d9029a039b0a98129902f082f978
:1016900002f09cfa1490159103f074fd031e00d023
:1016a000e3e0079a002a00d1dfe00135029a039bac
:1016b0001498159901f06efb02000b000a9812991c
:1016c00004f0e6f800220a9012913c4b029803992c
:1016d00001f060fb079b0290039101330793079a87
:1016e0000f9b9342c9d1109b002b1ad1002d00d122
:1016f000fce00d9b002b00dcf8e0099bdb0700d52c
:10170000f4e02e2230213b191a702a19ba185970a8
:1017100001339a42fbd12c19ed43089b0134eb189d
:10172000089300263b191e700293119b5d1e069bb9
:101730007e55b34202da5b42069301360223119ac8
:101740009b1a0793069b002b00d0bbe0079b5b19fd
:10175000012b00d1b6e06a1e2d23002e00d1023be2
:10176000bb540e9a023d5023192a00d9203379190f
:101770000b70ac4202da029804f0a6f80323099a2f
:101780001340022b12d1089d023d002d0edd3800c2
:1017900004f04df87b19059a904200dba2e0b818de
:1017a00030212a0004f03bf800230c933800a9e60e
:1017b0000000f07f4e5800000000f03f0000b03ff6
:1017c00000002040069b0294039501330693029a81
:1017d000039b1000190001f0fdf804000d00020049
:1017e0000b000798310003f091fb0028ead0029a21
:1017f000039b0798310003f089fb002800d1c7e65e
:101800000298039900223d4b01f0c4fa0022002304
:1018100003f076fd00280fd0029803990022384b80
:1018200001f0b8fa002202900391354b079831007d
:1018300001f0b0fa0e000790304b02980399002295
:1018400001f0a8fa069b02900391013b0693cee7b4
:1018500000232c4c069002930394b8e70f9ba4e658
:10186000002300240a930b94f3e6109a002a0ad16d
:10187000079a002a07d02e22ba55089a0134013a55
:101880000892012210922e1902e030223a550134ba
:10189000b442fad11800089a5730551b092b01dcc5
:1018a000303318000e9b192b06d820230343613bcd
:1018b000192b01d803f0fbff6b1e741cb85508935d
:1018c0000025f3e606980a2102f07efa013d303148
:1018d000795506980a2102f02dfa089b0690013be3
:1018e00008932fe73a5c1a54013854e7099bdb064a
:1018f00000d416e72e233b55013412e70000e03fe9
:08190000000050430000f03f1d
:020000040000fa
:10190800f0b58bb0040001910292242901d8012975
:1019180003d11622b84b1a6056e0e36be26c93428f
:1019280024d25a1ce2631d78202df6d02b00093be7
:10193800042bf2d90222223b9343002203929342c2
:101948000bd12d3d6b425d416b420393e26ce36b1f
:10195800934210d25a1ce2631d78019be26c002b63
:101968000ed0102b55d1302d0cd052e0200002f0b3
:10197800cffe0500d8e7200002f0cafe0500ece71c
:10198800302d44d1e36b934224d25a1ce2631d7874
:1019980020232b43782b2ed1e36be26c93421ed28b
:1019a8005a1ce2631d781022944b01925b5d0f2b49
:1019b80000d8c7e0e36c002b00d1a9e1029ae36be1
:1019c800002a11d0023be3630026002730003900cb
:1019d8000bb0f0bd200002f09bfe0500d8e7200008
:1019e80002f096fe0500dee7013be36300212000dc
:1019f80003f056fee8e7019b002b00d1a0e0019b15
:101a08000a2b00d09ee00023019f02931ce00a23ca
:101a180001937a4b01995b5d8b42f0d3002a02d087
:101a2800e36b013be3630021200003f039fe70e71c
:101a3800029ee36b7e43e26c7519303d029593423a
:101a480068d25a1ce2631d782b00303b092b03d85f
:101a58006b4b029a9a42ebd90027029e2b00303b2f
:101a68000293092b33d8674b9f4213d802d1664b98
:101a78009e420fd800230a223000390003f062f991
:101a8800029b049300230593049bdb434a1c46d125
:101a9800984244d9594b019a5b5d934217d2e36b44
:101aa800e26c934200d318e15a1ce2631878534b56
:101ab800019a1b5c9342f2d3109e119f22224e4b37
:101ac8001a600123109a134201d000230393e36c98
:101ad800002b02d0e36b013be363119bbb4200d9af
:101ae8000ce103d1109bb34200d907e10123109afe
:101af800134200d0f5e0039b002b00d0f1e0222236
:101b080001267642f7173c4b1a60109b119cf61879
:101b180067415be7200002f0fbfd050094e7e36bfb
:101b2800e26c049e059f36184f41934203d25a1c1b
:101b3800e2631d7892e7200002f0eafd05008de7d8
:101b480008230193019b5e1e3340029300d0bce042
:101b5800019a173353432d4a1b065b0fd35c04933a
:101b6800264b019a5b5d9a4203d9294a0299914210
:101b78002bd9049a01204042c11703f0cffd00275a
:101b8800029e089006911d4b5b5d0293029a019b91
:101b9800934200d87ee7069b9f4200d97ae703d19b
:101ba800089b9e4200d975e7049a3000390003f07b
:101bb800c1fd029be26c03431e00e36b0f009342de
:101bc80015d25a1ce2631d78dde7029e049a9640fe
:101bd800e26c1e43e36b0296934203d25a1ce26303
:101be8001d78bde7200002f093fd0500b8e720004e
:101bf80002f08efd0500c6e7b8060020603400003c
:101c08009899991999999919999999995634000017
:101c1800ffffff07029e019a5643f3180293e26cf6
:101c2800e36b93424cd25a1ce2631d783c4b019af9
:101c38005b5d9a4203d93b4a02999142ead900274f
:101c4800029e374b5b5d0293029a019b934200d838
:101c580020e7002f17d01a0000233000190003f0e6
:101c680071f8002304913a001900019803f06af80a
:101c7800049b089300230993089a099b80185941eb
:101c8800002900d006e73b0032000198002103f04c
:101c980059f8029b069300230793069bdb434a1cd3
:101ca80002d1984200d9f5e6069e079fe36be26ce5
:101cb80036184f4193420bd25a1ce2631d78c0e795
:101cc800200002f025fd0500b0e700230293ade7f0
:101cd800200002f01dfd0500b3e7200002f018fd0a
:101ce800e5e6119b9f4203d808d1109b9e4205d977
:101cf800109e119f22220c4b1a6067e6039b01334a
:101d080000d063e633003c0000275e42a7415de651
:101d1800029b00260027002b00d057e666e6c04647
:0c1d280060340000c6711c07b8060020e3
:020000040000fa
:101d34000023f0b504001600f1b007910893049352
:101d4400079b1b78002b67d0002309930a930b93fe
:101d54000eab0c93802307a920000d9303f02afafd
:101d64000500079b1a78002a01d0252a41d1089a38
:101d7400551908951a78252a31d100255a1c07923d
:101d84000b955a782a2a02d1023307930135079812
:101d940003f01cf801000b90200003f083fc079b68
:101da4001a78303a092a4dd907a803f0cff9079bce
:101db4000700187803f072fd672865dc652800dbee
:101dc400cce0612800d1c9e03fdc079b252800d185
:101dd400f3e05b2800d10ee1079b01330793039bdb
:101de400013300d0fae0049b002b15d1013b04938e
:101df40012e0e36be26c934211d25a1ce2631b784b
:101e04000393079b039a1b7893420fd0e36c002b38
:101e140002d0e36b013be363049871b0f0bd200092
:101e240002f078fc030003900133ead1089b07a970
:101e340001330893079b20000133079303f0baf999
:101e44002d188ee701330793a9e7632800d199e0a1
:101e54006428c1d108ab09aa2ea9200003f0f2f925
:101e6400002800da65e1079b01330793002d00d0b9
:101e7400b4e03300012239002ea802f0f1f9051e66
:101e840069da6b1cafd0c7e7702843d00bdc6e282f
:101e940052d031dc69289fd108ab09aa2ea92000b1
:101ea40001f08ef9dce7752815d078282bd073283b
:101eb40000d091e7802f00d08ee7079b0133079372
:101ec40000239d4203d133681a1d32601b680093be
:101ed400012208ab6ce008ab09aa2ea9200003f08c
:101ee400c8f9002800da24e1079b01330793002d89
:101ef40074d133002a00bee708ab09aa2ea920003a
:101f040001f0bcffede708ab09aa2ea9200001f0ff
:101f140025fbe6e708ab09aa2ea9200001f01efb69
:101f2400002800da05e1079b01330793002d55d102
:101f340033002a00f0219fe7079b01330793089b96
:101f44002e93db172f93002d48d133002a0039003c
:101f54002ea802f085f9049b5b19f0e608ab09aae8
:101f64002ea9200000f008fc002800dae1e0079b1d
:101f740001330793002d31d1320039002ea802f02d
:101f8400e9fd7ce7802f00d026e70b9b0593002b0f
:101f940001d101330b93079b0133079300239d4227
:101fa40003d133681a1d32601b680022009308ab0a
:101fb40009a9200001f0faff61e7802f00d00be7a8
:101fc40001330793e26ce36b934209d25a1ce26338
:101fd4001878252808d1089b013308930025bae70f
:101fe400200002f097fbf4e7e36c002bf6d0e36be0
:101ff400013be363f2e7802f00d0ede60027bd420a
:1020040003d13268111d316017685a1c07925a783f
:1020140000255e2a02d102330793013502222900ea
:10202400ff322ea803f0f9fba821002304aa5218ba
:102034001370079b1a782d2a21d1013307930123aa
:10204400a93204a95b1b5218137001232eaa5d1b2d
:1020540007990b785d2b1cd10025af423bd1e36b74
:10206400e26c934260d25a1ce2631b780393039a96
:102074002eab9b185d78002d52d105953ae05d2a70
:10208400e3d101330793012304aa07325b1bff3218
:10209400dae7002be0d02d2b07d0079b2ea8197868
:1020a400013341184d700793d2e7089b1b78002b2e
:1020b400f3d05d2bf1d04b1c0793069b1b7848781b
:1020c4008342eada01339d54f9e7039b7b55089b6d
:1020d400013501330893e36be26c059593421ad200
:1020e4005a1ce2631b780393039a2eab9b185b780c
:1020f400002bead1e36c002b02d0e36b013be363da
:10210400059b002b00d167e6002f00d164e6002375
:10211400059abb5460e6200002f0fcfa0390e3e762
:10212400089b013308939ae7200002f0f3fa039026
:062134009de70500a5e691
:020000040000fa
:02213a00fee7be
:020000040000fa
:10213c000023f0b506001500afb005910193059989
:10214c000b78002b00d10fe101235b420a930eabfd
:10215c0000240c93802309940b940d930b5d002b9e
:10216c0001d0252b2ad1002c06d02200300002f001
:10217c0097ff059b1b190593059b1a78252a00d000
:10218c00e7e0013302930593022310219c460827b4
:10219c00059803782b2b1bd025d8202b1bd0232b59
:1021ac001dd02a2b2ad002f00dfe0b90059b1a781d
:1021bc00303a092a33d801330593f7e70134cde7d8
:1021cc000122099b80180393134309930590dfe7c1
:1021dc000423099a0ee0099b03933b430be0099bf4
:1021ec0003930b4307e02d2bead0302bd9d1624659
:1021fc00099b0393134309930130e7e72b680130e4
:10220c001a1d1b6805902a600b93002b07da099a9c
:10221c005b420392012203990b934a400992099b5a
:10222c00da0702d5022293430993059b1a782e2aca
:10223c000ed10022581c0a9205905a782a2a28d1cd
:10224c00023305932b681a1d1b682a6003930a93ab
:10225c0005a802f077ff059b0700187803f01afb1e
:10226c00692800d183e035dc632800d1d6e01bdc83
:10227c00252800d1dfe0612859d0252306aa137048
:10228c00029b0593002309930b93013b0a930233a2
:10229c00b2e002f097fd0a90059b1a78303a092ab1
:1022ac00d6d801330593f7e7642860d06728e4dcbf
:1022bc002a00390006a803f076f8002800d1a9e01e
:1022cc00059b09a95a1c05921b7806aa3000fef73b
:1022dc0055fe3de0702800d17de016dc6e2800d163
:1022ec0091e06f28c9d12b000022390006a801f01b
:1022fc00adfb002800d18de0059b06aa013309a98e
:10230c003000059302f0d6f822e0752840d07828ea
:10231c004fd07328b1d1802f00d07be0059b2a6869
:10232c0001330593131d2b601268002364e02a000f
:10233c00390006a803f037f8002800d16ae0059ba5
:10234c0009a95a1c05921b7806aa3000fff792f8cf
:10235c002418019b1c19a34200dc74e04f223b4b58
:10236c001a6001235b42019301982fb0f0bd2b0042
:10237c000122390006a801f069fb00284ad0059b10
:10238c0006aa013309a93000059301f073fcdfe7bd
:10239c002b000022390006a801f058fb002839d088
:1023ac00059b06aa013309a93000059302f038faff
:1023bc00cee72b000022390006a801f047fb0028cd
:1023cc0028d0059b5a1c05921b7806aa09a9300037
:1023dc0000f0a1ffbce72b000022f02106a801f0c1
:1023ec0035fb002816d0059b079a01330593069bf5
:1023fc00134306d1164a163209a9300002f00afb23
:10240c00a6e77823e1e7019b39001a1906a82b00ef
:10241c0002f087f8059b013305939ae7802ff9d1d9
:10242c00059b013305932b681a1d1b682a6006aaad
:10243c0013700123e0e7802fecd1059b06aa013332
:10244c0005931070f5e7019479e6c046b8060020b4
:04245c0054560000d2
:020000040000fa
:10246000f0b54e4657464546de469046e0b5160066
:102470001f0002000b0012184b41b84a85b081467c
:10248000934200d945e134003d000022a4197d416a
:10249000b34b12196b41b34ca34200d939e100d1bf
:1024a00034e10023002400930194cb0fdb077c0070
:1024b00001934d006308c2460393cb466d089d42cd
:1024c00000d8b2e02b0d9c464ed080200903090baa
:1024d0004003084303994a46090d03008946002931
:1024e00075d080253c03240b6d032543404629000d
:1024f00066464f46e14500db16e114001d00241a34
:102500008d41002d05db23002b4300d197e02200f5
:102510002b00013e92185b41be42eed1b946140039
:102520001d00241a8d41002d05db23002b4300d113
:1025300085e022002b00802040030100184206d1d4
:10254000484692185b4101381942fad08146494603
:102550004c1e00d5eae00020210580185941009b5f
:10256000019cc01861416ce02a1e00d19ee07e4ba8
:102570009d4200d9d0e018232a049946083b7b4ca1
:10258000a24201d84b461202794ca24201d8043330
:102590001201784ca24201d802339200d243d20fea
:1025a0009a180b235b429c4694442b3a914600d5e3
:1025b000a2e005004c46a5402b000100604681408a
:1025c0000a0041428c460399090d894689d1039836
:1025d000011e3dd06448814200d9a1e018200904c1
:1025e00080460838614da94201d840460902604d35
:1025f000a94201d8043009015e4da94201d8023038
:102600008900c943c90f41180b2040428146203838
:1026100089440d183ed43400ac4021004d463400ae
:10262000ac4020006c42a14662e79d4202d1c14508
:1026300000d947e7da4504d1039bab4201d10098aa
:10264000019905b03cbc90469946a246ab46f0bd08
:10265000454c40460825a24502d8102130041035cb
:10266000424ca04201d829000002414da84201d8a5
:10267000043100013f4da84201d802318000c0431f
:10268000c00f09180b204042814620312038894470
:102690000d18c0d5484620213500091acd40039cad
:1026a000a8468440210044462143b7e72e4c4b46c0
:1026b000a4460824a146e34503d818220304914602
:1026c000083a2a4ca34201d84a461b02284ca3428e
:1026d00001d804321b01274ca34201d802329b00cf
:1026e000db43db0fd2180b235b429c462032944421
:1026f0002b3a914600d45ce76246202364469b1a3d
:10270000a5400200da402b00134356e7002a00d10f
:10271000c7e60020184994e70823994600232ee7ce
:102720000820804600205de7e146f8e648460121a2
:10273000091a20204042081807d41c00c440200079
:10274000cb4002000021002007e720201c00401a97
:1027500084401000c8402043f2e7c046ffffdfff7f
:102760000000e0ff0000c0ffffff0000ffffff00d0
:0c277000ffffff0fffffff3f0000f87f9e
:020000040000fa
:10277c00f0b51d00d3688db017690393040009915f
:10278c00966802f07ffb2b68013f18182860002e1a
:10279c0000d13e000597b74200dd05960027039b4c
:1027ac0007970193029704970897059b06979f42fa
:1027bc0018dae36be26c934227d25a1ce2631e7860
:1027cc00330002222b3b9343029a134335d1002f43
:1027dc0027d0049bbb4224d0e36c002b02d0e36bcc
:1027ec00013be3630023039a0699100053540aa992
:1027fc0003f06af8099b039a186059600a9b01263a
:10280c0093420bd10226764208e0200001f07effb5
:10281c000600431cd4d1069b002be3d130000db035
:10282c00f0bd019b1e702b6801332b6001230293ba
:10283c00019b013701330193b7e7089b002b0cd1a7
:10284c002e2e0ad1049b002bc6d1019b1e702b6827
:10285c0001332b6001230893eae7049b002b1ad168
:10286c00079b3000002b12d003f014f87038434251
:10287c005841c0b2002800d18ae0019b1e702b6821
:10288c0001332b60002302937b1c0493d0e703f0ed
:10289c0001f86538ebe7079b3000002b46d002f0bf
:1028ac00c5fe43425841c0b200286bd0e36c002bec
:1028bc0002d0e36b013be363029b9f4200d091e7a4
:1028cc00ba1c404b0792059ab91c0a938a4200dc49
:1028dc0088e704330b93fb1c059301235b420197a0
:1028ec000293019be26c0493e36b934224d25a1c37
:1028fc00e2631e78029b3000013324d102f0caff40
:10290c000600692839d06e283ad0079b019a934269
:10291c002ddb049b013b04939f4200dd62e7e36cdb
:10292c00002bf6d0e36b013be363f2e7092330386d
:10293c00834280414042b7e7200001f0e7fe0600e9
:10294c00431cd7d14ee702f0a5ff029b0aa99a00bf
:10295c00019b5258db1bd35c9842d6d1019a039b46
:10296c009e541300059a013301939342b9d1fb1c79
:10297c0006932b6803332b6034e700230293ede7b7
:10298c000123fbe7019b1e702b6801332b604fe783
:10299c00029b0133bb4200d07de7300002f07aff8e
:1029ac00782800d077e7019b013b1b78302b00d0b7
:1029bc0071e7019b1e702b6801332b600123079379
:0829cc0036e7c046f058000098
:020000040000fa
:1029d400f0b40125ed070f005f405ad48b4200d1bb
:1029e400824205d950404240504059404b405940e2
:1029f4004e18760ddf187f0d3bd0741c640529d06a
:102a0400f41b352c26d80e0ddb022b43db0ac9023e
:102a14002943c9121700202c1ed2e741e240574037
:102a2400e3415a40a340e3405a40002480185941ee
:102a34000ad3b21c520521d0c207012f62411700ec
:102a44004008cb0718434908013636054208af4110
:102a540060417141f0bc7047203c06d01f00e74143
:102a6400e3405f400024012a6741c0186141ebd371
:102a7400dfe7002eeed129400020ebe701363105d7
:102a84000020e7e7e742e5d10020c143090dc9046e
:102a9400e0e76b400e00871a9e4104d26e40c01bd3
:102aa400b141d21973414e18df18ac0ae642e9d29b
:102ab400760d7f0d31d0f41b362ccbd8b4460e0dd9
:102ac400db022b43db0ac9022943c90a012c32d891
:102ad40004d1d4075208df073a435b08ef0a644283
:102ae400904199411ed0002239424dd124194041d0
:102af40049410124394204d1013400184941394281
:102b0400fad06246a24204d9361b013e3605891921
:102b1400a0e7f10ac90700209ce736429ad10020b9
:102b2400002197e70200224394d0b842ded201008c
:102b340020002024e3d1202c13dd203ce2411700a7
:102b4400a240e2405740e3415a40a340e3405a4088
:102b5400012fbf410137174300227c429841914124
:102b64000ce01700e741e2405740e3415a40a340dc
:102b7400e3405a407c429041994100220f0303d222
:102b8400013e241940414941013e36054708ac4104
:082b940050417141f0bc704793
:020000040000fa
:102b9c00680600201c0000000000000084060020d5
:102bac000c0000000000000090060020080000004f
:102bbc000000000098060020080000000000000043
:102bcc00a80600200400000000000000ac06002055
:102bdc000400000000000000b0060020040000000b
:102bec00000000001806002050000000000000004b
:102bfc00c00600206c00000001000000cc06002084
:102c0c00c8060020cc0600200000000025000000b3
:102c1c00080000200004000000000000000000007c
:102c2c000000000000000000000000000000000098
:102c3c0000000000000000002f5900000000000000
:102c4c00000000000000000000000000974500009c
:102c5c000000000000000000000000000000000068
:102c6c00000000000000000000000020080400002c
:102c7c00000000008c070020200000000100000074
:102c8c000100000003000000000000000000000034
:102c9c00000000000000000000000000a006002062
:102cac00a00600200800000000000000b406002070
:102cbc000400000000000000b80600200400000022
:102ccc0000000000080400201002000000000000ba
:102cdc002c07002060000000010000000100000033
:102cec0003000000000000000000000000000000d5
:102cfc000000000000000000d147000000000000b0
:102d0c000000000000000000df5800004b4f0000e6
:102d1c0000000000000000000000000000000000a7
:102d2c000000000000000000000000000000000097
:102d3c00000000000000000000000000bc060020a5
:102d4c000400000000000000000000000000000073
:020000040000fa
:102d5c0008d1002806d1f54204d801d3002a01d1ac
:102d6c006d0d09d10020c143090dc904f0bdf9d185
:102d7c001242f7d1640df5d00020c1434905490832
:102d8c00a6e000206146f0bdf0b50127ff070e005c
:102d9c005e403e40b446be0a4c18dd18f442d7d211
:102dac00f542e4d2640decd06d0dead06419c90281
:102dbc003943460dc0023143db023b43db0a10b4fe
:102dcc008e4685b297b26f43140c6c433e0ca4191b
:102ddc00260c2404bfb227439cb26c43a419190cd3
:102dec006943250ca4b249190d04090c6419000c93
:102dfc0095b245433e0c76193743bfb2360c150cd1
:102e0c004543ad19a6b2240cad192e0437432e0c34
:102e1c0036199db24543ad19acb22e0c89191d0c57
:102e2c0045436d182e04290c3443704680b295b27c
:102e3c0045433e0c76193743bfb2360c150c45434f
:102e4c00ad19a6b2ad19240c2e0437432e0c36192d
:102e5c009db24543ad19acb22e0c89191d0c4543de
:102e6c006d182e043443290c75462d0c90b2684312
:102e7c003e0c80190604bfb23e43070ca0b23f18ab
:102e8c00120c6a43d019020c80b2240ca4189ab20a
:102e9c006a43121914042043120c89181b0c6b433f
:102eac00c91810bc01273d05294203d1b619404170
:102ebc004941013cff077d0d013d641b0bdb6d009f
:102ecc00ac4209da240500254208be416841614143
:0a2edc0066463143f0bd54e74ee7af
:020000040000fa
:022ee600fee705
:020000040000fa
:102ee800f0b587b0039003a801f08eff002802da3e
:102ef800002007b0f0bd039b1b095d1e202d09d9da
:102f08004f49023b4f4a8b4224d8db08d318043b75
:102f18001d7801352a000120002102f00bfc002455
:102f280043428c4100930194474f00983a687b686c
:102f38001040020001990b401a433fd1039b05a89a
:102f48001033059302f019fc002809d10c223f4bdd
:102f58001a60cee7db09d318043b1d781135d9e791
:102f68003b490c68a04206d0059b0400103b059322
:102f78000123103483600125059be2180a602b4366
:102f8800083a083c28c26360002cb1d0200002f047
:102f980027f900280bd023686168ab43e31a5a6805
:102fa800aa4352185a606168a94362501c00200065
:102fb800039902f087fa200008309ae7214a254948
:102fc8003c32002831d1584203404b43db0ed65cdb
:102fd8002036300002f0f2fa731cdb00fc58083b84
:102fe800fb189c42a0d0272e25dd0235ae4201dc1d
:102ff8003f2e20d101226368039f9343dd1b2800e5
:10300800009301f0bdff864215d1e268a168e3197b
:10301800da60996093609a68d360012217431f6051
:103028005d60009be5506760c1e7434203404b4346
:10303800db0ed65ccde73100200001f0c5fcb6e719
:10304800ff0100007447000010040020b8060020ab
:083058000804002029e66b07c3
:020000040000fa
:10306000f0b5c36bc26c85b004000e00934232d23f
:103070005a1cc2631d782b0002222b3b9343002273
:103080000192934216d12d3d6b426b41e26c01934c
:10309000e36b934223d25a1ce2631d782b00303b32
:1030a000092b07d9002e05d0e36c002b02d0e36b6f
:1030b000013be363002300932b00303b0a27092bdd
:1030c00012d9e36c002b02d0e36b013be363802752
:1030d00000263f062de001f01ffb0500cbe7200096
:1030e00001f01afb0500d9e7009ee36b7e43e26c1a
:1030f0007519303d009593421fd25a1ce2631d782a
:103100002b00303b092b03d82b4b009a9a42ebdd66
:10311000009ef7172b00303b092b32d9e36c002bb4
:1031200046d1019b002b04d033003c0000275e42b7
:10313000a7413000390005b0f0bd200001f0ecfae5
:103140000500dde70a2200233000390001f0fefd12
:10315000eb1702950393029a039b30267642f717ea
:1031600080185941e36be26c36184f41934203d209
:103170005a1ce2631d78cde7200001f0cdfa05006e
:10318000c8e70e4b9f4203dcdcd10d4b9e42d9d9e0
:10319000303d092dc2d8e36be26c934203d25a1c36
:1031a000e2631d78f4e7200001f0b6fa0500efe7ce
:1031b000e36b013be363b4e7cbcccc0c14ae47012b
:0431c000ad47e17abc
:020000040000fa
:1031c400f0b51f00936889b0039313690400049356
:1031d400d3680591019301f059fe3b681818039bcd
:1031e4003860002b02d1049b013b03930a23009314
:1031f40000231e000293039b9e4241da049b013b81
:10320400b3423ddde36be26c93420fd25a1ce2639e
:103214001d782b0002222b3b9343334311d1019b96
:103224001d703b6801333b600123e2e7200001f09d
:1032340071fa0500431cecd1002e21d1280009b0fd
:10324400f0bd029b9e4209d1731c0293009b0a2b82
:103254002cd1023b302d54d0002302932b00303b61
:10326400092b48d9009b102b04d1280002f0e2f965
:10327400002847d1e36c002b02d0e36b013be363ee
:103284000023019a9355009b0a2b42d11a0007a9e7
:10329400019802f093fa059b019a18605960079b04
:1032a40001259342cad102256d42c7e7009b082b32
:1032b400d2d118332b43782bced1e36be26c9342fb
:1032c40015d25a1ce2631878e36c002b02d0e36b2e
:1032d400013be36302f0aef90028cbd0019b9d557e
:1032e4003b68013601333b601023009383e72000e1
:1032f40001f010fae8e7009b082b03d1372d01dd1c
:1033040002330093019b9d553b68013601333b60ba
:0e33140071e7009a07a9019802f046fabbe79c
:020000040000fa
:10332200f0b58fb00d934b680c9006938b680d002f
:103332000793cb6816000393069b0f68002b44dbb0
:1033420002239f4310233b400a93079b04930a9b4b
:10335200002b07d0726833681343079a02d0130018
:10336200023b049308233b400b935a1e9341049a59
:10337200d31a04933368039a0893736809932b69e9
:103382005c1e00231355069b0593012c20dc0a9b2f
:10339200002b52d10b9b002b03d02023039a013c1c
:1033a20013552b6900975a1e039b121b19190c986f
:1033b200079b00f0d2ff0c9b5b68db0503d56b68b3
:1033c200984200da18000fb0f0bd01230693b9e766
:1033d200089b099a13430cd1059b002b09dc069a22
:1033e200049b9b1a059a9b18002bd0dd02231f42d7
:1033f200cdd00f22089b013c134018005730092bf7
:1034020001dc303318000d9b413b192b06d82023d9
:103412000343613b192b01d802f048fa039b18556c
:10342200059b013b0593099b1a07089b1b091a433d
:10343200099b08921b090993a7e70cce1343a9d055
:10344200039b0d9a1b19013b1a703023039a023c0d
:0434520013559fe788
:020000040000fa
:10345600000102040703060500ffffffffffffff51
:10346600ffffffffffffffffffffffffffffffff66
:10347600ffffffffffffffffffffffffffffffff56
:10348600ffffffffffffffffffff00010203040531
:1034960006070809ffffffffffffff0a0b0c0d0ed3
:1034a6000f101112131415161718191a1b1c1d1eae
:1034b6001f20212223ffffffffffff0a0b0c0d0e2b
:1034c6000f101112131415161718191a1b1c1d1e8e
:1034d6001f20212223ffffffffffffffffffffff4c
:1034e600ffffffffffffffffffffffffffffffffe6
:1034f600ffffffffffffffffffffffffffffffffd6
:10350600ffffffffffffffffffffffffffffffffc5
:10351600ffffffffffffffffffffffffffffffffb5
:10352600ffffffffffffffffffffffffffffffffa5
:10353600ffffffffffffffffffffffffffffffff95
:10354600ffffffffffffffffffffffffffffffff85
:0a355600ffffffffffffffffffff75
:020000040000fa
:10356000f0b51f00936887b00193136904000293bc
:10357000d3680391009301f08bfc3b681818019b02
:103580003860002b02d1029b013b01930026019b76
:103590009e4231da029b013bb3422ddde36be26ccc
:1035a00093423cd25a1ce2631d78280002f044f892
:1035b000002843d1012e19d1280002f071f9782892
:1035c00014d1009b1b78302b10d1e36be26c93423b
:1035d00030d25a1ce2631878e36c002b02d0e36b04
:1035e000013be36302f028f8002827d1e36c002bad
:1035f00002d0e36b013be3630023009a05a99355d6
:103600000098102202f0d2f8039b009a18605960cb
:10361000059b012593420ad102256d4207e0200057
:1036200001f07af80500431cbfd1002ee4d1280038
:1036300007b0f0bd200001f06ff8cde7009b9d556d
:0a3640003b68013601333b60a1e74f
:020000040000fa
:10364a00f0b5060085b00f0015001c008b4265d846
:10365a0001d1824262d82100280002f076f83900ae
:10366a000090300002f071f8009b21001b1a1a002a
:10367a002800039302f05df800900191019bbb4280
:10368a0046d802d1009bb34242d8009b019c039ac0
:10369a0001200021f61aa74102f04bf8039b002be8
:1036aa002fd0019b009adb0754081c43019b5d083d
:1036ba00039b9c46bd422ed801d1b4422bd832007e
:1036ca003b00121bab41012692185b410027b6183a
:1036da005f4101235b429c446346002bead1801977
:1036ea007941039a04000d003000390002f015f800
:1036fa00039a06000f0002f01cf8241a8d412000dc
:10370a0029000a9b002b01d01e605f6005b0f0bd46
:10371a0000200021c2e7b6197f41dae70020002124
:02372a00efe7c7
:020000040000fa
:10372c00f0b585b0002001f0d1f82a4801f078fe00
:10373c00284f3d000c353b0064330193264c28e0a8
:10374c00019801f029ff25482549043002f008f8ba
:10375c0001f042ff224b1968201c00f0d9fb01f04c
:10376c00e7fe01f047ff1f4b1b6b9b0311d41c4b57
:10377c001968201c00f0ccfb1b4b196800f0c5f934
:10378c001a4900f0c5fb01f0d3fe0002000a154bec
:10379c005867280001f044fe3800343001f040fe38
:1037ac003800603003a901f0dbff039b012bc7d06d
:1037bc00022b04d00948343001f0eefec8e7074e66
:1037cc003000083001f0e8fe301d074901f0c8ff59
:1037dc00bee7c046fc370000001b374c7c380000ad
:1037ec00a806002000200042ac0600200000c842c1
:020000040000fa
:1037fc00546869732069732050574d0049662079cd
:10380c006f752077616e7420746f206368616e67ca
:10381c0065206672657175656e637920707265736b
:10382c00733a3100496620796f752077616e742088
:10383c00746f206368616e676520447574792043ea
:10384c0079636c652070726573733a320000000006
:10385c0025640000456e7465722076616c75652078
:10386c006f6620706572696f6420696e204b485ad0
:10387c00203a000025660000456e74657220766162
:10388c006c7565206f662064757479206379636c40
:10389c006520696e2070657263656e746167652062
:1038ac003a000000596f7520656e7465722077724e
:0c38bc006f6e6720496e70757400c04686
:020000040000fa
:1038c800f7b5002858d00838436801221e009643ef
:1038d80085192a680400934200d0ffde01276b682f
:1038e800226813403b420ed1200001f079fc0028e9
:1038f80043d1280001f0e9fc0028f0d06b68bb43f5
:10390800f618ed18ebe73b003343636030002b609b
:1039180001f036fb019001f051fe6b6822681340fc
:103928003b42e1d0184b019a1868596801f0f6fe3d
:10393800384212d1019a0120002101f0fbfe0b0050
:10394800002804d0104a126802430f480260002b76
:1039580003d00d4a53680b435360019b0a4a013355
:10396800db00d3181a005b68083a66602e60e360d3
:10397800a260d460e3689c60f7bd2368bb43e41a87
:0c3988006368bb43f618b4e7100400208d
:020000040000fa
:10399400f0b40125ed070c005c402c40a446ae0aaf
:1039a4004c18df18f4423dd2f74245d2640d4cd096
:1039b4007f0d3cd0e41bc9022943cf0adb022b4311
:1039c400db0a0600b61a9f4104d2013cb6197f41b6
:1039d400b6185f416812800d241838dd001884423f
:1039e40025d8e80c0021b6197f41b61a9f4103d3ac
:1039f40040414941f7d304e0b6185f4100184941fa
:103a0400f1d32405b6197f41b61a9f4105d3374334
:103a1400c20717430022012f5041614162461143fe
:103a2400f0bc70470cd100280ad1f74208d200201c
:103a3400c143490d0905f1e7002a01d1f74206d037
:103a44000020c143090dc904eae77f0df8d0002026
:043a54006146e5e7fb
:020000040000fa
:103a580010b588293cd015dc81294dd003dc80299c
:103a68004ad0002010bd822911d08429f9d11968c3
:103a7800002a26d00a1d1a6000228b5e0360db171d
:103a8800436011e0a02930d010dc9029e9d11968f1
:103a98000724002a2ed00919a1430a0008321a6007
:103aa8000b684c68036044600120dbe7c02901d043
:103ab800f029d6d11a68111d196013680360002314
:103ac800dee70c1d1c600b689bb203604260ebe7ed
:103ad8001968002a04d00a1d1a600023cb56cde7c6
:103ae8000c1d1c600b68dbb2efe71a68111d19602a
:103af8001368c3e70731cfe71968002a03d00a1d06
:0e3b08001a600b68bae70c1d1c600b68dde745
:020000040000fa
:103b160030b405004d400124e407254042004b0027
:103b2600120e32d01b0e3cd0ff2a33d0ff2b3fd0d3
:103b3600d21800022043000a09022143090ac4b22e
:103b46004c43000ac3b24b43000a4843210a5b18a0
:103b5600190a091801d44900013a080a7f3a2adbf2
:103b6600fe2a0fd2d2051c43240601d0012421438c
:103b7600c9b280295041802901d14008400028431c
:103b860030bc7047ff20c005f9e71b0eff2b0ad09b
:103b96002800f5e7400206d1ff2bf3d1490202d1f6
:103ba600f0e7ff2af4d17f2000010c300005e7e79b
:103bb6004902f8d1e6e743020132e9d15b1202334a
:063bc600e6d9d805e4e792
:020000040000fa
:103bcc004b005b0d264af0b55c1e944238d8254a52
:103bdc009e1825d4332e22dc234a9b1827d4234a43
:103bec00da400700214b9743f3403c000f000240a2
:103bfc009f4319403d000a430fd0002f0dda2023bc
:103c0c005b42f11824d480204003c840020080217c
:103c1c004903f1400b00a4185d4120002900f0bdc0
:103c2c000020002901db0021f9e71149f7e72022e8
:103c3c000e4b921b934001225242f2401a43d0e7a2
:103c4c00002becd10022c90fcb0710001900e6e7be
:103c5c0020218020891b400388400200d7e7c04602
:103c6c00fd07000001fcffffe1fbffffffff0f0062
:043c7c000000f0bf95
:020000040000fa
:103c8000f0b54b6889b005930b6807009c46079315
:103c9000cb680c008e68049310685168cd0f44d037
:103ca0000b000200002150429941059b002b08dbcc
:103cb0000222634693430793002d02d1079b5a07c4
:103cc0002ad5731e07aa02920a22009301920b00c2
:103cd0000200200000f087fa002d02d1079b5a074e
:103ce0001ed501382d23002d00d1023b049a135418
:103cf00023695a1e049b121a1918079b3800009357
:103d0000330000f02bfb7b68db0503d5636898422a
:103d100000da180009b0f0bd1b07db0ff31ad1e77a
:103d20001b07e5d501382023e0e7059b002bbfda10
:023d3000c4e7e6
:020000040000fa
:023d3200fee7aa
:020000040000fa
:103d3400002941d010b4041c4c40a44601230022a5
:103d4400002900d54942002800d5404288422cd39e
:103d540001242407a14204d2814202d209011b0199
:103d6400f8e7e400a14204d2814202d249005b0098
:103d7400f8e7884201d3401a1a434c08a04202d300
:103d8400001b5c0822438c08a04202d3001b9c0841
:103d94002243cc08a04202d3001bdc0822430028a3
:103da40003d01b0901d00909e3e7101c6446002c69
:103db40000d5404210bc704701b5002001f0b8fda9
:103dc40002bdc0460029f7d003b5fff7b3ff0ebc10
:083dd4004243891a1847c0465a
:020000040000fa
:103ddc001e4b00229a619a8c80218a439a841a0085
:103dec001023d1680b42fcd0194b1b689b0e3f2b48
:103dfc0029d09b02802292001343144a9362102311
:103e0c00d1680b42fcd0114b02229a841a00102369
:103e1c00d1680b42fcd00f4b0f4a5a601a005378f2
:103e2c005bb2002bfbdb0b4b0c4a5a800c4a5a80c2
:103e3c000c4a5a800c4a5a800c4b0d4a1a62034b9e
:103e4c0000221a627047203bd3e7c04600080040ae
:103e5c0024608000000c00400007010019400000a5
:103e6c001a4000001b4000001e40000000040040ef
:043e7c0080050100bc
:020000040000fa
:103e8000f0b51f00936887b0019313690400029393
:103e90000391d66800f0fcff3b681818019b38605e
:103ea000002b02d1029b013b01930025019b9d4207
:103eb00014da029b013bab4210dde36be26c9342f0
:103ec0001dd25a1ce26318780300303b072b1fd920
:103ed000e36c002b02d0e36b013be3630023082279
:103ee000735505a9300001f061fc039b186059600f
:103ef000059b0120b34209d10220404206e0200088
:103f000000f00afc431cdfd1002de7d107b0f0bd63
:0c3f100070553b68013501333b60c7e78a
:020000040000fa
:103f1c0030b405004d400124e407254042004b001d
:103f2c00120e26d01b0e34d0ff2a2dd0ff2b35d0ed
:103f3c00d21a000220430902214343084908a00d6c
:103f4c005b1a02d2013a5b005b185b008b4200d318
:103f5c005b1a4041f9d37f3222ddff2a06d2d2050b
:103f6c00c91a8b425041284330bc7047ff20c00512
:103f7c00f9e71b0e03d0ff2b12d1490210d07f2082
:103f8c0000010c300005efe74002f8d1ff2bedd11a
:103f9c00f5e7ff2aead14002f1d1e7e74902eed179
:043fac002800e1e721
:020000040000fa
:103fb000f7b505000c0017001e00002a04d000f021
:103fc00067ff336818183060a36800240193019bd1
:103fd000002b01d09c421fdaeb6bea6c934214d2a7
:103fe0005a1cea631878002f1dd0202803d0030044
:103ff000093b042b17d8eb6c002b02d0eb6b013b79
:10400000eb63089b002b19d109e0280000f084fb2a
:10401000431ce8d1002c05d0089b002b0cd12000bc
:10402000441ea041febd089b002b00d018553368ec
:10403000013401333360cae7002ff0d00023089a1f
:044040001355ece741
:020000040000fa
:10404400f7b50b6916000193cb68050000938f68e0
:1040540000f01cff336818183060002f01d1019b59
:104064005f1e0024bc4229da019b013ba34225ddeb
:10407400eb6bea6c93420fd25a1cea631878030084
:1040840002222b3b934323430ed1009b012418703f
:10409400336801333360e5e7280000f03bfb431c41
:1040a400edd1002c0ad1febd0300303b092b09d908
:1040b400eb6c002b02d0eb6b013beb630020009b0d
:1040c4001855f0e7009b1855336801340133336009
:0240d400c8e73b
:020000040000fa
:0240d600704731
:020000040000fa
:1040d800002934d00123002210b488422cd30124b3
:1040e8002407a14204d2814202d209011b01f8e748
:1040f800e400a14204d2814202d249005b00f8e701
:10410800884201d3401a1a434c08a04202d3001b2c
:104118005c0822438c08a04202d3001b9c0822435f
:10412800cc08a04202d3001bdc082243002803d09d
:104138001b0901d00909e3e7101c10bc704701b541
:10414800002001f0f3fb02bd0029f8d003b5fff70a
:0c415800c1ff0ebc4243891a1847c04644
:020000040000fa
:10416400f0b51600050002278369426987b00293ff
:10417400d31a03939b1904910596019302ac3a0058
:104184002100286801f08cf9019b984208d1ab68a2
:10419400ea68ab619a18aa626b61300007b0f0bd9f
:1041a40000280cda102200236968ab620a43ab6171
:1041b4006b616a60022f12d06368f61aede7019b07
:1041c4001b1a01936368984202d9c01a0834013f4c
:1041d40023681b1823606368181a6060cfe71e0009
:0241e400dbe717
:020000040000fa
:1041e600f0b5050085b019000c9b100001931a6804
:1041f6002b696c68013bef681d00002c00da012476
:104206000026fe540a9e0123361b029602261640fd
:104216000b9ad2170392002d04dc002b17d028002e
:1042260005b0f0bd02000a4307d1002c05dc029a56
:104236001219002af1dd002eefd00b9a039b00f035
:1042460004fe013d130030327a55013ce3e71023aa
:0e425600019a12689a431300019a1360dfe781
:020000040000fa
:1042640030b588292cd012dc812930d003dc802998
:104274002dd0002030bd82290ed08429f9d11968af
:1042840000680a1d1a600b6818800120f2e7a02953
:104294000fd00adc9029ecd10468456819680a1d1e
:1042a4001a600b681c605d60efe7c02901d0f0293b
:1042b400dfd11a680168101d186013681960e4e7fb
:1042c400196800680a1d1a600b681870dde7196820
:0c42d40000680a1d1a600b681860d6e72d
:020000040000fa
:1042e000f8b5846a05000f001600002c0ad0ab6aee
:1042f0006a699b1ab3420cd2320039002800fff7da
:1043000031ff05e001f0ddf903002000002beed0c5
:10431000f8bd002ef0d02b0034331b785bb2002b9d
:104320001adb3400dbb2621eb95c994212d1220062
:1043300039002800fff716ffa042e9d33f19341bcc
:1043400022003900686901f058fa6b6930001c19c5
:0c4350006c61dde7141ee6d13400f1e7db
:020000040000fa
:10435c00f0b51d00012389b014000e9a06001a4016
:10436c000391029201d1a5420ad822000399300090
:10437c0000f096fea54203d82500280009b0f0bd38
:10438c002f1b01973a00102f00d91022202104a8ce
:10439c0001f03ffa019b0f2b0ed80f2204a93a40d3
:1043ac00300000f07dfe029b002be6d12200039929
:1043bc00300000f075fee0e7102204a9300000f098
:0a43cc006ffe019b103b0193e4e734
:020000040000fa
:0243d60070472e
:020000040000fa
:1043d800194b01221a701a00537e5bb2002bfbdbcb
:1043e800164b1a68164b1b68db0e07211140490152
:1043f8000b435201e021c9000a4013430e4a1385ba
:104408000323d370013b53700e4b1361537e5bb291
:10441800002bfbdb084bc92292009a801a00537ebe
:104428005bb2002bfbdb044b0f221a761a00537e7b
:104438005bb2002bfbdb7047004000422460800029
:08444800206080000618000f3f
:020000040000fa
:104450000021f0b5174b184a934208d30027174a9a
:1044600013685168002b05d1002903d1f0bd1970e4
:104470000133f1e7100095680c305c18002d16d060
:104480000b25ed1a5219a3420ad10b000322134047
:104490005a1e934189085918890040180200dfe725
:1044a0005d1cae5c1e702b00ede71f700133a34254
:1044b000fbd1f3e700000020000000209c2b00004f
:020000040000fa
:1044c000f0b50b680c008f68cd68496887b00600ae
:1044d0000593002902db02218b43059305a953684c
:1044e000126802910821009701912000fff77bfede
:1044f000059bdb0602d5302301382b54059b1b0797
:1045000002d5202301382b54236929185a1e059bf4
:10451000121a009330003b00fff720ff7368db05a1
:0e45200003d56368984200da180007b0f0bdba
:020000040000fa
:10452e0010b584291fd007dc812915d0822922d00d
:10453e00802911d0002010bd90291cd008dc8829bc
:10454e00f8d119680c1d1c600b6803601a7010e01e
:10455e00a02901d0c029edd119680c1d1c600b6873
:10456e0003601a6005e019680c1d1c600b6803607f
:10457e001a800120dfe719680c1d1c600b680360b0
:08458e001a60d2175a60f4e72d
:020000040000fa
:104596007fb51600c2680d0013000091591e8b41ad
:1045a600f31a0193836804000392694602220068a5
:1045b600029300f060ff002808dc1822082302405e
:1045c6005340626813436360060010e0019b834218
:1045d600fad2a268c01ae3681018e2632064002bbe
:1045e60005d0531ce3631378ad19013d2b703000e1
:0445f60004b070bde0
:020000040000fa
:1045fa004b1801225205da4217d25b0d0722d2016b
:10460a009b1a0fd9ff2b13d2db05ca0fd20713430c
:10461a000903020d1143490ac200524100d901316e
:10462a00c8187047c80fc007704706d1002804d1c0
:10463a00c80f0002ff30c00570470123db070a00dc
:10464a00c900400f084398431a4010435b0a1843b5
:02465a007047a7
:020000040000fa
:10465c00002370b59cb004000d0016000593139058
:10466c00069098421edb114bc318002104a814932a
:10467c0001f014f8209a219b31000092019304a8b8
:10468c000122fdf73bf9002d0ad0139b0293149bda
:10469c000393039a029b9b1a199a9b18e4182c609b
:1046ac001cb070bd01235b42dfe7c046ffffff7ffc
:020000040000fa
:1046bc0000230e4a10b513600d4a13600d4a1360a7
:1046cc000d4a13600d4a13600d4a53621361013396
:1046dc00936001f0aef8fff778fe0a4c0a4b9c424f
:1046ec0000d310bd08cc9847f8e7c046b4060020ac
:1046fc002406002020060020180600201c0600209e
:0c470c0028060020c4000000c8000000c7
:020000040000fa
:10471800036d70b50400002b07d0426d934204dc92
:1047280000230120e364404270bd200000f08efeab
:104738000028f5db236de16b226c002b14d0656d2e
:104748005b1b551aab420fdc013bcb18e364002a14
:1047580004d0636d521a01329a18626501390b78d8
:0c4768008342e1d00870dfe71300efe7a8
:020000040000fa
:1047740020212223242425252626272728282828e3
:10478400292929292a2a2a2a2b2b2b2b2c2c2c2c7d
:104794002c2c2c2c2d2d2d2d2d2d2d2d2e2e2e2e45
:1047a4002e2e2e2e2f2f2f2f2f2f2f2f00011702bb
:1047b4001d1813031e1b190b1408040d1f161c12bd
:0c47c4001a0a070c1511090610050f0e4b
:020000040000fa
:1047d00070b504000d00002801d1002070bd4368b1
:1047e0009b0607d543698269934215d80023a362cb
:1047f000a3616361e16b236c994204d2c91a01225f
:10480000206801f099f800232364e3639d42e4d01b
:10481000206801f089f8e1e70022c36a1100984797
:0c4820006369002be2d101204042d7e781
:020000040000fa
:10482c00f0b50b680c008f68cd68496887b006003e
:10483c000593002902db02218b43059305a95368dc
:10484c00126802910a21009701912000fff7c5fc24
:10485c00236929185a1e059b121a009330003b003d
:10486c00fff776fd7368db0503d56368984200dac1
:06487c00180007b0f0bdba
:020000040000fa
:0248820070477d
:020000040000fa
:10488400f8b505000c000020002d20d000f064fdd8
:10489400002c17d000200e4a0421072605e0178dae
:1048a4004300ef52013084420dd0137e0b42fcd002
:1048b400538b334207d153683340012befd0138d10
:1048c4002b54efe72000201a44426041c0b2f8bde7
:0448d400001c004282
:020000040000fa
:1048d80010b5114b06225a60104b1b68186800214e
:1048e80000f07eff0e4b1b681868002100f078ff6f
:1048f80000f028fbfff76efa00f0dcff00f09afbef
:1049080000f000f900f0f2fd00f004fcfff760fd94
:1049180000f03afa10bdc04600400041c40600202d
:04492800a8070020bc
:020000040000fa
:10492c0070b5104c4b005b0da3420fd0002b0dd07b
:10493c00d3180d4a93420adc002b0fdd0b4a1b05e2
:10494c001140194304000d002000290070bdc90f4f
:10495c00074bc9070b4300241d00f5e7c90f0024c2
:10496c00cd07f1e7ff070000fe070000ffff0f80f7
:04497c000000f07fc8
:020000040000fa
:1049800070b5040016001d00022a1cd043689b0667
:1049900019d4002908d1002d01d18025ed0028006f
:1049a0000830fef7a1fa010020236268a1601343da
:1049b00063602300e5603433ff22012e00d10a2218
:1049c0001a70024be362002070bdc046e142000055
:020000040000fa
:1049d00070b5c668856804000a00ae4211d1012096
:1049e000002100f0abfec043c943431c03d00b4b76
:1049f0001a68104018604b1c03d0084a53681940cd
:104a00005160012319006268b56011439a43ee605a
:104a10006160a41822681343236070bd1004002055
:020000040000fa
:104a2000f0b50f0087b0039015001049072204a8c5
:104a30001c0000f0e2febb687e6802933f68002d18
:104a400000d104ad002c03d1280000f0f0fe0400da
:104a5000002e02dbb44200d934000097029b2200f2
:104a600029000398fff77afc07b0f0bd2059000039
:020000040000fa
:104a700070b59ab004000d0016000021602202a853
:104a800000f0cdfe012300215b4202a804941194a2
:104a9000129300f009fe0122310002a8fbf740ff4b
:104aa000002d0ad0119b0093129b0193019a009b49
:0e4ab0009b1a179a9b18e4182c601ab070bd60
:020000040000fa
:104abe0037b56b46dd1d836a04002970002b0cd0c0
:104ace006369a26a93420fd3e36a01222900200090
:104ade009847012805d1287805e000f0ebfd002865
:104aee00eed0012040423ebd2200343212782878aa
:0e4afe0052b29042e8d05a1c62611870f3e781
:020000040000fa
:104b0c000f4b01221a6019008b681a42fcd10c4b16
:104b1c0000221a605a6158690a49014359610221fd
:104b2c00d9635a64f331ff319964da641a65064a21
:104b3c001a6401229a621a009368002bfcd1704708
:0c4b4c0000200042000f4040ff0300006a
:020000040000fa
:104b580010b581290fd0832903d0802914d00020d3
:104b680010bd1368191d11601b6841680068186042
:104b780059600120f4e71368191d11601b6801686a
:104b8800426819605a60f4e71368416800681c1da0
:0c4b980014601c68fff72dfd2060eae7a8
:020000040000fa
:104ba4000200002310b54832d3560400591e0b43ab
:104bb400137043698269934203d90022c36a1100c6
:104bc400984700236068a362a3616361830705d5e6
:104bd4001023184360600120404210bda368e268be
:0c4be40000079b182364e363c017f6e78a
:020000040000fa
:104bf00010b5064c2378002b07d1054b002b02d0b3
:104c0000044800e000bf0123237010bd68060020a7
:104c10000000000000000000044b10b5002b03d082
:104c20000349044800e000bf10bdc046000000007a
:084c30006c06002000000000ea
:020000040000fa
:104c380010b50a4b98470a4b984700f051fe094bac
:104c4800ff229343084a9360084b9847084b9847bc
:104c5800084b9847fef766fdfee7c046d7400000c0
:104c6800d74000000000000000ed00e0bd46000055
:084c7800d7400000d740000006
:020000040000fa
:104c800070b5002818d0002918d000250c4a01243e
:104c9000072605e06b00c35a13850135a94209d0e8
:104ca000137e2342fcd053683340012bf2d0435d86
:104cb0001385f2e7012070bd0020fce70120fae730
:044cc000001c004292
:020000040000fa
:104cc40030b401256d054c00e54215d85c00e54281
:104cd40012d80c001c436400044314430fd005d2c3
:104ce40082428b418041013030bc704790429941ef
:104cf4008041013030bc7047002030bc7047012037
:044d040030bc704708
:020000040000fa
:104d080030b401256d054c00e54215d85c00e5423c
:104d180012d80c001c436400044314430fd005d27e
:104d2800904299418041013030bc704782428b41aa
:104d38008041013030bc7047002030bc70470120f2
:044d480030bc7047c4
:020000040000fa
:104d4c00f7b597b201933b00140c86b2050c734374
:104d5c006f4366436543f6191c0ca4199c46a74285
:104d6c0002d980235b02ed186346260c75192404c6
:104d7c009eb2019ba4194343200051435b1959185f
:044d8c0003b0f0bdc3
:020000040000fa
:104d9000bff35f8f62b60c4bc32080001a5812021b
:104da000120ac02109060a431a50802212021a6010
:104db00004301a5805491140c02212020a431a5001
:104dc000802292021a60704700e100e0ff00ffffbe
:020000040000fa
:104dd000030010b51a78202a0dd0110009390429d2
:104de00009d900212b2a02d02d2a01d1013101330a
:104df00000200a2404e00133ece760430133801a09
:104e00001a78303a092af8d9002900d1404210bd59
:020000040000fa
:104e10000c4a036810b5546a0b4a591e121b914282
:104e20000bd9002b05d00c220120084b40421a6000
:104e300010bd102202600020fae70f2217339343bf
:104e40000360f8e728060020efffff7fb806002088
:020000040000fa
:104e5000002b11d1002a0fd1002900d1002802d047
:104e60000021c943081c07b4024802a1401802905f
:104e700003bdc046c10a000003b4684601b50298ec
:104e8000fef7e3fb019b9e4602b00cbc7047c04698
:020000040000fa
:104e900070b504000025e36be26c934211d25a1cfa
:104ea000e263187820280ad00938042807d9e36c6f
:104eb000002b02d0e36b013be363280070bd01359a
:0e4ec000e9e72000fff728fc431cebd1f5e7e3
:020000040000fa
:104ece0030b401256d054c00e54215d85c00e54275
:104ede0012d80c001c436400044314430cd005d2ba
:104eee0082428b418041404230bc70479042994192
:0e4efe008041404230bc7047002030bc7047fd
:020000040000fa
:104f0c0030b401256d054c00e54215d85c00e54236
:104f1c0012d80c001c436400044314430cd005d27b
:104f2c00904299418041404230bc704782428b4153
:0e4f3c008041404230bc7047002030bc7047be
:020000040000fa
:024f4a007047ae
:020000040000fa
:104f4c0010b50d4b40201860012245215a544239ae
:104f5c004624195506341a550a341a55243c18554a
:104f6c000d381a5403302e3c1c54053019549b3008
:0c4f7c001a54ba32995410bd0044004190
:020000040000fa
:104f88000309013b1800202b07d90a4a934205d888
:104f98000948db08c318043b18787047e0223f2013
:104fa80052019342f9d80448db09c318043b187826
:0c4fb8001030f2e7ff0100007447000019
:020000040000fa
:104fc4000b00496810b50200890603d4190000f0eb
:104fd40087f810bd190034310978c0b249b2814252
:104fe40007d059699c6aa14203d24c1c5c610a70c7
:0c4ff400efe711001800fff760fdeae78e
:020000040000fa
:105000001c2101231b04984201d3000c10391b0af8
:10501000984201d3000a08391b09984201d30009bc
:10502000043902a2105c40187047c0460403020213
:0c50300001010101000000000000000070
:020000040000fa
:10503c000b4b01221a6019008b681a42fcd1084be9
:10504c0000221a600221d9635a649a640132ff3239
:10505c001a64044a9a621a009368002bfcd17047b8
:08506c000028004201000100d0
:020000040000fa
:105074000a00000064000000e8030000102700009c
:10508400a086010040420f008096980000e1f505db
:10509400183535006bffcefbcefb696e66696e6911
:0850a4007479006e616e0000da
:020000040000fa
:1050ac00436870b50400d80510d52569954200d920
:1050bc0015002a00606900f09afb226963695b198c
:1050cc00551b0022636125611a7070bddb06fcd490
:0850dc00200000f079fbf8e769
:020000040000fa
:1050e40013b50b006a46d41d5a68c1b22170d205ab
:1050f40005d55a69c0b2541c5c61117016bd0122f9
:105104002100180000f064fb002801d02078f5e7a6
:0651140001204042f2e719
:020000040000fa
:10511c000a4b0b4a1a60d22252429a81c022920246
:10512c005a601a00d369002bfcd1044a136802217f
:10513c000b431360d369002bfcd17047001c004259
:04514c0004012040fa
:020000040000fa
:10515000f0b5050000200a4c4200165d002e02d179
:10516000a2185078f0bd296801300f78c0b2b7425c
:1051700003d1a2180131507829600a28ecd9f1e74f
:045180005456000081
:020000040000fa
:10518400f4464a1805d200f0d2f801d5c0174008f9
:10519400604701235b05d34206d200f0c8f801d56d
:1051a4000120c0074042604701d10042f5d0d0172a
:0451b40040087047f8
:020000040000fa
:1051b80010b50b680c001b78202b03d0093b00228c
:1051c800042b0bd8fff760fe02002368591c2160ee
:1051d8005b78202bf9d0093b042bf6d9100010bdc1
:020000040000fa
:1051e800f8b5050001262c68344201d000200ee0f5
:1051f8002000fff7c5fe070000f0e0f92868a0428c
:10520800f1d1b043281a3900fff7defb0120f8bdc1
:020000040000fa
:10521800084b02001968002901d10749196018686c
:10522800064982188a4201d81a6070470120404214
:10523800fbe7c046bc060020b0070020b0090020ec
:020000040000fa
:1052480037b50d00d46811001a00fef7f7fe431cad
:105258000cd00a2201a9200000f0aefa019b2860b8
:0e52680069600120a34201d1022040423ebdf8
:020000040000fa
:1052760037b50d00d46811001a00fef7e0fe431c96
:105286000cd00a2201a9200000f08dfa019b2860ab
:0e52960069600120a34201d1022040423ebdca
:020000040000fa
:1052a40070b5140016000a004e430d00511e8a41c9
:1052b4005242144001003200180000f089fa86427c
:0e52c40003d02900fef706ff0400200070bd95
:020000040000fa
:1052d200f8b5050001276c683c4201d000200de0c2
:1052e2002000fff750fe060000f06bf96b68a34246
:0e52f200f1d128003100fff76afb0120f8bd62
:020000040000fa
:1053000070b4012676054c005d00e6420cd8ee42f2
:105310000ad825430543154303d0994204d190424e
:0e53200002d1012070bc7047002070bc7047a5
:020000040000fa
:10532e004a0010d2520d03231b02ff33d21a0ad4a5
:10533e0052421f3209d4400dc90208430123db0734
:0e534e001843d040704700207047d0177047ba
:020000040000fa
:10535c00094b5b8b5b070dd0074b80221a76793a91
:10536c005a831b7e5b0705d5034b04211a8d1a7ecd
:0c537c000a42fbd17047c046001c0042f2
:020000040000fa
:10538800020000234832d356591e0b4313700423de
:105398004268134005d01023134343600120404264
:0a53a80070470364c3631800fae7be
:020000040000fa
:1053b200002380290fdb812901dd83290bd10721fd
:1053c200136807338b431900083111601a685b6850
:0a53d20002604360012318007047d9
:020000040000fa
:1053dc0010b5064bd86a064ada62db6a054b1b68c5
:1053ec00002b02d0034a5168984710bd00200042a0
:0853fc000ff80f0090060020dd
:020000040000fa
:1054040010b5064bd86a064ada62db6a054b1b689c
:10541400002b02d0034a5168984710bd002800426f
:085424000ff80f0098060020ac
:020000040000fa
:10542c0010b5084c2368196800f0a5f80123002872
:10543c0005db23680a20196800f058fac30f58429c
:08544c0010bdc046a8070020b6
:020000040000fa
:1054540037b50400fff7a4fb002802d00120404226
:105464003ebd6b46dd1d0122636c29002000984778
:085474000128f3d12878f3e7c9
:020000040000fa
:10547c00f7b5002507000c002e000192019b9e42ff
:10548c0001db2800febd62682168380000f062f87c
:08549c0001362d180834f1e778
:020000040000fa
:1054a400f7b5002507000c002e000192019b9e42d7
:1054b40001db2800febd62682168380000f0acf80a
:0854c40001362d180834f1e750
:020000040000fa
:1054cc00012370b544689c43651a102d0ad9421803
:1054dc0019432b4311605360083203514160100093
:0654ec00fef7ecf970bdb3
:020000040000fa
:1054f400054a00231360936004495160062111603a
:10550400034a93601360704710e000e07fbb000023
:0455140084060020e9
:020000040000fa
:1055180010b5064b1b68064b9a6801329a601b68e7
:10552800002b02d0024a5068984710bd10e000e0f6
:0455380084060020c5
:020000040000fa
:10553c0041000dd2090e7f390ad449421f3105d4de
:10554c0000020122d2071043c8407047c8177047a9
:04555c000020704774
:020000040000fa
:1055600010b50c000023002809d10300002a06d042
:1055700001212000fff786f90028f9d00123180047
:0255800010bd5c
:020000040000fa
:1055820070b50e00050000f051f93300040002006e
:1055920001212800fff785fe001b431e984140426f
:0255a20070bdda
:020000040000fa
:1055a4000fb407b5054b04aa1b6802ca1868019218
:1055b40000f09ef803b008bc04b01847a807002008
:020000040000fa
:1055c400064b0130c000c258002a05d10200083a37
:1055d400d21819184a60c2507047c04610040020ff
:020000040000fa
:1055e400054a136802210b431360110002228b68e1
:0c55f4001a42fcd17047c0460020004263
:020000040000fa
:10560000054b1a6b0023120604d40002000a024b59
:0c561000d86601231800704700200042fb
:020000040000fa
:10561c0070b50d001400012801d0200070bd2100d0
:0c562c002800fff727fb0028f9d0f6e764
:020000040000fa
:105638000300303b02000120092b06d9202300205b
:0c56480013430522613b9a424041704729
:020000040000fa
:1056540068076c094c836a9074a07ac000806888db
:0c56640000846c820081286e696c2900b3
:020000040000fa
:10567000054b004206d5404200b5984708bc0122c0
:0c568000d2071143184700008d560000af
:020000040000fa
:10568c0042221201033a010007d002d4013a001859
:0c569c00fcd51205c30a400599187047a0
:020000040000fa
:1056a800036cc26b10b59c1a01654465002902d0d1
:0a56b8008c4200dd5318c36410bdde
:020000040000fa
:1056c20010b50400fff75ffe002805d1a368e26869
:0a56d200a36163619b18a36210bd81
:020000040000fa
:1056dc0010b5044b0a001b680100186800f010f8a4
:0856ec0010bdc046c4060020f9
:020000040000fa
