:020000040000fa
:10000000f83f0020cd1e000023140000531700000d
:1000100000000000000000000000000000000000e0
:10002000000000000000000000000000270e00009b
:100030000000000000000000270e0000270e000056
:10004000270e0000270e0000270e0000270e0000dc
:10005000270e0000270e000055170000270e000095
:10006000270e0000a10f0000270e0000270e000041
:10007000270e0000270e0000270e0000270e0000ac
:10008000270e0000270e0000270e0000270e00009c
:10009000270e00000000000000000000270e0000f6
:1000a000270e0000270e0000270e0000270e00007c
:0800b00000000000270e000013
:020000040000fa
:1000b800f8b5c046f8bc08bc9e467047ad1e0000a7
:1000c800f8b5c046f8bc08bc9e467047851e0000bf
:020000040000fa
:1000d800f0b59bb013930b6815900d934b68129174
:1000e80004938b680e930b691893cb680693136877
:1000f8000b9353680b98089300220023089902f089
:100108000cf800280dd10d9b5b073ad408200d9bf5
:1001180003400c930e9b07930c9b002b0fd02023be
:1001280006e0802212069446089b634408932d2318
:10013800069a13700e9b013b079301230c93089baf
:100148000b995b005b08984a00291ed193421cd189
:10015800069c139ba4460c9a413b624493491000a9
:10016800192b10d802f0d4fa069802f09ffa0d9bca
:100178000200009306990e9b159801f063fb1bb0d3
:10018800f0bd2b23d4e70431ece7934203d810d118
:100198000b9b002b0dd0069c139ba4460c9a413b4d
:1001a800624482491000192b01d80831dae70c3172
:1001b800d8e7002200230b98089902f09cf8002643
:1001c8007b4f002833d000230393139802f086fa5c
:1001d800c3b20f93049b002b00dae8e10f9b0a934c
:1001e800672b00d0f1e0049b002b00d1dae1039be0
:1001f800043304db039b049a934200dae0e06523ae
:10020800f9e026002f00039b013303930022694b7a
:100218003000390000f05afd0b9a089b04000d00cd
:1002280001f05cff0028ecd00024012524e00390b5
:10023800ece7039b1a00604b9a4212da002c10d1ab
:1002480000225e4b0b98089900f040fd00220b90ad
:10025800089130003900594b00f038fd2c00060099
:100268000f00544b30003900002201f015f8060049
:100278000f00039b013b039332003b000b98089946
:1002880001f04bff0028d4d19fe7002300241093ee
:100298001194fee0089609970a9b039d652b00d0f0
:1002a80019e1002517e1002f0ad1002d08da2e23c5
:1002b800069a149901365354079b0137013b07935b
:1002c800a21933009446302102e0069ad154013332
:1002d8009c45fad1079aa319141b069a30305e1c64
:1002e800d054631e0793002421e0129b14961b69c7
:1002f8000493053bb34200d8f7e0089a099b0b9892
:10030800109900f0c9ff01f0e3f80490059101f09d
:1003180091ff092800dd092010230d9a134003439b
:10032800c1d10f9b672bbed1002dc9da01348020c3
:100338000006844610990b9a61440b0004980599ad
:1003480000920193089a099b02f0c0f980231b06ca
:10035800cb180b901093089809990022154b00f0c0
:100368009bff013d08900991bbe00d9bdb0600d483
:10037800bee02e23069a93550136b9e0039839005a
:1003880001f04af9069b3031013c195503983900b0
:1003980001f0f8f8079b0390013b0793bfe0069a2a
:1003a800125c1a540138ede00000f07f942600003a
:1003b8000000f03f00002440d4feffff000050433f
:1003c800039b002b16da66230a93049b01330493dc
:1003d8000a9b662b10d1039b002b03da002300260f
:1003e800764f03930f9b672b04d0039a049b944684
:1003f8006344049366230a930023109611970b9d78
:10040800089c1493109a119b2800210000f044ffc7
:1004180001f05ef81690179101f00cff80212a0078
:100428000906631819900092019316981799109a63
:10043800119b02f04bf980231b06cc180022604b5d
:1004480005001098119900f027ff149b1090119146
:1004580001331493149a049b9342d3d10022594b2d
:1004680000f034fc1090119102000b0028002100cc
:1004780001f053fe002800d007e7109a119b2800ce
:10048800210001f038ff002803d0199bdb0700d4b6
:10049800fbe6109a119b0b98089900f017fb0022b5
:1004a8000b901091464b3000390000f00ffc0b9a6e
:1004b800109b0890099101f08ffd002800d1e9e612
:1004c800039b013303930a9b662b00d0e4e6049b4d
:1004d800039d0133049300242700049b0c9eeb1a10
:1004e8001693169b9d4200d0ffe6002f00d13ce7f3
:1004f8000025069b9b1904931d700a9b652b31d11f
:10050800189b5c1e069b1d55039bab4202da5b429f
:100518000393013503230a27189a9b1a0893039b10
:10052800002b00d02ae7089b1b19002b00dd25e7cc
:10053800621e2d23002d00d1023b0699023c8b54ec
:10054800139b413b192b01d845230a93069b191984
:100558000a9b0b70079b023b0793a64202da04989a
:1005680002f0d6f803230d9a1340022b00d0fbe5c6
:10057800079b002b00dcf7e5069802f097f8069b2e
:10058800079a9b180c9a824200dc08e71300069a27
:100598003021944663441800079a02f07ff800233c
:1005a8000e93e1e50123049321e60623fbe70f9b65
:1005b800672bfad00a930623049306e70000f03f5e
:0805c800000024400000144073
:020000040000fa
:1005d0000023f0b506001500afb005910193059911
:1005e0000b78002b00d10fe101235b420a930eab85
:1005f00000240c93802309940b940d930b5d002b26
:1006000001d0252b2ad1002c06d02200300001f089
:10061000c5fd059b1b190593059b1a78252a00d05b
:10062000e7e0013302930593022310219c4608273b
:10063000059803782b2b1bd025d8202b1bd0232be0
:100640001dd02a2b2ad001f00dfd0b90059b1a78a6
:10065000303a092a33d801330593f7e70134cde75f
:100660000122099b80180393134309930590dfe748
:100670000423099a0ee0099b03933b430be0099b7b
:1006800003930b4307e02d2bead0302bd9d16246e0
:10069000099b0393134309930130e7e72b6801306b
:1006a0001a1d1b6805902a600b93002b07da099a24
:1006b0005b420392012203990b934a400992099be2
:1006c000da0702d5022293430993059b1a782e2a52
:1006d0000ed10022581c0a9205905a782a2a28d155
:1006e000023305932b681a1d1b682a6003930a9333
:1006f00005a801f089fd059b0700187801f0f2ffbd
:10070000692800d183e035dc632800d1d6e01bdc0a
:10071000252800d1dfe0612859d0252306aa1370cf
:10072000029b0593002309930b93013b0a93023329
:10073000b2e001f097fc0a90059b1a78303a092a3a
:10074000d6d801330593f7e7642860d06728e4dc46
:100750002a00390006a801f02dfe002800d1a9e0ea
:10076000059b09a95a1c05921b7806aa3000fff7c1
:10077000b3fc3de0702800d17de016dc6e2800d18e
:1007800091e06f28c9d12b000022390006a800f0a3
:10079000e9fd002800d18de0059b06aa013309a9d7
:1007a0003000059301f0d3ff22e0752840d078286f
:1007b0004fd07328b1d1802f00d07be0059b2a68f1
:1007c00001330593131d2b601268002364e02a0097
:1007d000390006a801f0eefd002800d16ae0059b73
:1007e00009a95a1c05921b7806aa300001f0b1ff36
:1007f0002418019b1c19a34200dc74e04f223b4be0
:100800001a6001235b42019301982fb0f0bd2b00c9
:100810000122390006a800f0a5fd00284ad0059b5a
:1008200006aa013309a93000059301f090ffdfe724
:100830002b000022390006a800f094fd002839d0d2
:10084000059b06aa013309a93000059301f07fff3b
:10085000cee72b000022390006a800f083fd002817
:1008600028d0059b5a1c05921b7806aa09a93000be
:1008700001f06fffbce72b000022f02106a800f07a
:1008800071fd002816d0059b079a01330593069b3e
:10089000134306d1164a163209a9300001f07afa3c
:1008a000a6e77823e1e7019b39001a1906a82b0077
:1008b00001f07ef8059b013305939ae7802ff9d16b
:1008c000059b013305932b681a1d1b682a6006aa35
:1008d00013700123e0e7802fecd1059b06aa0133ba
:1008e00005931070f5e7019479e6c046f8060020fc
:0408f000602500007f
:020000040000fa
:1008f400980600201c00000000000000b80600203c
:100904001000000000000000c806002010000000d5
:1009140000000000d80600201000000000000000c5
:1009240068060020300000000000000000070020de
:100934000200000000000000020700200100000087
:1009440000000000b40600200400000000000000c5
:10095400f00600200400000000000000180600203b
:100964005000000000000000040700206c0000009c
:1009740001000000100700200c07002010070020d1
:100984000000000025000000080000200004000012
:100994000000000000000000000000000000000053
:1009a4000000000000000000000000000000000043
:1009b40057270000000000000000000000000000b5
:1009c40000000000191a00000000000000000000f0
:1009d4000000000000000000000000000000000013
:1009e400000000200804000000000000d0070020e0
:1009f40020000000010000000100000003000000ce
:100a040000000000000000000000000000000000e2
:100a140000000000e8060020e806002008000000ae
:100a240000000000f40600200400000000000000a4
:100a3400f806002004000000000000000804002064
:100a44001002000000000000700700206000000099
:100a5400010000000100000003000000000000008d
:100a64000000000000000000000000000000000082
:100a7400991b0000000000000000000000000000be
:100a8400252700007f240000000000000000000073
:100a94000000000000000000000000000000000052
:100aa4000000000000000000000000000000000042
:100ab40000000000fc06002004000000000000000c
:100ac4000000000000000000444444444444444402
:020000040000fa
:100ad400f0b40125ed070f005f405ad48b4200d1da
:100ae400824205d950404240504059404b40594001
:100af4004e18760ddf187f0d3bd0741c640529d089
:100b0400f41b352c26d80e0ddb022b43db0ac9025d
:100b14002943c9121700202c1ed2e741e240574056
:100b2400e3415a40a340e3405a400024801859410d
:100b34000ad3b21c520521d0c207012f624117000b
:100b44004008cb0718434908013636054208af412f
:100b540060417141f0bc7047203c06d01f00e74162
:100b6400e3405f400024012a6741c0186141ebd390
:100b7400dfe7002eeed129400020ebe701363105f6
:100b84000020e7e7e742e5d10020c143090dc9048d
:100b9400e0e76b400e00871a9e4104d26e40c01bf2
:100ba400b141d21973414e18df18ac0ae642e9d2ba
:100bb400760d7f0d31d0f41b362ccbd8b4460e0df8
:100bc400db022b43db0ac9022943c90a012c32d8b0
:100bd40004d1d4075208df073a435b08ef0a6442a2
:100be400904199411ed0002239424dd124194041ef
:100bf40049410124394204d10134001849413942a0
:100c0400fad06246a24204d9361b013e3605891940
:100c1400a0e7f10ac90700209ce736429ad10020d8
:100c2400002197e70200224394d0b842ded20100ab
:100c340020002024e3d1202c13dd203ce2411700c6
:100c4400a240e2405740e3415a40a340e3405a40a7
:100c5400012fbf410137174300227c429841914143
:100c64000ce01700e741e2405740e3415a40a340fb
:100c7400e3405a407c429041994100220f0303d241
:100c8400013e241940414941013e36054708ac4123
:080c940050417141f0bc7047b2
:020000040000fa
:100c9c0008d1002806d1f54204d801d3002a01d18d
:100cac006d0d09d10020c143090dc904f0bdf9d166
:100cbc001242f7d1640df5d00020c1434905490813
:100ccc00a6e000206146f0bdf0b50127ff070e003d
:100cdc005e403e40b446be0a4c18dd18f442d7d2f2
:100cec00f542e4d2640decd06d0dead06419c90262
:100cfc003943460dc0023143db023b43db0a10b4df
:100d0c008e4685b297b26f43140c6c433e0ca419fb
:100d1c00260c2404bfb227439cb26c43a419190cb3
:100d2c006943250ca4b249190d04090c6419000c73
:100d3c0095b245433e0c76193743bfb2360c150cb1
:100d4c004543ad19a6b2240cad192e0437432e0c15
:100d5c0036199db24543ad19acb22e0c89191d0c38
:100d6c0045436d182e04290c3443704680b295b25d
:100d7c0045433e0c76193743bfb2360c150c454330
:100d8c00ad19a6b2ad19240c2e0437432e0c36190e
:100d9c009db24543ad19acb22e0c89191d0c4543bf
:100dac006d182e043443290c75462d0c90b26843f3
:100dbc003e0c80190604bfb23e43070ca0b23f188c
:100dcc00120c6a43d019020c80b2240ca4189ab2eb
:100ddc006a43121914042043120c89181b0c6b4320
:100dec00c91810bc01273d05294203d1b619404151
:100dfc004941013cff077d0d013d641b0bdb6d0080
:100e0c00ac4209da240500254208be416841614123
:0a0e1c0066463143f0bd54e74ee78f
:020000040000fa
:020e2600fee7e5
:020000040000fa
:100e2800f0b587b0039003a801f038f9002802da7a
:100e3800002007b0f0bd039b1b095d1e202d09d9ba
:100e48004f49023b4f4a8b4224d8db08d318043b56
:100e58001d7801352a000120002101f0bdfb002486
:100e680043428c4100930194474f00983a687b684d
:100e78001040020001990b401a433fd1039b05a87b
:100e88001033059301f0b4fb002809d10c223f4b25
:100e98001a60cee7db09d318043b1d781135d9e772
:100ea8003b490c68a04206d0059b0400103b059303
:100eb8000123103483600125059be2180a602b4347
:100ec800083a083c28c26360002cb1d0200001f029
:100ed800cbf900280bd023686168ab43e31a5a6842
:100ee800aa4352185a606168a94362501c00200046
:100ef800039901f0adfa200008309ae7214a254904
:100f08003c32002831d1584203404b43db0ed65cbb
:100f18002036300001f0e4fa731cdb00fc58083b73
:100f2800fb189c42a0d0272e25dd0235ae4201dcfd
:100f38003f2e20d101226368039f9343dd1b2800c5
:100f4800009301f009f9864215d1e268a168e31916
:100f5800da60996093609a68d360012217431f6032
:100f68005d60009be5506760c1e7434203404b4327
:100f7800db0ed65ccde73100200000f057ffb6e766
:100f8800ff0100003c1b000010040020f8060020b0
:080f98000804002029e66b07a4
:020000040000fa
:100fa000f0b5c64600b5574b9b7d002b17d0554a70
:100fb000137edbb2927d52b2002a13db514a137ebc
:100fc000dbb2927dd20702d5db0700d582e04d4a25
:100fd000137edbb2927d520701d55b074bd404bc74
:100fe0009046f0bd5bb2002be8da464b5b8b0722e4
:100ff0001340e3d0444ce38501f0b0f9414b842227
:101000001a752c230022e254636a002bd6d03e4a84
:10101000906a9847d2e7bb68f35c0b85936801330d
:101020009360936898460b7e23420bd0404509d9c4
:101030004b682b40012beed163469b685b009b5baa
:101040000b85ebe7304b9a685b689a42bfd32e4b17
:1010500000221a755a602b4a01211175db68002b9a
:10106000b5d0294a10699847b1e727490a6a8969c2
:101070005200535215e0244a2c23d35c002baed0ef
:10108000214b1a6adb699a42a9d21e4a138d9bb280
:10109000516807220a40012ae7d01b4a116a926967
:1010a0005354194b1a6a01321a621a6adb699a425e
:1010b00000d094e7144b00222c215a54da61114ad3
:1010c000583111755b6a002b00d188e70e4a906a8f
:1010d000984784e70c4b1b7d002b00d177e70a4b28
:1010e0009a685868074b1b7edb07abd58242a9d2b2
:1010f000054b1e68034907259c461f001a00012462
:0c11000096e7c046000800426806002088
:020000040000fa
:10110c00f7b5002858d00838436801221e009643d2
:10111c0085192a680400934200d0ffde01276b6812
:10112c00226813403b420ed1200001f09bf80028ae
:10113c0043d1280001f0c6f80028f0d06b68bb43ff
:10114c00f618ed18ebe73b003343636030002b607f
:10115c0001f000f8019001f0c1f96b6822681340ae
:10116c003b42e1d0184b019a1868596801f026faf5
:10117c00384212d1019a0120002101f02bfa0b0008
:10118c00002804d0104a126802430f480260002b5a
:10119c0003d00d4a53680b435360019b0a4a013339
:1011ac00db00d3181a005b68083a66602e60e360b7
:1011bc00a260d460e3689c60f7bd2368bb43e41a6b
:0c11cc006368bb43f618b4e71004002071
:020000040000fa
:1011d800f0b52e4e3f25745de4b2705506012c4dd6
:1011e800ad192d7b002d05d0284e4e25765d0025a6
:1011f800b6073bd0254e4e25032777550501244ecb
:101208007619023f3773234ead5b6d0533d5c91888
:101218000601204dad19696001011e4d495b0905a4
:101228002ed5d21805011b4949198a6019490501ab
:101238006a5a9205920fd3409bb249194b80134ac0
:101248004021535c02252b435354516c536c9b042f
:101258009b0e08220a4013430125002b06d10b4a96
:101268001169012383400b4313610125074a3f237a
:10127800d4542800f0bd0601064dad196960cbe7ce
:101288000501044949198a60d0e7c0460048004171
:08129800c8060020b806002082
:020000040000fa
:1012a000f0b40125ed070c005c402c40a446ae0aca
:1012b0004c18df18f4423dd2f74245d2640d4cd0b1
:1012c0007f0d3cd0e41bc9022943cf0adb022b432c
:1012d000db0a0600b61a9f4104d2013cb6197f41d1
:1012e000b6185f416812800d241838dd001884425a
:1012f00025d8e80c0021b6197f41b61a9f4103d3c7
:1013000040414941f7d304e0b6185f410018494114
:10131000f1d32405b6197f41b61a9f4105d337434f
:10132000c20717430022012f504161416246114319
:10133000f0bc70470cd100280ad1f74208d2002037
:10134000c143490d0905f1e7002a01d1f74206d052
:101350000020c143090dc904eae77f0df8d0002041
:041360006146e5e716
:020000040000fa
:1013640010b588293cd015dc81294dd003dc8029b7
:101374004ad0002010bd822911d08429f9d11968de
:10138400002a26d00a1d1a6000228b5e0360db1738
:10139400436011e0a02930d010dc9029e9d119680c
:1013a4000724002a2ed00919a1430a0008321a6022
:1013b4000b684c68036044600120dbe7c02901d05e
:1013c400f029d6d11a68111d19601368036000232f
:1013d400dee70c1d1c600b689bb203604260ebe708
:1013e4001968002a04d00a1d1a600023cb56cde7e1
:1013f4000c1d1c600b68dbb2efe71a68111d196045
:101404001368c3e70731cfe71968002a03d00a1d20
:0e1414001a600b68bae70c1d1c600b68dde760
:020000040000fa
:02142200fee7e3
:020000040000fa
:10142400d0b5002000f062fc01f0f0f81e4801f095
:1014340065f901f0aff800221c49002001f020f901
:1014440002231b4a1b490020fff7c4fe1a4c002646
:101454001a4f02e0642000f0e3fd2378002bf9d05a
:10146400174b188801f04ef800f096fd154a164bfc
:10147400fff72efc32003b00fff710ff00f0fcfaf0
:10148400124b186000f088fd02000b00104801f0b8
:1014940019f8094b00221a700223054a0549002055
:1014a400fff798fed6e7c04610270000812400000d
:1014b400280800421a4000420207002000feaf4004
:1014c400000700206666666666660a40b406002069
:0414d4000c270000e1
:020000040000fa
:1014d8004b005b0d264af0b55c1e944238d8254a6d
:1014e8009e1825d4332e22dc234a9b1827d4234a5e
:1014f800da400700214b9743f3403c000f000240bd
:101508009f4319403d000a430fd0002f0dda2023d6
:101518005b42f11824d480204003c8400200802197
:101528004903f1400b00a4185d4120002900f0bddb
:101538000020002901db0021f9e71149f7e7202203
:101548000e4b921b934001225242f2401a43d0e7bd
:10155800002becd10022c90fcb0710001900e6e7d9
:1015680020218020891b400388400200d7e7c0461d
:10157800fd07000001fcffffe1fbffffffff0f007d
:041588000000f0bfb0
:020000040000fa
:10158c00002941d010b4041c4c40a4460123002275
:10159c00002900d54942002800d5404288422cd36e
:1015ac0001242407a14204d2814202d209011b0169
:1015bc00f8e7e400a14204d2814202d249005b0068
:1015cc00f8e7884201d3401a1a434c08a04202d3d0
:1015dc00001b5c0822438c08a04202d3001b9c0811
:1015ec002243cc08a04202d3001bdc082243002873
:1015fc0003d01b0901d00909e3e7101c6446002c39
:10160c0000d5404210bc704701b5002001f0a0f895
:10161c0002bdc0460029f7d003b5fff7b3ff0ebcdf
:08162c004243891a1847c04629
:020000040000fa
:101634001d4b00229a619a8c80218a439a841a0055
:101644001023d1680b42fcd0184b1b689b0e3f2b18
:1016540027d09b02802292001343134a93621023e3
:10166400d1680b42fcd0104b02229a841a0010233a
:10167400d1680b42fcd00e4b0e4a5a601a005378c4
:101684005bb2002bfbdb0a4b0b4a5a800b4a5a8095
:101694000b4a5a800b4b0c4a1a62034b00221a6203
:1016a4007047203bd5e7c046000800402460800016
:1016b400000c004000070100144000001940000025
:0c16c4001e4000000004004084000100f3
:020000040000fa
:1016d000f0b51600050002278369426987b00293be
:1016e000d31a03939b1904910596019302ac3a0017
:1016f0002100286800f09cfe019b984208d1ab684d
:10170000ea68ab619a18aa626b61300007b0f0bd5d
:1017100000280cda102200236968ab620a43ab612f
:101720006b616a60022f12d06368f61aede7019bc5
:101730001b1a01936368984202d9c01a0834013f0a
:1017400023681b1823606368181a6060cfe71e00c7
:02175000dbe7d5
:020000040000fa
:02175200fee7b0
:020000040000fa
:1017540030b583b0002301931a4a118c0f330b4028
:101764003f21545ce4b253540f31525cd2b2019223
:10177400019a0220920708d512494e228854190171
:10178400114a5218002111730138019ad20709d560
:101794000c494e220120885419010b4a5218002189
:1017a400117301301901084a52185568002d03d0ed
:1017b400054a53189968a847024a3f23d45403b0f2
:0c17c40030bdc04600480041c8060020af
:020000040000fa
:1017d000f8b5846a05000f001600002c0ad0ab6a29
:1017e0006a699b1ab3420cd2320039002800fff715
:1017f0006fff05e000f0c2fe03002000002beed0da
:10180000f8bd002ef0d02b0034331b785bb2002bd8
:101810001adb3400dbb2621eb95c994212d122009d
:1018200039002800fff754ffa042e9d33f19341bc9
:1018300022003900686900f012ff6b6930001c1942
:0c1840006c61dde7141ee6d13400f1e716
:020000040000fa
:10184c00f0b51d00012389b014000e9a06001a4051
:10185c000391029201d1a5420ad8220003993000cb
:10186c0000f096fca54203d82500280009b0f0bd75
:10187c002f1b01973a00102f00d91022202104a809
:10188c0000f00aff019b0f2b0ed80f2204a93a403f
:10189c00300000f07dfc029b002be6d12200039966
:1018ac00300000f075fce0e7102204a9300000f0d5
:0a18bc006ffc019b103b0193e4e771
:020000040000fa
:0218c600704769
:020000040000fa
:1018c8001a4b01221a701a00537e5bb2002bfbdb05
:1018d800174b1a68174b1b68db0e0721114049018b
:1018e8000b435201e021c9000a4013430f4a1385f4
:1018f8000923d370063b5370c0235b011361537ee9
:101908005bb2002bfbdb094bc12292009a801a00c4
:10191800537e5bb2002bfbdb044b0f221a761a00b6
:10192800537e5bb2002bfbdb7047c0460040004291
:081938002460800020608000a3
:020000040000fa
:101940000021f0b5174b184a934208d30027174ad5
:1019500013685168002b05d1002903d1f0bd19701f
:101960000133f1e7100095680c305c18002d16d09b
:101970000b25ed1a5219a3420ad10b000322134082
:101980005a1e934189085918890040180200dfe760
:101990005d1cae5c1e702b00ede71f700133a3428f
:1019a000fbd1f3e70000002000000020f408000055
:020000040000fa
:1019b00010b584291fd007dc812915d0822922d0b7
:1019c000802911d0002010bd90291cd008dc882966
:1019d000f8d119680c1d1c600b6803601a7010e0c8
:1019e000a02901d0c029edd119680c1d1c600b681d
:1019f00003601a6005e019680c1d1c600b68036029
:101a00001a800120dfe719680c1d1c600b68036059
:081a10001a60d2175a60f4e7d6
:020000040000fa
:101a18007fb51600c2680d0013000091591e8b4156
:101a2800f31a01938368040003926946022200684e
:101a3800029300f0e5fc002808dc18220823024085
:101a48005340626813436360060010e0019b8342c1
:101a5800fad2a268c01ae3681018e2632064002b67
:101a680005d0531ce3631378ad19013d2b7030008a
:041a780004b070bd89
:020000040000fa
:101a7c004b1801225205da4217d25b0d0722d20114
:101a8c009b1a0fd9ff2b13d2db05ca0fd2071343b6
:101a9c000903020d1143490ac200524100d9013118
:101aac00c8187047c80fc007704706d1002804d16a
:101abc00c80f0002ff30c00570470123db070a0086
:101acc00c900400f084398431a4010435b0a18435f
:021adc00704751
:020000040000fa
:021ade0070474f
:020000040000fa
:101ae00000230e4a10b513600d4a13600d4a1360af
:101af0000d4a13600d4a13600d4a5362136101339e
:101b0000936000f0dffdfff7eaff0a4c0a4b9c42ae
:101b100000d310bd08cc9847f8e7c046f406002073
:101b20002406002020060020180600201c060020a5
:0c1b300028060020c4000000c8000000cf
:020000040000fa
:101b3c002021222324242525262627272828282847
:101b4c00292929292a2a2a2a2b2b2b2b2c2c2c2ce1
:101b5c002c2c2c2c2d2d2d2d2d2d2d2d2e2e2e2ea9
:101b6c002e2e2e2e2f2f2f2f2f2f2f2f000117021f
:101b7c001d1813031e1b190b1408040d1f161c1221
:0c1b8c001a0a070c1511090610050f0eaf
:020000040000fa
:101b980070b504000d00002801d1002070bd436815
:101ba8009b0607d543698269934215d80023a3622f
:101bb800a3616361e16b236c994204d2c91a0122c3
:101bc800206800f0c9fd00232364e3639d42e4d04c
:101bd800206800f0b5fde1e70022c36a11009847cc
:0c1be8006369002be2d101204042d7e7e6
:020000040000fa
:101bf40010b50e4a00215160916011730c480d4bd1
:101c040058630d4c9c630d4c5c613f2419559c2119
:101c1400890159640a21ff3101800939ff391170a2
:101c24004d2202319954064a1a8010bdc80600207c
:101c3400b806002000480041d80600208181818137
:041c4400020f00008b
:020000040000fa
:101c4800114b124a1a60d22252429a81c022920241
:101c58005a601a00d369002bfcd10b4a1368022181
:101c68000b431360d369002bfcd1094b00229a6106
:101c7800da611a622c215a545a621a605a609a60c0
:101c88001a75da60da8570470008004204012040be
:041c980068060020ba
:020000040000fa
:101c9c00f8b505000c000020002d20d000f06efbe4
:101cac00002c17d000200e4a0421072605e0178dc2
:101cbc004300ef52013084420dd0137e0b42fcd016
:101ccc00538b334207d153683340012befd0138d24
:101cdc002b54efe72000201a44426041c0b2f8bdfb
:041cec00001c004296
:020000040000fa
:101cf00010b5114b06225a60104b1b681868002162
:101d000000f0a4fc0e4b1b681868002100f09efc3c
:101d100000f018f8fff78efc00f0ecfcfff794ffe2
:101d200000f002fcfff766ff00f054fafff7ccfd6d
:101d300000f0f0f810bdc046004000410807002048
:041d4000ec0700208c
:020000040000fa
:101d4400124b802252011a60012242215a5402315c
:101d54005a5404315a5402315a5448394c201954b3
:101d64000a301a5425381a5401301a5402301954be
:101d74000130195434310020585433393b3019544c
:101d84009b301a54ba3299547047c04600440041fb
:020000040000fa
:101d9400f0b50f0087b0039015001049072204a87e
:101da4001c0000f05afcbb687e6802933f68002d5b
:101db40000d104ad002c03d1280000f079fc04000c
:101dc400002e02dbb44200d934000097029b2200ab
:101dd40029000398fff738fd07b0f0bd4027000045
:020000040000fa
:101de40070b5040016001d00022a1cd043689b062f
:101df40019d4002908d1002d01d18025ed00280037
:101e04000830fff70ff8010020236268a160134334
:101e140063602300e5603433ff22012e00d10a22df
:101e24001a70024be362002070bdc046d117000057
:020000040000fa
:101e340070b5c668856804000a00ae4211d101205d
:101e4400002100f0cbfbc043c943431c03d00b4b20
:101e54001a68104018604b1c03d0084a5368194094
:101e64005160012319006268b56011439a43ee6022
:101e74006160a41822681343236070bd100400201d
:020000040000fa
:101e840010b5064c2378002b07d1054b002b02d04c
:101e9400044800e000bf0123237010bd9806002011
:101ea4000000000000000000044b10b5002b03d01c
:101eb4000349044800e000bf10bdc0460000000014
:081ec4009c0600200000000054
:020000040000fa
:101ecc0010b50a4b98470a4b984700f02afc094b6f
:101edc00ff229343084a9360084b9847084b984756
:101eec00084b9847fff798fafee7c046c718000062
:101efc00c71800000000000000ed00e0e11a00002f
:081f0c00c7180000c71800000f
:020000040000fa
:101f1400bff35f8f62b60c4bc12080001a580b4987
:101f24001140c02212040a431a5040221a6004309d
:101f34001a5807491140c02212020a431a5080223b
:101f440092001a607047c04600e100e0ffff00ff06
:041f5400ff00ffff8c
:020000040000fa
:101f580070b5002818d0002918d000250c4a012493
:101f6800072605e06b00c35a13850135a94209d03d
:101f7800137e2342fcd053683340012bf2d0435ddb
:101f88001385f2e7012070bd0020fce70120fae785
:041f9800001c0042e7
:020000040000fa
:101f9c0041008c46012212068a420bd809093823cb
:101fac001b06c918c30fdb07194340076346da4207
:101fbc0004d27047c10fc9070020704703d13823e2
:101fcc001b06c918704738231b06c9180122d204f6
:041fdc0011437047f6
:020000040000fa
:101fe00030b401256d054c00e54215d85c00e54292
:101ff00012d80c001c436400044314430fd005d2d4
:1020000082428b418041013030bc704790429941ff
:102010008041013030bc7047002030bc7047012047
:0420200030bc704719
:020000040000fa
:1020240070b50d4b5e681b68db0714d50b4b58432a
:10203400094b9b6800280ed00021074c013605e0af
:10204400b51aeb18c9181300884204d9a2689a4239
:10205400f6d89b1af6e770bd10e000e080bb0000e4
:020000040000fa
:10206400030010b51a78202a0dd01100093904296b
:1020740009d900212b2a02d02d2a01d101310133a3
:1020840000200a2404e00133ece760430133801aa2
:102094001a78303a092af8d9002900d1404210bdf3
:020000040000fa
:1020a4000c4a036810b5546a0b4a591e121b91421c
:1020b4000bd9002b05d00c220120084b40421a609a
:1020c40010bd102202600020fae70f221733934359
:1020d4000360f8e728060020efffff7ff8060020e2
:020000040000fa
:1020e40030b401256d054c00e54215d85c00e5428d
:1020f40012d80c001c436400044314430cd005d2d2
:1021040082428b418041404230bc704790429941a9
:0e2114008041404230bc7047002030bc704714
:020000040000fa
:1021220030b401256d054c00e54215d85c00e5424e
:1021320012d80c001c436400044314430cd005d293
:10214200904299418041404230bc704782428b416b
:0e2152008041404230bc7047002030bc7047d6
:020000040000fa
:102160000309013b1800202b07d90a4a934205d8de
:102170000948db08c318043b18787047e0223f2069
:1021800052019342f9d80448db09c318043b18787c
:0c2190001030f2e7ff0100003c1b0000d3
:020000040000fa
:10219c00436870b50400d80510d52569954200d95f
:1021ac0015002a00606900f054fa226963695b1912
:1021bc00551b0022636125611a7070bddb06fcd4cf
:0821cc00200000f033faf8e7ef
:020000040000fa
:1021d4000a4b0b4a1a60d22252429a81c0229202be
:1021e4005a601a00d369002bfcd1044a13680221f7
:1021f4000b431360d369002bfcd17047001c0042d1
:042204000401204071
:020000040000fa
:10220800f0b5050000200a4c4200165d002e02d1f0
:10221800a2185078f0bd296801300f78c0b2b742d3
:1022280003d1a2180131507829600a28ecd9f1e7c6
:04223800602500001d
:020000040000fa
:10223c00f4464a1805d200f075f801d5c0174008cd
:10224c00604701235b05d34206d200f06bf801d541
:10225c000120c0074042604701d10042f5d0d017a1
:04226c00400870476f
:020000040000fa
:10227000f8b5050001262c68344201d000200ee09c
:102280002000fff76dff070000f02ef92868a0423c
:10229000f1d1b043281a3900fff7ccfd0120f8bd79
:020000040000fa
:1022a000084b02001968002901d107491960186814
:1022b000064982188a4201d81a60704701204042bc
:1022c000fbe7c046fc060020f8070020f8090020c4
:020000040000fa
:1022d000f8b5050001276c683c4201d000200de0f4
:1022e0002000fff73dff060000f0fef86b68a342f8
:0e22f000f1d128003100fff79dfd0120f8bd5f
:020000040000fa
:1022fe0070b4012676054c005d00e6420cd8ee4225
:10230e000ad825430543154303d0994204d1904280
:0e231e0002d1012070bc7047002070bc7047d7
:020000040000fa
:10232c004a0010d2520d03231b02ff33d21a0ad4d7
:10233c0052421f3209d4400dc90208430123db0766
:0e234c001843d040704700207047d0177047ec
:020000040000fa
:02235a007047ca
:020000040000fa
:10235c00094b5b8b5b070dd0074b80221a76793ac1
:10236c005a831b7e5b0705d5034b04211a8d1a7efd
:0c237c000a42fbd17047c0460008004236
:020000040000fa
:10238800094b5b8b5b070dd0074b80221a76793a95
:102398005a831b7e5b0705d5034b04211a8d1a7ed1
:0c23a8000a42fbd17047c046001c0042f6
:020000040000fa
:1023b400002380290fdb812901dd83290bd107212b
:1023c400136807338b431900083111601a685b687e
:0a23d4000260436001231800704707
:020000040000fa
:1023de00020000234832d356591e0b4313700423b8
:1023ee004268134005d0102313434360012040423e
:0a23fe0070470364c3631800fae798
:020000040000fa
:10240800f7b5002507000c002e000192019b9e42a3
:1024180001db2800febd62682168380000f03ef844
:0824280001362d180834f1e71c
:020000040000fa
:10243000f7b5002507000c002e000192019b9e427b
:1024400001db2800febd62682168380000f07af8e0
:0824500001362d180834f1e7f4
:020000040000fa
:10245800012370b544689c43651a102d0ad94218a7
:1024680019432b4311605360083203514160100037
:06247800fef748fe70bdf6
:020000040000fa
:02247e007047a5
:020000040000fa
:10248000012802d0022807d07047044b01221a709d
:10249000034b1203da61f7e7fee7c04602070020ac
:0424a00000440041b3
:020000040000fa
:1024a40010b50c000023002809d10300002a06d02f
:1024b40001212000fff7f0fb0028f9d001231800c8
:0224c40010bd49
:020000040000fa
:1024c8000fb407b5054b04aa1b6802ca1868019225
:1024d80000f06af803b008bc04b01847ec07002005
:020000040000fa
:1024e800064b0130c000c258002a05d10200083a44
:1024f800d21819184a60c2507047c046100400200c
:020000040000fa
:102508009d2201000ad002d4013a4900fcd5d20527
:0e251800080a0906494100d3012950417047c5
:020000040000fa
:10252800044b00221a609a60034a5a6004221a6017
:0c2538007047c04610e000e07fbb0000d0
:020000040000fa
:1025440070b50d001400012801d0200070bd2100d9
:0c2554002800fff7fffc0028f9d0f6e794
:020000040000fa
:1025600068076c094c836a9074a07ac00080688800
:0c25700000846c820081286e696c2900d8
:020000040000fa
:10257c0010b50400fff72dff002805d1a368e26811
:0a258c00a36163619b18a36210bdf8
:020000040000fa
:10259800044a137802210b431370537e5bb2002b5d
:0825a800fbdb7047004000421c
:020000040000fa
:1025b00013b50400019201aafef70af86368db066e
:0825c00001d50120404216bdc7
:020000040000fa
:1025c800d0400b1cd1409c46203ad340184352427d
:1025d80063469340184370479140031c90409c46c3
:1025e800203a9340194352426346d34019437047f7
:020000040000fa
:1025f800006810b5002801da002010bdfff74cfe76
:06260800431cfad1f8e7c3
:020000040000fa
:10261000034b00229a601a6801210a431a6070472e
:0426200010e000e0e6
:020000040000fa
:1026240010b500f087f8024b1860586010bdc04622
:04263400e806002094
:020000040000fa
:10263800c36a10b5002b01d0984710bd0068fff79a
:042648007dfffae731
:020000040000fa
:10264c004a424a41802310b55200db00fff7c4fb1d
:02265c0010bdaf
:020000040000fa
:10265e00002310b59a4200d110bdcc5cc454013396
:02266e00f8e78b
:020000040000fa
:1026700003000a7818001a7001310133002af8d1da
:022680007047a1
:020000040000fa
:1026840003010248c018416082607047c8060020f8
:020000040000fa
:10269400494e4600696e66004e414e006e616e0002
:020000040000fa
:1026a40003001218934200d1704719700133f9e7ff
:020000040000fa
:1026b40003001a78002a01d1181a70470133f8e789
:020000040000fa
:1026c40010b5fff7adfffff746fefff744fe10bd60
:020000040000fa
:1026d40010b5fef7fdfa029a039bfef7f9f910bd57
:020000040000fa
:0e26e4000300413b192b01d8202318437047f7
:020000040000fa
:0c26f400014b82225a60704700400041f8
:020000040000fa
:0c2700000138014b5860704710e000e009
:020000040000fa
:0c270c004144433d252e32662000c046ab
:020000040000fa
:0c27180010b50400fff7a8ff200010bd62
:020000040000fa
:0a27240010b50068fff70cff10bdb0
:020000040000fa
:08272e0010b5fff706f910bd1c
:020000040000fa
:08273800004870477007002003
:020000040000fa
:07274000286e756c6c290086
:020000040000fa
:0627480001204042704731
:020000040000fa
:04274e0000207047b0
:020000040000fa
:0427520000207047ac
:020000040000fa
:0427560000207047a8
:020000040000fa
:04275c007047c046bc
:020000040000fa
:04276000002070479e
:020000040000fa
:0200000400807a
:0440000077c700d8a6
:020000040000fa
:0200000400807a
:044004005c00ffff5e
:00000001FF
