:020000040000fa
:10000000f83f002079160000db1000008712000086
:1000100000000000000000000000000000000000e0
:10002000000000000000000000000000cf0a0000f7
:100030000000000000000000cf0a0000a51b000027
:10004000cf0a0000cf0a0000cf0a0000cf0a00004c
:10005000cf0a0000cf0a0000690f0000cf0a00009d
:10006000cf0a00004d070000cf0a0000cf0a0000b1
:10007000cf0a0000cf0a0000cf0a0000cf0a00001c
:10008000cf0a0000cf0a0000cf0a0000cf0a00000c
:10009000cf0a00000000000000000000cf0a0000ae
:1000a000cf0a0000cf0a0000cf0a0000cf0a0000ec
:0800b00000000000cf0a00006f
:020000040000fa
:1000b800f8b5c046f8bc08bc9e4670475916000003
:1000c800f8b5c046f8bc08bc9e467047311600001b
:020000040000fa
:0800d800140900000100000002
:020000040000fa
:1000e0000023f0b506001500afb005910193059906
:1000f0000b78002b00d10fe101235b420a930eab7a
:1001000000240c93802309940b940d930b5d002b1a
:1001100001d0252b2ad1002c06d02200300001f07e
:10012000effb059b1b190593059b1a78252a00d028
:10013000e7e0013302930593022310219c46082730
:10014000059803782b2b1bd025d8202b1bd0232bd5
:100150001dd02a2b2ad001f037fb0b90059b1a7873
:10016000303a092a33d801330593f7e70134cde754
:100170000122099b80180393134309930590dfe73d
:100180000423099a0ee0099b03933b430be0099b70
:1001900003930b4307e02d2bead0302bd9d16246d5
:1001a000099b0393134309930130e7e72b68013060
:1001b0001a1d1b6805902a600b93002b07da099a19
:1001c0005b420392012203990b934a400992099bd7
:1001d000da0702d5022293430993059b1a782e2a47
:1001e0000ed10022581c0a9205905a782a2a28d14a
:1001f000023305932b681a1d1b682a6003930a9328
:1002000005a801f0b3fb059b0700187801f0c2fdbb
:10021000692800d183e035dc632800d1d6e01bdcff
:10022000252800d1dfe0612859d0252306aa1370c4
:10023000029b0593002309930b93013b0a9302331e
:10024000b2e001f0c1fa0a90059b1a78303a092a07
:10025000d6d801330593f7e7642860d06728e4dc3b
:100260002a00390006a801f025fc002800d1a9e0e9
:10027000059b09a95a1c05921b7806aa300001f0bb
:10028000b2fd3de0702800d17de016dc6e2800d183
:1002900091e06f28c9d12b000022390006a800f098
:1002a000e1fc002800d18de0059b06aa013309a9d5
:1002b0003000059300f04aff22e0752840d07828ee
:1002c0004fd07328b1d1802f00d07be0059b2a68e6
:1002d00001330593131d2b601268002364e02a008c
:1002e000390006a801f0e6fb002800d16ae0059b72
:1002f00009a95a1c05921b7806aa300001f073fd6b
:100300002418019b1c19a34200dc74e04f223b4bd4
:100310001a6001235b42019301982fb0f0bd2b00be
:100320000122390006a800f09dfc00284ad0059b58
:1003300006aa013309a93000059300f0f2fcdfe7bb
:100340002b000022390006a800f08cfc002839d0d0
:10035000059b06aa013309a93000059301f01ef898
:10036000cee72b000022390006a800f07bfc002815
:1003700028d0059b5a1c05921b7806aa09a93000b3
:1003800000f09afabce72b000022f02106a800f04a
:1003900069fc002816d0059b079a01330593069b3c
:1003a000134306d1164a163209a9300001f0c8f8e5
:1003b000a6e77823e1e7019b39001a1906a82b006c
:1003c00000f0fbfe059b013305939ae7802ff9d1de
:1003d000059b013305932b681a1d1b682a6006aa2a
:1003e00013700123e0e7802fecd1059b06aa0133af
:1003f00005931070f5e7019479e6c04600070020e8
:04040000481c000094
:020000040000fa
:10040400980600201c00000000000000b806002030
:100414001000000000000000c806002010000000ca
:1004240000000000d80600201000000000000000ba
:10043400680600203000000000000000e8060020ec
:100444000c0000000000000008070020020000006b
:1004540000000000b40600200400000000000000ba
:100464001806002050000000000000000c070020c7
:100474006c00000001000000180700201407002091
:1004840018070020000000002500000008000020dc
:100494000004000000000000000000000000000054
:1004a4000000000000000000000000000000000048
:1004b40000000000eb1d0000000000000000000030
:1004c40000000000000000002312000000000000f3
:1004d4000000000000000000000000000000000018
:1004e40000000000000000200804000000000000dc
:1004f400d8070020200000000100000001000000d7
:1005040003000000000000000000000000000000e4
:100514000000000000000000f4060020f4060020a3
:100524000800000000000000fc0600200400000099
:10053400000000000007002004000000000000008c
:1005440008040020100200000000000078070020ca
:100554006000000001000000010000000300000032
:100564000000000000000000000000000000000087
:100574000000000041130000000000000000000023
:1005840000000000bd1d0000eb1b00000000000087
:100594000000000000000000000000000000000057
:1005a4000000000000000000000000000000000047
:1005b4000000000000000000040700200400000008
:1005c4000000000000000000000000004444444417
:020000040000fa
:1005d400f0b587b0039003a801f014f9002802dafb
:1005e400002007b0f0bd039b1b095d1e202d09d917
:1005f4004f49023b4f4a8b4224d8db08d318043bb3
:100604001d7801352a000120002101f04ffb002450
:1006140043428c4100930194474f00983a687b68a9
:100624001040020001990b401a433fd1039b05a8d7
:100634001033059301f052fb002809d10c223f4be3
:100644001a60cee7db09d318043b1d781135d9e7ce
:100654003b490c68a04206d0059b0400103b05935f
:100664000123103483600125059be2180a602b43a3
:10067400083a083c28c26360002cb1d0200001f085
:100684008df900280bd023686168ab43e31a5a68dc
:10069400aa4352185a606168a94362501c002000a2
:1006a400039901f057fa200008309ae7214a2549b6
:1006b4003c32002831d1584203404b43db0ed65c18
:1006c4002036300001f0a0fa731cdb00fc58083b14
:1006d400fb189c42a0d0272e25dd0235ae4201dc5a
:1006e4003f2e20d101226368039f9343dd1b280022
:1006f400009301f0c7f8864215d1e268a168e319b6
:10070400da60996093609a68d360012217431f608e
:100714005d60009be5506760c1e7434203404b4383
:10072400db0ed65ccde73100200000f057ffb6e7c2
:10073400ff010000e4120000100400200007002064
:080744000804002029e66b0700
:020000040000fa
:10074c00f0b5c64600b5574b9b7d002b17d0554acc
:10075c00137edbb2927d52b2002a13db514a137e18
:10076c00dbb2927dd20702d5db0700d582e04d4a81
:10077c00137edbb2927d520701d55b074bd404bcd0
:10078c009046f0bd5bb2002be8da464b5b8b072240
:10079c001340e3d0444ce38501f044f9414b8422ef
:1007ac001a752c230022e254636a002bd6d03e4ae1
:1007bc00906a9847d2e7bb68f35c0b85936801336a
:1007cc009360936898460b7e23420bd0404509d921
:1007dc004b682b40012beed163469b685b009b5b07
:1007ec000b85ebe7304b9a685b689a42bfd32e4b74
:1007fc0000221a755a602b4a01211175db68002bf7
:10080c00b5d0294a10699847b1e727490a6a89691e
:10081c005200535215e0244a2c23d35c002baed04b
:10082c00214b1a6adb699a42a9d21e4a138d9bb2dc
:10083c00516807220a40012ae7d01b4a116a9269c3
:10084c005354194b1a6a01321a621a6adb699a42ba
:10085c0000d094e7144b00222c215a54da61114a2f
:10086c00583111755b6a002b00d188e70e4a906aeb
:10087c00984784e70c4b1b7d002b00d177e70a4b84
:10088c009a685868074b1b7edb07abd58242a9d20e
:10089c00054b1e68034907259c461f001a000124be
:0c08ac0096e7c0460008004268060020e5
:020000040000fa
:1008b800f0b58fb00d934b680c9006938b680d00c4
:1008c8000793cb6816000393069b0f68002b44db45
:1008d80002239f4310233b400a93079b04930a9be0
:1008e800002b07d0726833681343079a02d01300ad
:1008f800023b049308233b400b935a1e9341049aee
:10090800d31a04933368039a0893736809932b697d
:100918005c1e00231355069b0593012c20dc0a9bc3
:10092800002b52d10b9b002b03d02023039a013cb0
:1009380013552b6900975a1e039b121b19190c9803
:10094800079b00f089fb0c9b5b68db0503d56b6894
:10095800984200da18000fb0f0bd01230693b9e7fa
:10096800089b099a13430cd1059b002b09dc069ab6
:10097800049b9b1a059a9b18002bd0dd02231f426b
:10098800cdd00f22089b013c134018005730092b8b
:1009980001dc303318000d9b413b192b06d820236e
:1009a8000343613b192b01d801f0f7f9039b185554
:1009b800059b013b0593099b1a07089b1b091a43d2
:1009c800099b08921b090993a7e70cce1343a9d0ea
:1009d800039b0d9a1b19013b1a703023039a023ca2
:0409e80013559fe71d
:020000040000fa
:1009ec00f0b5060085b00f0015001c008b4265d8d1
:1009fc0001d1824262d82100280001f05ff9390050
:100a0c000090300001f05af9009b21001b1a1a00cb
:100a1c002800039301f046f900900191019bbb4221
:100a2c0046d802d1009bb34242d8009b019c039a4a
:100a3c0001200021f61aa74101f034f9039b002b89
:100a4c002fd0019b009adb0754081c43019b5d08c7
:100a5c00039b9c46bd422ed801d1b4422bd8320008
:100a6c003b00121bab41012692185b410027b618c4
:100a7c005f4101235b429c446346002bead1801901
:100a8c007941039a04000d003000390001f0fef8a2
:100a9c00039a06000f0001f005f9241a8d4120007d
:100aac0029000a9b002b01d01e605f6005b0f0bdd1
:100abc0000200021c2e7b6197f41dae700200021af
:020acc00efe752
:020000040000fa
:020ace00fee741
:020000040000fa
:100ad000f7b5002858d00838436801221e00964315
:100ae00085192a680400934200d0ffde01276b6855
:100af000226813403b420ed1200000f051ff002835
:100b000043d1280000f07cff0028f0d06b68bb4385
:100b1000f618ed18ebe73b003343636030002b60c1
:100b200000f0b2fe019001f071f86b68226813408a
:100b30003b42e1d0184b019a1868596801f0acf8b3
:100b4000384212d1019a0120002101f0b1f80b00c6
:100b5000002804d0104a126802430f480260002b9c
:100b600003d00d4a53680b435360019b0a4a01337b
:100b7000db00d3181a005b68083a66602e60e360f9
:100b8000a260d460e3689c60f7bd2368bb43e41aad
:0c0b90006368bb43f618b4e710040020b3
:020000040000fa
:100b9c00f0b52e4e3f25745de4b2705506012c4d18
:100bac00ad192d7b002d05d0284e4e25765d0025e8
:100bbc00b6073bd0254e4e25032777550501244e0d
:100bcc007619023f3773234ead5b6d0533d5c918cb
:100bdc000601204dad19696001011e4d495b0905e7
:100bec002ed5d21805011b4949198a6019490501ee
:100bfc006a5a9205920fd3409bb249194b80134a03
:100c0c004021535c02252b435354516c536c9b0471
:100c1c009b0e08220a4013430125002b06d10b4ad8
:100c2c001169012383400b4313610125074a3f23bc
:100c3c00d4542800f0bd0601064dad196960cbe710
:100c4c000501044949198a60d0e7c04600480041b3
:080c5c00c8060020b8060020c4
:020000040000fa
:100c640010b588293cd015dc81294dd003dc8029be
:100c74004ad0002010bd822911d08429f9d11968e5
:100c8400002a26d00a1d1a6000228b5e0360db173f
:100c9400436011e0a02930d010dc9029e9d1196813
:100ca4000724002a2ed00919a1430a0008321a6029
:100cb4000b684c68036044600120dbe7c02901d065
:100cc400f029d6d11a68111d196013680360002336
:100cd400dee70c1d1c600b689bb203604260ebe70f
:100ce4001968002a04d00a1d1a600023cb56cde7e8
:100cf4000c1d1c600b68dbb2efe71a68111d19604c
:100d04001368c3e70731cfe71968002a03d00a1d27
:0e0d14001a600b68bae70c1d1c600b68dde767
:020000040000fa
:100d2200f0b54b6889b005930b6807009c460793a2
:100d3200cb680c008e68049310685168cd0f44d0c4
:100d42000b000200002150429941059b002b08db59
:100d52000222634693430793002d02d1079b5a0751
:100d62002ad5731e07aa02920a22009301920b004f
:100d72000200200000f0b8f8002d02d1079b5a07ac
:100d82001ed501382d23002d00d1023b049a1354a5
:100d920023695a1e049b121a1918079b38000093e4
:100da200330000f05cf97b68db0503d56368984289
:100db20000da180009b0f0bd1b07db0ff31ad1e708
:100dc2001b07e5d501382023e0e7059b002bbfda9e
:020dd200c4e774
:020000040000fa
:100dd4001c4b00229a619a8c80218a439a841a00bf
:100de4001023d1680b42fcd0174b1b689b0e3f2b82
:100df40025d09b02802292001343124a936210234f
:100e0400d1680b42fcd00f4b02229a841a001023a3
:100e1400d1680b42fcd00d4b0d4a5a601a0053782e
:100e24005bb2002bfbdb094b0a4a5a800a4a5a8000
:100e34000a4b0b4a1a62034b00221a627047203b8a
:100e4400d7e7c0460008004024608000000c004042
:100e54000007010014400000194000000004004095
:040e64008400010005
:020000040000fa
:100e6800f0b51600050002278369426987b002932e
:100e7800d31a03939b1904910596019302ac3a0087
:100e88002100286800f050fe019b984208d1ab6809
:100e9800ea68ab619a18aa626b61300007b0f0bdce
:100ea80000280cda102200236968ab620a43ab61a0
:100eb8006b616a60022f12d06368f61aede7019b36
:100ec8001b1a01936368984202d9c01a0834013f7b
:100ed80023681b1823606368181a6060cfe71e0038
:020ee800dbe746
:020000040000fa
:100eea00f0b5050085b019000c9b100001931a6833
:100efa002b696c68013bef681d00002c00da0124a5
:100f0a000026fe540a9e0123361b0296022616402c
:100f1a000b9ad2170392002d04dc002b17d028005d
:100f2a0005b0f0bd02000a4307d1002c05dc029a85
:100f3a001219002af1dd002eefd00b9a039b00f064
:100f4a007efc013d130030327a55013ce3e7102361
:0e0f5a00019a12689a431300019a1360dfe7b0
:020000040000fa
:100f680030b583b0002301931a4a118c0f330b401c
:100f78003f21545ce4b253540f31525cd2b2019217
:100f8800019a0220920708d512494e228854190165
:100f9800114a5218002111730138019ad20709d554
:100fa8000c494e220120885419010b4a521800217d
:100fb800117301301901084a52185568002d03d0e1
:100fc800054a53189968a847024a3f23d45403b0e6
:0c0fd80030bdc04600480041c8060020a3
:020000040000fa
:100fe400f8b5846a05000f001600002c0ad0ab6a1d
:100ff4006a699b1ab3420cd2320039002800fff709
:1010040031ff05e000f02cfe03002000002beed0a1
:10101400f8bd002ef0d02b0034331b785bb2002bcc
:101024001adb3400dbb2621eb95c994212d1220091
:1010340039002800fff716ffa042e9d33f19341bfb
:1010440022003900686900f072fe6b6930001c19d7
:0c1054006c61dde7141ee6d13400f1e70a
:020000040000fa
:10106000f0b51d00012389b014000e9a06001a4045
:101070000391029201d1a5420ad8220003993000bf
:1010800000f03efca54203d82500280009b0f0bdc1
:101090002f1b01973a00102f00d91022202104a8fd
:1010a00000f060fe019b0f2b0ed80f2204a93a40de
:1010b000300000f025fc029b002be6d122000399b2
:1010c000300000f01dfce0e7102204a9300000f021
:0a10d00017fc019b103b0193e4e7bd
:020000040000fa
:0210da00fee72f
:020000040000fa
:1010dc000021f0b5174b184a934208d30027174a42
:1010ec0013685168002b05d1002903d1f0bd19708c
:1010fc000133f1e7100095680c305c18002d16d008
:10110c000b25ed1a5219a3420ad10b0003221340ee
:10111c005a1e934189085918890040180200dfe7cc
:10112c005d1cae5c1e702b00ede71f700133a342fb
:10113c00fbd1f3e7000000200000002004040000b5
:020000040000fa
:10114c00f0b50b680c008f68cd68496887b0060055
:10115c000593002902db02218b43059305a95368f3
:10116c00126802910821009701912000fff7b7fe49
:10117c00059bdb0602d5302301382b54059b1b073e
:10118c0002d5202301382b54236929185a1e059b9c
:10119c00121a009330003b00fff75cff7368db050d
:0e11ac0003d56368984200da180007b0f0bd62
:020000040000fa
:1011ba0010b584291fd007dc812915d0822922d0b5
:1011ca00802911d0002010bd90291cd008dc882964
:1011da00f8d119680c1d1c600b6803601a7010e0c6
:1011ea00a02901d0c029edd119680c1d1c600b681b
:1011fa0003601a6005e019680c1d1c600b68036027
:10120a001a800120dfe719680c1d1c600b68036057
:08121a001a60d2175a60f4e7d4
:020000040000fa
:101222007fb51600c2680d0013000091591e8b4154
:10123200f31a01938368040003926946022200684c
:10124200029300f060fc002808dc18220823024008
:101252005340626813436360060010e0019b8342bf
:10126200fad2a268c01ae3681018e2632064002b65
:1012720005d0531ce3631378ad19013d2b70300088
:0412820004b070bd87
:020000040000fa
:02128600fee781
:020000040000fa
:1012880000230e4a10b513600d4a13600d4a13600f
:101298000d4a13600d4a13600d4a536213610133fe
:1012a800936000f06bfd00f0befb0a4c0a4b9c42b9
:1012b80000d310bd08cc9847f8e7c046fc060020cc
:1012c8002406002020060020180600201c06002006
:0c12d80028060020c4000000c800000030
:020000040000fa
:1012e40020212223242425252626272728282828a8
:1012f400292929292a2a2a2a2b2b2b2b2c2c2c2c42
:101304002c2c2c2c2d2d2d2d2d2d2d2d2e2e2e2e09
:101314002e2e2e2e2f2f2f2f2f2f2f2f000117027f
:101324001d1813031e1b190b1408040d1f161c1281
:0c1334001a0a070c1511090610050f0e0f
:020000040000fa
:1013400070b504000d00002801d1002070bd436875
:101350009b0607d543698269934215d80023a3628f
:10136000a3616361e16b236c994204d2c91a012223
:10137000206800f03ffd00232364e3639d42e4d036
:10138000206800f02dfde1e70022c36a11009847b4
:0c1390006369002be2d101204042d7e746
:020000040000fa
:10139c00f0b50b680c008f68cd68496887b0060003
:1013ac000593002902db02218b43059305a95368a1
:1013bc00126802910a21009701912000fff78ffd1e
:1013cc00236929185a1e059b121a009330003b0002
:1013dc00fff740fe7368db0503d56368984200dabb
:0613ec00180007b0f0bd7f
:020000040000fa
:0213f200704742
:020000040000fa
:1013f40010b50e4a00215160916011730c480d4bd9
:1014040058630d4c9c630d4c5c613f2419550131ac
:10141400ff3159640a21ff3101800939ff39117004
:101424004d2202319954064a1a8010bdc806002084
:10143400b806002000480041d8060020818181813f
:04144400020f000093
:020000040000fa
:10144800114b124a1a60d22252429a81c022920249
:101458005a601a00d369002bfcd10b4a1368022189
:101468000b431360d369002bfcd1094b00229a610e
:10147800da611a622c215a545a621a605a609a60c8
:101488001a75da60da8570470008004204012040c6
:0414980068060020c2
:020000040000fa
:10149c00f8b505000c000020002d20d000f0d8fa83
:1014ac00002c17d000200e4a0421072605e0178dca
:1014bc004300ef52013084420dd0137e0b42fcd01e
:1014cc00538b334207d153683340012befd0138d2c
:1014dc002b54efe72000201a44426041c0b2f8bd03
:0414ec00001c00429e
:020000040000fa
:1014f00010b5104b06225a600f4b1b68186800216c
:1015000000f00efc0d4b1b681868002100f008fc71
:1015100000f01af9fff75efc00f04afcfff794ffb9
:1015200000f02efbfff766ff00f006fa00f0c8f8a7
:1015300010bdc0460040004110070020f407002005
:020000040000fa
:10154000f0b50f0087b0039015001049072204a8da
:101550001c0000f0eefbbb687e6802933f68002d24
:1015600000d104ad002c03d1280000f003fc0400de
:10157000002e02dbb44200d934000097029b220007
:1015800029000398fff76cfd07b0f0bdd81d0000df
:020000040000fa
:1015900070b5040016001d00022a1cd043689b068b
:1015a00019d4002908d1002d01d18025ed00280093
:1015b0000830fff70ff8010020236268a160134391
:1015c00063602300e5603433ff22012e00d10a223c
:1015d0001a70024be362002070bdc046e50f0000a8
:020000040000fa
:1015e00070b5c668856804000a00ae4211d10120ba
:1015f000002100f05dfbc043c943431c03d00b4beb
:101600001a68104018604b1c03d0084a53681940f0
:101610005160012319006268b56011439a43ee607e
:101620006160a41822681343236070bd1004002079
:020000040000fa
:1016300010b5064c2378002b07d1054b002b02d0a8
:10164000044800e000bf0123237010bd980600206d
:101650000000000000000000044b10b5002b03d078
:101660000349044800e000bf10bdc0460000000070
:081670009c06002000000000b0
:020000040000fa
:1016780010b50a4b98470a4b984700f0a0fb094b56
:10168800ff229343084a9360084b9847084b9847b2
:10169800084b984700f0f4f9fee7c046f313000042
:1016a800f31300000000000000ed00e089120000c4
:0816b800f3130000f31300001e
:020000040000fa
:1016c000bff35f8f62b60c4bc12080001a580b49e4
:1016d0001140c02212040a431a5040221a600430fa
:1016e0001a5807491140c02212020a431a50802298
:1016f00092001a607047c04600e100e0ffff00ff63
:04170000ff00ffffe8
:020000040000fa
:1017040070b5002818d0002918d000250c4a0124ef
:10171400072605e06b00c35a13850135a94209d099
:10172400137e2342fcd053683340012bf2d0435d37
:101734001385f2e7012070bd0020fce70120fae7e1
:04174400001c004243
:020000040000fa
:101748000e4b802252011a60012248215a5402315c
:101758005a5448394c2019540a301a54223819540a
:101768000130195434310020585433393b3019545e
:101778009b301a54ba3299547047c046004400410d
:020000040000fa
:1017880010b5012802d0022810d010bd084c022341
:10179800220008490020fff7fdf92188064800f0db
:1017a80021fa064b80225201da61eee7fee7c046d5
:1017b8000807002028080042541d0000004400418a
:020000040000fa
:1017c800030010b51a78202a0dd011000939042910
:1017d80009d900212b2a02d02d2a01d10131013348
:1017e80000200a2404e00133ece760430133801a47
:1017f8001a78303a092af8d9002900d1404210bd98
:020000040000fa
:101808000c4a036810b5546a0b4a591e121b9142c0
:101818000bd9002b05d00c220120084b40421a603e
:1018280010bd102202600020fae70f2217339343fd
:101838000360f8e728060020efffff7f000700207d
:020000040000fa
:10184800002b11d1002a0fd1002900d1002802d085
:101858000021c943081c07b4024802a1401802909d
:1018680003bdc0468505000003b4684601b502986b
:10187800fff7b8f8019b9e4602b00cbc7047c04603
:020000040000fa
:101888000309013b1800202b07d90a4a934205d8bf
:101898000948db08c318043b18787047e0223f204a
:1018a80052019342f9d80448db09c318043b18785d
:0c18b8001030f2e7ff010000e412000015
:020000040000fa
:1018c4001c2101231b04984201d3000c10391b0a6c
:1018d400984201d3000a08391b09984201d3000930
:1018e400043902a2105c40187047c0460403020287
:0c18f400010101010000000000000000e4
:020000040000fa
:10190000436870b50400d80510d52569954200d903
:1019100015002a00606900f00cfa226963695b19fe
:10192000551b0022636125611a7070bddb06fcd473
:08193000200000f0ebf9f8e7dc
:020000040000fa
:101938000a4b0b4a1a60d22252429a81c022920262
:101948005a601a00d369002bfcd1044a136802219b
:101958000b431360d369002bfcd17047001c004275
:041968000401204016
:020000040000fa
:10196c00f0b5050000200a4c4200165d002e02d195
:10197c00a2185078f0bd296801300f78c0b2b74278
:10198c0003d1a2180131507829600a28ecd9f1e76b
:04199c00481c0000e3
:020000040000fa
:1019a000f8b5050001262c68344201d000200ee075
:1019b0002000fff769ff070000f028f92868a0421f
:1019c000f1d1b043281a3900fff70afe0120f8bd13
:020000040000fa
:1019d000084b02001968002901d1074919601868ed
:1019e000064982188a4201d81a6070470120404295
:1019f000fbe7c0460407002000080020000a002082
:020000040000fa
:101a0000f8b5050001276c683c4201d000200de0cc
:101a10002000fff739ff060000f0f8f86b68a342da
:0e1a2000f1d128003100fff7dbfd0120f8bdf9
:020000040000fa
:021a2e007047ff
:020000040000fa
:101a3000094b5b8b5b070dd0074b80221a76793af6
:101a40005a831b7e5b0705d5034b04211a8d1a7e32
:0c1a50000a42fbd17047c046000800426b
:020000040000fa
:101a5c00094b5b8b5b070dd0074b80221a76793aca
:101a6c005a831b7e5b0705d5034b04211a8d1a7e06
:0c1a7c000a42fbd17047c046001c00422b
:020000040000fa
:101a880010b50020fff730fd00220549002000f0c6
:101a980055f90223034a04490020fff77bf8fee7c3
:0c1aa800891700000807002028080042f1
:020000040000fa
:101ab400002380290fdb812901dd83290bd1072134
:101ac400136807338b431900083111601a685b6887
:0a1ad4000260436001231800704710
:020000040000fa
:101ade00020000234832d356591e0b4313700423c1
:101aee004268134005d01023134343600120404247
:0a1afe0070470364c3631800fae7a1
:020000040000fa
:101b0800f7b5002507000c002e000192019b9e42ac
:101b180001db2800febd62682168380000f050f83b
:081b280001362d180834f1e725
:020000040000fa
:101b3000f7b5002507000c002e000192019b9e4284
:101b400001db2800febd62682168380000f06ef8f5
:081b500001362d180834f1e7fd
:020000040000fa
:101b5800012370b544689c43651a102d0ad94218b0
:101b680019432b4311605360083203514160100040
:061b7800fef7aaff70bd9c
:020000040000fa
:021b7e007047ae
:020000040000fa
:101b8000054a0023136093600449516006211160e7
:101b9000034a93601360704710e000e07fbb0000d1
:041ba000e806002033
:020000040000fa
:101ba40010b5064b1b68064b9a6801329a601b6895
:101bb400002b02d0024a5068984710bd10e000e0a4
:041bc400e80600200f
:020000040000fa
:101bc80010b50c000023002809d10300002a06d014
:101bd80001212000fff75efc0028f9d0012318003e
:021be80010bd2e
:020000040000fa
:021bea00704742
:020000040000fa
:101bec000fb407b5054b04aa1b6802ca186801920a
:101bfc0000f03ff803b008bc04b01847f40700200d
:020000040000fa
:101c0c00064b0130c000c258002a05d10200083a28
:101c1c00d21819184a60c2507047c04610040020f0
:020000040000fa
:101c2c0070b50d001400012801d0200070bd2100fa
:0c1c3c002800fff761fd0028f9d0f6e752
:020000040000fa
:101c480068076c094c836a9074a07ac00080688821
:0c1c580000846c820081286e696c2900f9
:020000040000fa
:101c640010b50400fff739ff002805d1a368e26826
:0a1c7400a36163619b18a36210bd19
:020000040000fa
:101c7e0013b50400019201aafef72bfa6368db0686
:081c8e0001d50120404216bd02
:020000040000fa
:101c9800d0400b1cd1409c46203ad34018435242b6
:101ca80063469340184370479140031c90409c46fc
:101cb800203a9340194352426346d3401943704730
:101cc80010b5002903d1fff7f9fd203002e0081c08
:081cd800fff7f4fd10bdc0464a
:020000040000fa
:101ce000006810b5002801da002010bdfff770fe73
:061cf000431cfad1f8e7e5
:020000040000fa
:101cf80010b500f069f8024b1860586010bdc04676
:041d0800f4060020bd
:020000040000fa
:101d0c00c36a10b5002b01d0984710bd0068fff7cf
:041d1c0087fffae75c
:020000040000fa
:101d20004a424a41802310b55200db00fff730fce5
:021d300010bde4
:020000040000fa
:101d3200002310b59a4200d110bdcc5cc4540133cb
:021d4200f8e7c0
:020000040000fa
:101d440003010248c018416082607047c806002041
:020000040000fa
:101d54004144432052455455524e203d20256400b1
:020000040000fa
:101d640003001218934200d1704719700133f9e748
:020000040000fa
:101d740003001a78002a01d1181a70470133f8e7d2
:020000040000fa
:101d840010b5fff7b7fffff7f8fefff7f6fe10bd3b
:020000040000fa
:0e1d94000300413b192b01d820231843704750
:020000040000fa
:0e1da2000300613b192b01d85f2318407047e6
:020000040000fa
:0c1db000014b82225a6070470040004145
:020000040000fa
:0a1dbc0010b50068fff734ff10bdfa
:020000040000fa
:081dc60010b5fff788f910bd0c
:020000040000fa
:081dd00000487047780700206d
:020000040000fa
:071dd800286e756c6c2900f8
:020000040000fa
:061de000012040427047a3
:020000040000fa
:041de6000020704722
:020000040000fa
:041dea00002070471e
:020000040000fa
:041df0007047c04632
:020000040000fa
:041df4000020704714
:020000040000fa
:0200000400807a
:0440000077c700d8a6
:020000040000fa
:0200000400807a
:044004005c00ffff5e
:00000001FF
