:020000040000fa
:10000000f03f002055060000c7080000c9080000a6
:1000100000000000000000000000000000000000e0
:10002000000000000000000000000000c508000003
:100030000000000000000000c5080000fd070000ef
:10004000c5080000c5080000c5080000c50800007c
:10005000c5080000c5080000c5080000c50800006c
:10006000c5080000c5080000c508000045020000e2
:10007000c5080000c5080000d9000000c508000040
:10008000c5080000c5080000c5080000c50800003c
:10009000c50800000000000000000000c5080000c6
:1000a000c5080000c5080000c5080000c50800001c
:0800b00000000000c50800007b
:020000040000fa
:1000b800f8b5c046f8bc08bc9e4670473506000037
:1000c800f8b5c046f8bc08bc9e4670470d0600004f
:020000040000fa
:1000d800f0b5c64600b5574b9b7d002b17d0554a47
:1000e800137edbb2927d52b2002a13db514a137e93
:1000f800dbb2927dd20702d5db0700d582e04d4afc
:10010800137edbb2927d520701d55b074bd404bc4a
:100118009046f0bd5bb2002be8da464b5b8b0722ba
:100128001340e3d0444ce38500f026fb414b842286
:100138001a752c230022e254636a002bd6d03e4a5b
:10014800906a9847d2e7bb68f35c0b8593680133e4
:100158009360936898460b7e23420bd0404509d99b
:100168004b682b40012beed163469b685b009b5b81
:100178000b85ebe7304b9a685b689a42bfd32e4bee
:1001880000221a755a602b4a01211175db68002b71
:10019800b5d0294a10699847b1e727490a6a896999
:1001a8005200535215e0244a2c23d35c002baed0c6
:1001b800214b1a6adb699a42a9d21e4a138d9bb257
:1001c800516807220a40012ae7d01b4a116a92693e
:1001d8005354194b1a6a01321a621a6adb699a4235
:1001e80000d094e7144b00222c215a54da61114aaa
:1001f800583111755b6a002b00d188e70e4a906a66
:10020800984784e70c4b1b7d002b00d177e70a4bfe
:100218009a685868074b1b7edb07abd58242a9d288
:10022800054b1e68034907259c461f001a00012438
:0c02380096e7c046001c00425000002069
:020000040000fa
:1002440070b5364b1c7ee4b29b7d23423ad0a307a3
:1002540013d5334a012313709370304b5b8bdb0649
:10026400db0f53705368002b1ad091680120984714
:10027400002828d0002000f041f9630710d5284b4e
:100284005d68002d0cd000f0f5fa002823d1244b32
:1002940099680230a847002819d0002000f02ef9f0
:1002a400e3070cd51e4b00221a705b68002b03d0a9
:1002b4001b4a916804209847184b01221a7664b2ad
:1002c400002c1edb70bd012000f018f9d5e70120d9
:1002d40000f014f9e4e700f0d5fa002803d0104b3d
:1002e4009b78002b09d00e4eb1680320a847002349
:1002f400b370022000f002f9d2e7032000f0fef808
:10030400cee7074b5b68002b03d0054a91680520b4
:100314009847024b80221a76d4e7c0460010004268
:040324009c00002019
:020000040000fa
:100328001c4b00229a619a8c80218a439a841a0075
:100338001023d1680b42fcd0174b1b689b0e3f2b38
:1003480025d09b02802292001343124a9362102305
:10035800d1680b42fcd00f4b02229a841a0010235a
:10036800d1680b42fcd00d4b0d4a5a601a005378e5
:100378005bb2002bfbdb094b0a4a5a800a4a5a80b7
:100388000a4b0b4a1a62034b00221a627047203b41
:10039800d7e7c0460008004024608000000c0040f9
:1003a800000701001640000019400000000400404a
:0403b80090000100b0
:020000040000fa
:1003bc0070b500282fd0194b1a7d0023002a26d1a6
:1003cc00164b1860596001321a75154b1b7edb07f2
:1003dc0016d500291dd00023114c0726012507e056
:1003ec00c25c22850133227e2a420ad0994208d966
:1003fc0062683240012af3d15a00825a2285f1e711
:10040c000023064a9360064b01229a7501231800bb
:10041c0070bd0b00f5e70023f9e7c0465000002043
:04042c00001c00426e
:020000040000fa
:100430000021f0b5174b184a934208d30027174afa
:1004400013685168002b05d1002903d1f0bd197044
:100450000133f1e7100095680c305c18002d16d0c0
:100460000b25ed1a5219a3420ad10b0003221340a7
:100470005a1e934189085918890040180200dfe785
:100480005d1cae5c1e702b00ede71f700133a342b4
:10049000fbd1f3e70000002000000020a0040000d2
:020000040000fa
:1004a000800000201c000000000000009c000020d4
:1004b0000c00000000000000500000203000000090
:1004c00000000000a80000200c0000000000000058
:1004d000b400002004000000000000000000002024
:1004e0005000000000000000b800002004000000e0
:1004f00000000000000000000000000044444444ec
:020000040000fa
:10050000002808d112494b68124a1a40c0239b02a6
:1005100013434b60704701280cd0022811d00328e8
:10052000f8d10b494b680c4a1a4080239b021343b5
:100530004b60efe7064a5168e023db020b43536050
:10054000e8e7034a5168c0239b020b435360e1e78d
:0c05500000100042fffff8fffffffcff5f
:020000040000fa
:10055c0000230e4a10b513600d4a13600d4a136048
:10056c000d4a13600d4a13600d4a53621361013337
:10057c00936000f0a5f900f0a3f90a4c0a4b9c42d9
:10058c0000d310bd08cc9847f8e7c046b80000204f
:10059c000c000020080000200000002004000020b7
:0c05ac0010000020c4000000c800000087
:020000040000fa
:1005b800114b124a1a60d22252429a81c0229202e8
:1005c8005a601a00d369002bfcd10b4a1368022128
:1005d8000b431360d369002bfcd1094b00229a61ad
:1005e800da611a622c215a545a621a605a609a6067
:1005f8001a75da60da857047001c00420401104061
:04060800500000207e
:020000040000fa
:10060c0010b5064c2378002b07d1054b002b02d0dc
:10061c00044800e000bf0123237010bd80000020bf
:10062c000000000000000000044b10b5002b03d0ac
:10063c000349044800e000bf10bdc04600000000a4
:08064c00840000200000000002
:020000040000fa
:1006540010b50a4b98470a4b984700f02df9094bff
:10066400ff229343084a9360084b9847084b9847e6
:10067400084b984700f050f8fee7c046cb0800004e
:10068400cb0800000000000000ed00e05d05000064
:08069400cb080000cb080000b8
:020000040000fa
:10069c00bff35f8f62b60c4bc22080001a58120257
:1006ac00120ac02109060a431a50802212011a604c
:1006bc0004301a5805491140c02212040a431a503a
:1006cc008022d2011a60704700e100e0ffff00ffba
:020000040000fa
:1006dc000d4b01221a601a00d369002bfcd10a4b76
:1006ec000a4a1a601a00d369002bfcd1064ba822c7
:1006fc005a62213a9a751a6802210a431a601a0042
:10070c00d369002bfcd17047001000421000100080
:020000040000fa
:10071c0010b582b0002000f043f800f09df80848b6
:10072c0000f0c0f80021074800f0b6f86b46dc1d5d
:10073c0000f070f8207001212000fff739fef7e778
:08074c0010270000390800002d
:020000040000fa
:10075400094bc02292011a6101224c215a540131e1
:100764005a5409315a5401315a543532353999544d
:0c077400053211319954704700440041d7
:020000040000fa
:10078000094b5b8b5b070dd0074b80221a76793ab9
:100790005a831b7e5b0705d5034b04211a8d1a7ef5
:0c07a0000a42fbd17047c046001c00421a
:020000040000fa
:1007ac0010b5094b06225a60fff7cefffff7b6fdd6
:1007bc0000f06cf8fff78cff00f008f8fff7f6fe7e
:0c07cc00fff766ff10bdc0460040004172
:020000040000fa
:1007d800054a0023136093600449516006211160a3
:1007e800034a93601360704710e000e07fbb00008d
:0407f800a800002035
:020000040000fa
:1007fc0010b5064b1b68064b9a6801329a601b6851
:10080c00002b02d0024a5068984710bd10e000e05f
:04081c00a800002010
:020000040000fa
:10082000044ad369002bfcd1024a2833d05cc0b201
:080830007047c04600100042b1
:020000040000fa
:1008380010b500f009f8034b9c466044431e9841ec
:08084800c0b210bdbdfdffffb1
:020000040000fa
:10085000024a508b024b53831840704700100042ed
:04086000430200004f
:020000040000fa
:10086400034b00229a601a6801210a431a607047f8
:0408740010e000e0b0
:020000040000fa
:10087800024b588b0007c00f7047c046001000425b
:020000040000fa
:10088800024b588b4007c00f7047c046001000420b
:020000040000fa
:0c089800014b82225a6070470040004172
:020000040000fa
:0c08a400014b5860996070479c000020d8
:020000040000fa
:0c08b0000138014b5860704710e000e078
:020000040000fa
:0808bc0010b5fff7b7fd10bdf8
:020000040000fa
:0208c400fee74d
:020000040000fa
:0208c600fee74b
:020000040000fa
:0208c800fee749
:020000040000fa
:0208ca00704775
:020000040000fa
:0208cc00704773
:020000040000fa
:0200000400807a
:0440000077c700d8a6
:020000040000fa
:0200000400807a
:044004005c00ffff5e
:00000001FF
