:020000040000fa
:10000000f03f002021080000f3090000f50900007e
:1000100000000000000000000000000000000000e0
:10002000000000000000000000000000f1090000d6
:100030000000000000000000f10900007d09000040
:10004000f1090000f1090000f1090000f1090000c8
:10005000f1090000f1090000f1090000f1090000b8
:10006000f1090000d9000000f1090000f1090000c9
:10007000f1090000f109000045020000f10900004b
:10008000f1090000f1090000f1090000f109000088
:10009000f10900000000000000000000f10900006c
:1000a000f1090000f1090000f1090000f109000068
:0800b00000000000f10900004e
:020000040000fa
:1000b800f8b5c046f8bc08bc9e4670470108000069
:1000c800f8b5c046f8bc08bc9e467047d907000082
:020000040000fa
:1000d80010b5564b9b7d002b53d0544a51680723cb
:1000e8000b40127e52075bd5504a906a50494a69c4
:1000f800c9688a4254d2002b44d14d4b5968885460
:1001080001325a61494b1b7edb0718d5474b012248
:100118001a75474a93699268934258d2444a1168bb
:10012800c85c4249886201339361414b9a699b6874
:100138009a4262d03e4b5a69db689a4269d03b4b7f
:100148001b7e9b0716d53b4b1b78002b19d0384bd1
:100158005a69db689a4211d1354b00221a77334924
:100168000720087533490a701b6a002b09d0304aea
:10017800506a98472f4b1b78002b02d02b4b02223a
:100188009a7510bd2a4b51005c68085301325a61b8
:10019800264b1b7edb07d2d5244b01221a7508e0bb
:1001a800224a127ed207cad5204a01211175002b96
:1001b800afd01f4a93699268934213d21c4a5900e0
:1001c8001068085a1949886201339361ade7184be2
:1001d8001b69002b23d0154aff219162013b144a69
:1001e8001361a2e7124b1b69002b18d00f4a124962
:1001f8009162013b0e4a136197e70d4b1b69002b77
:1002080098d10c4b01221a70084b1b7e9b079ed479
:10021800b4e7064b01229a7503321a758fe7044b2f
:100228009a699b689a4200d084e7eae7000800428e
:0c02380080000020dc000020ffff000020
:020000040000fa
:10024400f0b5c64600b5574b9b7d002b17d0554ad9
:10025400137edbb2927d52b2002a13db514a137e25
:10026400dbb2927dd20702d5db0700d582e04d4a8e
:10027400137edbb2927d520701d55b074bd404bcdd
:100284009046f0bd5bb2002be8da464b5b8b07224d
:100294001340e3d0444ce38500f042fb414b8422fd
:1002a4001a752c230022e254636a002bd6d03e4aee
:1002b400906a9847d2e7bb68f35c0b859368013377
:1002c4009360936898460b7e23420bd0404509d92e
:1002d4004b682b40012beed163469b685b009b5b14
:1002e4000b85ebe7304b9a685b689a42bfd32e4b81
:1002f40000221a755a602b4a01211175db68002b04
:10030400b5d0294a10699847b1e727490a6a89692b
:100314005200535215e0244a2c23d35c002baed058
:10032400214b1a6adb699a42a9d21e4a138d9bb2e9
:10033400516807220a40012ae7d01b4a116a9269d0
:100344005354194b1a6a01321a621a6adb699a42c7
:1003540000d094e7144b00222c215a54da61114a3c
:10036400583111755b6a002b00d188e70e4a906af8
:10037400984784e70c4b1b7d002b00d177e70a4b91
:100384009a685868074b1b7edb07abd58242a9d21b
:10039400054b1e68034907259c461f001a000124cb
:0c03a40096e7c046001c004250000020fc
:020000040000fa
:1003b00070b5060000294fd000284dd04648007f78
:1003c000002800d085e0454c656807242c40012cae
:1003d00049d0414806604260002444618461046160
:1003e0003000441ea041404201403b488160501e05
:1003f000824152421a403848c2600124047737488b
:10040000007e400705d5354c0420a56a257e0542af
:10041000fbd13248448b04252c434483047e802541
:100420002c4304768a4202d9501a2b4c20612b4867
:10043000406840072bd1284a92698a421cd2307802
:1004400026498862013224498a61002b3cd0234b23
:1004500004229a7501203de00020002b3ad0002aaa
:10046000acd1002036e0002901d0cc0732d4002bdb
:10047000afd0dc07add52de0174a1269002ae4d0d1
:100480001649ff208862013a13490a61dde74908ed
:10049000114881600469640804615208c26082697d
:1004a000914208d93188c905c90d0c4881620132d1
:1004b00009498a61c9e7002cc7d0084a08499162f6
:1004c000013c054a1461c0e7044b01229a750120e2
:1004d00000e0002070bdc0468000002000080042ff
:0404e000ff01000018
:020000040000fa
:1004e4001f4b00229a619a8c80218a439a841a00b5
:1004f4001023d1680b42fcd01a4b1b689b0e3f2b78
:100504002bd09b02802292001343154a936210233e
:10051400d1680b42fcd0124b02229a841a00102399
:10052400d1680b42fcd0104b05221a720f4b104ab3
:100534005a60f02212019a601a0053785bb2002bc1
:10054400fbdb0a4b0b4a5a800b4a5a80064b0b4a78
:100554001a62034b00221a627047203bd1e7c0465f
:10056400000800402460800000040040000c0040ab
:10057400000701001440000019400000840001003d
:020000040000fa
:1005840070b500282fd0194b1a7d0023002a26d1dc
:10059400164b1860596001321a75154b1b7edb0728
:1005a40016d500291dd00023114c0726012507e08c
:1005b400c25c22850133227e2a420ad0994208d99c
:1005c40062683240012af3d15a00825a2285f1e747
:1005d4000023064a9360064b01229a7501231800f2
:1005e40070bd0b00f5e70023f9e7c046500000207a
:0405f400001c0042a5
:020000040000fa
:1005f8000021f0b5174b184a934208d30027174a31
:1006080013685168002b05d1002903d1f0bd19707a
:100618000133f1e7100095680c305c18002d16d0f6
:100628000b25ed1a5219a3420ad10b0003221340dd
:100638005a1e934189085918890040180200dfe7bb
:100648005d1cae5c1e702b00ede71f700133a342ea
:10065800fbd1f3e70000002000000020680600003e
:020000040000fa
:10066800ac0000201c00000000000000dc0000209e
:100678000100000000000000800000202c000000a5
:1006880000000000500000203000000000000000c2
:10069800c80000200c00000000000000d40000206a
:1006a80004000000000000000000002050000000ce
:1006b80000000000d8000020040000000000000036
:1006c8000000000000000000444444444444444402
:020000040000fa
:1006d80000230e4a10b513600d4a13600d4a1360cb
:1006e8000d4a13600d4a13600d4a536213610133ba
:1006f800936000f07df900f07bf90a4c0a4b9c42ac
:1007080000d310bd08cc9847f8e7c046d8000020b1
:100718000c00002008000020000000200400002039
:0c07280010000020c4000000c800000009
:020000040000fa
:10073400114b124a1a60124a9a81c02292025a60dc
:100744001a00d369002bfcd10b4a136802210b4316
:100754001360d369002bfcd10a4b00229a61da6141
:100764001a622c215a545a621a605a609a601a7595
:10077400da60da857047c046001c0042040120405c
:08078400b6f3ffff5000002056
:020000040000fa
:10078c0070b58eb0002000f0ddf80e4b40229a615f
:10079c0007a90d4b0a0013cb13c213cb13c21b6852
:1007ac001360084c40252e0066611c236a461c21f0
:1007bc0007a8fff7f7fd1c216846fff7ddfea561d2
:0c07cc00f2e7c04600440041c0090000f4
:020000040000fa
:1007d80010b5064c2378002b07d1054b002b02d00f
:1007e800044800e000bf0123237010bdac000020c6
:1007f8000000000000000000044b10b5002b03d0df
:100808000349044800e000bf10bdc04600000000d6
:08081800b00000200000000008
:020000040000fa
:1008200010b50a4b98470a4b984700f0ddf8094b82
:10083000ff229343084a9360084b9847084b984718
:10084000084b9847fff7a2fffee7c046f7090000f4
:10085000f70900000000000000ed00e0d9060000ec
:08086000f7090000f709000090
:020000040000fa
:10086800bff35f8f62b60c4bc22080001a580b4949
:100878001140c02212020a431a50802292001a60c4
:1008880004301a5806491140c02212040a431a506b
:100898008022d2011a60704700e100e0ff00ffffec
:0408a800ffff00ff4f
:020000040000fa
:1008ac000d4b40221a603f3a44215a5401315a549c
:1008bc0001310020585401315a540f315a54233904
:1008cc00323019540238585430390b3019549b308b
:0c08dc001a54ba3299547047004400418d
:020000040000fa
:1008e8000b4b00221a621a779a60da60094b802251
:1008f80092025a601a00d369002bfcd1054ba5223d
:100908001a73054a1a601a00d369002bfcd1704784
:0c09180080000020000800420e000200d9
:020000040000fa
:10092400094b5b8b5b070dd0074b80221a76793a13
:100934005a831b7e5b0705d5034b04211a8d1a7e4f
:0c0944000a42fbd17047c046001c004274
:020000040000fa
:1009500010b5094b06225a60fff7a8fffff7c2fd4a
:1009600000f03cf8fff7c0ff00f01af8fff7e2fed6
:0c097000fff77aff10bdc04600400041b8
:020000040000fa
:10097c0010b5064b1b68064b9a6801329a601b68cf
:10098c00002b02d0024a5068984710bd10e000e0de
:04099c00c80000206f
:020000040000fa
:1009a000054a002313609360632151605d39116033
:1009b000024a93601360704710e000e0c800002016
:020000040000fa
:1009c0004142434445464748494a4b4c4d4e4f509f
:0c09d0005152535455565758595a0a00ba
:020000040000fa
:0c09dc00014b80225a607047004000412f
:020000040000fa
:0809e80010b5fff705fe10bd7c
:020000040000fa
:0209f000fee720
:020000040000fa
:0209f200fee71e
:020000040000fa
:0209f400fee71c
:020000040000fa
:0209f600704748
:020000040000fa
:0209f800704746
:020000040000fa
:0200000400807a
:0440000077c700d8a6
:020000040000fa
:0200000400807a
:044004005c00ffff5e
:00000001FF
