:020000040000fa
:10000000f03f0020f10f0000c7110000571300005f
:1000100000000000000000000000000000000000e0
:10002000000000000000000000000000a709000020
:100030000000000000000000a709000011130000ec
:10004000a7090000a7090000a7090000a7090000f0
:10005000a7090000a7090000a9090000a7090000de
:10006000a709000021040000a7090000a70900005b
:10007000a7090000a70900008d050000a7090000de
:10008000a7090000a7090000a7090000a7090000b0
:10009000a70900000000000000000000a709000000
:1000a000a7090000a7090000a7090000a709000090
:0800b00000000000a709000098
:020000040000fa
:1000b800f8b5c046f8bc08bc9e467047d10f000092
:1000c800f8b5c046f8bc08bc9e467047a90f0000aa
:020000040000fa
:1000d800280700201c00000000000000c8060020bf
:1000e8002000000000000000e806002020000000ba
:1000f80000000000080700202000000000000000a9
:10010800680600203000000000000000980600206b
:100118003000000000000000440700200c00000030
:100128000000000058070020040000000000000044
:10013800180600205000000000000000680700209a
:100148006c00000001000000740700207007002008
:1001580074070020000000002500000008000020af
:100168000004000000000000000000000000000083
:100178000000000000000000000000000000000077
:10018800000000009b1400000000000000000000b8
:100198000000000000000000f50b00000000000057
:1001a8000000000000000000000000000000000047
:1001b800000000000000002008040000000000000b
:1001c80034080020200000000100000001000000a9
:1001d8000300000000000000000000000000000014
:1001e8000000000000000000500700205007002019
:1001f80008000000000000005c0700200400000068
:1002080000000000080400201002000000000000a8
:10021800d407002060000000010000000100000079
:1002280003000000000000000000000000000000c3
:100238000000000000000000110d00000000000098
:10024800000000000000000079140000a314000062
:100258000000000000000000000000000000000096
:100268000000000000000000000000000000000086
:1002780000000000000000000000000060070020ef
:1002880004000000000000006407002004000000d3
:100298000000000000000000000000004444444446
:020000040000fa
:1002a800f0b587b0039003a800f004ff002802da35
:1002b800002007b0f0bd039b1b095d1e202d09d946
:1002c8004f49023b4f4a8b4224d8db08d318043be2
:1002d8001d7801352a000120002101f071f8002461
:1002e80043428c4100930194474f00983a687b68d9
:1002f8001040020001990b401a433fd1039b05a807
:100308001033059301f068f8002809d10c223f4bff
:100318001a60cee7db09d318043b1d781135d9e7fd
:100328003b490c68a04206d0059b0400103b05938e
:100338000123103483600125059be2180a602b43d2
:10034800083a083c28c26360002cb1d0200000f0b5
:10035800effe00280bd023686168ab43e31a5a68a4
:10036800aa4352185a606168a94362501c002000d1
:10037800039900f0a4ff200008309ae7214a254994
:100388003c32002831d1584203404b43db0ed65c47
:100398002036300000f0dcff731cdb00fc58083b03
:1003a800fb189c42a0d0272e25dd0235ae4201dc89
:1003b8003f2e20d101226368039f9343dd1b280051
:1003c800009300f097fe864215d1e268a168e31910
:1003d800da60996093609a68d360012217431f60be
:1003e8005d60009be5506760c1e7434203404b43b3
:1003f800db0ed65ccde73100200000f083fdb6e7c8
:10040800ff010000b40c0000100400206007002069
:080418000804002029e66b072f
:020000040000fa
:10042000f0b5c64600b5574b9b7d002b17d0554afb
:10043000137edbb2927d52b2002a13db514a137e47
:10044000dbb2927dd20702d5db0700d582e04d4ab0
:10045000137edbb2927d520701d55b074bd404bcff
:100460009046f0bd5bb2002be8da464b5b8b07226f
:100470001340e3d0444ce38500f0bcfe414b8422a2
:100480001a752c230022e254636a002bd6d03e4a10
:10049000906a9847d2e7bb68f35c0b859368013399
:1004a0009360936898460b7e23420bd0404509d950
:1004b0004b682b40012beed163469b685b009b5b36
:1004c0000b85ebe7304b9a685b689a42bfd32e4ba3
:1004d00000221a755a602b4a01211175db68002b26
:1004e000b5d0294a10699847b1e727490a6a89694e
:1004f0005200535215e0244a2c23d35c002baed07b
:10050000214b1a6adb699a42a9d21e4a138d9bb20b
:10051000516807220a40012ae7d01b4a116a9269f2
:100520005354194b1a6a01321a621a6adb699a42e9
:1005300000d094e7144b00222c215a54da61114a5e
:10054000583111755b6a002b00d188e70e4a906a1a
:10055000984784e70c4b1b7d002b00d177e70a4bb3
:100560009a685868074b1b7edb07abd58242a9d23d
:10057000054b1e68034907259c461f001a000124ed
:0c05800096e7c046000800426806002014
:020000040000fa
:10058c00f0b5c64600b5574b9b7d002b17d0554a8e
:10059c00137edbb2927d52b2002a13db514a137eda
:1005ac00dbb2927dd20702d5db0700d582e04d4a43
:1005bc00137edbb2927d520701d55b074bd404bc92
:1005cc009046f0bd5bb2002be8da464b5b8b072202
:1005dc001340e3d0444ce38500f01cfe414b8422d5
:1005ec001a752c230022e254636a002bd6d03e4aa3
:1005fc00906a9847d2e7bb68f35c0b85936801332c
:10060c009360936898460b7e23420bd0404509d9e2
:10061c004b682b40012beed163469b685b009b5bc8
:10062c000b85ebe7304b9a685b689a42bfd32e4b35
:10063c0000221a755a602b4a01211175db68002bb8
:10064c00b5d0294a10699847b1e727490a6a8969e0
:10065c005200535215e0244a2c23d35c002baed00d
:10066c00214b1a6adb699a42a9d21e4a138d9bb29e
:10067c00516807220a40012ae7d01b4a116a926985
:10068c005354194b1a6a01321a621a6adb699a427c
:10069c0000d094e7144b00222c215a54da61114af1
:1006ac00583111755b6a002b00d188e70e4a906aad
:1006bc00984784e70c4b1b7d002b00d177e70a4b46
:1006cc009a685868074b1b7edb07abd58242a9d2d0
:1006dc00054b1e68034907259c461f001a00012480
:0c06ec0096e7c046001c00429806002063
:020000040000fa
:1006f800f7b5002858d00838436801221e009643f1
:1007080085192a680400934200d0ffde01276b6830
:10071800226813403b420ed1200000f009fd00285a
:1007280043d1280000f034fd0028f0d06b68bb43ab
:10073800f618ed18ebe73b003343636030002b609d
:1007480000f0d8fc019000f003fe6b6822681340ab
:100758003b42e1d0184b019a1868596800f024fe12
:10076800384212d1019a0120002100f029fe0b0025
:10077800002804d0104a126802430f480260002b78
:1007880003d00d4a53680b435360019b0a4a013357
:10079800db00d3181a005b68083a66602e60e360d5
:1007a800a260d460e3689c60f7bd2368bb43e41a89
:0c07b8006368bb43f618b4e7100400208f
:020000040000fa
:1007c400f0b52e4e3f25745de4b2705506012c4df4
:1007d400ad192d7b002d05d0284e4e25765d0025c4
:1007e400b6073bd0254e4e25032777550501244ee9
:1007f4007619023f3773234ead5b6d0533d5c918a7
:100804000601204dad19696001011e4d495b0905c2
:100814002ed5d21805011b4949198a6019490501c9
:100824006a5a9205920fd3409bb249194b80134ade
:100834004021535c02252b435354516c536c9b044d
:100844009b0e08220a4013430125002b06d10b4ab4
:100854001169012383400b4313610125074a3f2398
:10086400d4542800f0bd0601064dad196960cbe7ec
:100874000501044949198a60d0e7c046004800418f
:08088400e8060020c806002070
:020000040000fa
:10088c001d4b00229a619a8c80218a439a841a000b
:10089c001023d1680b42fcd0184b1b689b0e3f2bce
:1008ac0028d09b02802292001343134a9362102398
:1008bc00d1680b42fcd0104b02229a841a001023f0
:1008cc00d1680b42fcd00e4b02221a720d4b0e4a11
:1008dc005a601a0053785bb2002bfbdb094b0b4ab6
:1008ec005a800b4a5a80064b0a4a1a62024b002263
:1008fc001a627047203bd4e7000800402460800057
:10090c0000040040000c00400007010014400000ef
:08091c001940000084000100f5
:020000040000fa
:10092400f0b51600050002278369426987b0029377
:10093400d31a03939b1904910596019302ac3a00d0
:100944002100286800f0a9fc019b984208d1ab68fb
:10095400ea68ab619a18aa626b61300007b0f0bd17
:1009640000280cda102200236968ab620a43ab61e9
:100974006b616a60022f12d06368f61aede7019b7f
:100984001b1a01936368984202d9c01a0834013fc4
:1009940023681b1823606368181a6060cfe71e0081
:0209a400dbe78f
:020000040000fa
:0209a600fee76a
:020000040000fa
:1009a80030b583b0002301931a4a118c0f330b40e2
:1009b8003f21545ce4b253540f31525cd2b20192dd
:1009c800019a0220920708d512494e22885419012b
:1009d800114a5218002111730138019ad20709d51a
:1009e8000c494e220120885419010b4a5218002143
:1009f800117301301901084a52185568002d03d0a7
:100a0800054a53189968a847024a3f23d45403b0ab
:0c0a180030bdc04600480041e806002048
:020000040000fa
:100a2400f8b5846a05000f001600002c0ad0ab6ae2
:100a34006a699b1ab3420cd2320039002800fff7ce
:100a44006fff05e000f0a4fc03002000002beed0b3
:100a5400f8bd002ef0d02b0034331b785bb2002b92
:100a64001adb3400dbb2621eb95c994212d1220057
:100a740039002800fff754ffa042e9d33f19341b83
:100a840022003900686900f0d2fc6b6930001c193f
:0c0a94006c61dde7141ee6d13400f1e7d0
:020000040000fa
:100aa00070b500282fd0194b1a7d0023002a26d1bb
:100ab000164b1860596001321a75154b1b7edb0707
:100ac00016d500291dd00023114c0726012507e06b
:100ad000c25c22850133227e2a420ad0994208d97b
:100ae00062683240012af3d15a00825a2285f1e726
:100af0000023064a9360064b01229a7501231800d1
:100b000070bd0b00f5e70023f9e7c046980600200a
:040b1000001c004283
:020000040000fa
:100b140010b5114a002151609160117351619161c6
:100b240011770e480e4b58630e4c9c630e4c5c615f
:100b34003f2419550d4959640d4901800121117053
:100b440019550c4c5c640c4c048211744d22023116
:100b540099540a4a1a8010bde8060020c8060020ed
:100b64000048004108070020818181810002800043
:100b7400090400000001800009080000020f0000c1
:020000040000fa
:100b84000021f0b5174b184a934208d30027174a9f
:100b940013685168002b05d1002903d1f0bd1970e9
:100ba4000133f1e7100095680c305c18002d16d065
:100bb4000b25ed1a5219a3420ad10b00032213404c
:100bc4005a1e934189085918890040180200dfe72a
:100bd4005d1cae5c1e702b00ede71f700133a34259
:100be400fbd1f3e70000002000000020d800000043
:020000040000fa
:100bf4007fb51600c2680d0013000091591e8b4189
:100c0400f31a019383680400039269460222006880
:100c1400029300f02efb002808dc1822082302406f
:100c24005340626813436360060010e0019b8342f3
:100c3400fad2a268c01ae3681018e2632064002b99
:100c440005d0531ce3631378ad19013d2b703000bc
:040c540004b070bdbb
:020000040000fa
:100c580000230e4a10b513600d4a13600d4a136045
:100c68000d4a13600d4a13600d4a53621361013334
:100c7800936000f0e3fb00f0bafb0a4c0a4b9c427d
:100c880000d310bd08cc9847f8e7c0465c070020a1
:100c98002406002020060020180600201c0600203c
:0c0ca80028060020c4000000c800000066
:020000040000fa
:100cb40020212223242425252626272728282828de
:100cc400292929292a2a2a2a2b2b2b2b2c2c2c2c78
:100cd4002c2c2c2c2d2d2d2d2d2d2d2d2e2e2e2e40
:100ce4002e2e2e2e2f2f2f2f2f2f2f2f00011702b6
:100cf4001d1813031e1b190b1408040d1f161c12b8
:0c0d04001a0a070c1511090610050f0e45
:020000040000fa
:100d100070b504000d00002801d1002070bd4368ab
:100d20009b0607d543698269934215d80023a362c5
:100d3000a3616361e16b236c994204d2c91a012259
:100d4000206800f0acfb00232364e3639d42e4d001
:100d5000206800f09ffbe1e70022c36a110098477a
:0c0d60006369002be2d101204042d7e77c
:020000040000fa
:100d6c0030b5bff35f8f62b6104bc12080001a58ac
:100d7c000f4d2a40c02109040a431a5040221a6020
:100d8c00c222920098580b4c0440c0200002204311
:100d9c009850093aff3a1a60c32080001a582a402a
:100dac00114319508022d2011a6030bd00e100e0dd
:080dbc00ffff00ffff00ffff35
:020000040000fa
:100dc400114b124a1a60d22252429a81c0229202d4
:100dd4005a601a00d369002bfcd10b4a1368022114
:100de4000b431360d369002bfcd1094b00229a6199
:100df400da611a622c215a545a621a605a609a6053
:100e04001a75da60da857047000800420401204050
:040e1400680600204c
:020000040000fa
:100e1800114b124a1a60d22252429a81c02292027f
:100e28005a601a00d369002bfcd10b4a13680221bf
:100e38000b431360d369002bfcd1094b00229a6144
:100e4800da611a622c215a545a621a605a609a60fe
:100e58001a75da60da857047001c004204012040e8
:040e680098060020c8
:020000040000fa
:100e6c0010b5104b06225a600f4b1b6818680021f6
:100e7c0000f0d0fa0d4b1b681868002100f0cafa7c
:100e8c0000f09cf9fff7fcfc00f0defafff794ff92
:100e9c0000f026fafff738fefff7b8fffff760ff08
:100eac0010bdc046004000416c07002050080020d7
:020000040000fa
:100ebc0070b5040016001d00022a1cd043689b0666
:100ecc0019d4002908d1002d01d18025ed0028006e
:100edc000830fff7e3f9010020236268a160134397
:100eec0063602300e5603433ff22012e00d10a2217
:100efc001a70024be362002070bdc046250a000048
:020000040000fa
:100f0c0070b5c668856804000a00ae4211d1012094
:100f1c00002100f053fac043c943431c03d00b4bd0
:100f2c001a68104018604b1c03d0084a53681940cb
:100f3c005160012319006268b56011439a43ee6059
:100f4c006160a41822681343236070bd1004002054
:020000040000fa
:100f5c0010b584b00020fff783ff00f047fa0c486f
:100f6c0000f078fa01aa0b4b03cb03c21b88138049
:100f7c00094c0a23220001a90020fff71dfc0a21bd
:100f8c0001a8fff787fd642000f072f8f1e7c04676
:0c0f9c00102700006c1400002808004220
:020000040000fa
:100fa80010b5064c2378002b07d1054b002b02d037
:100fb800044800e000bf0123237010bd280700206b
:100fc8000000000000000000044b10b5002b03d007
:100fd8000349044800e000bf10bdc04600000000ff
:080fe8002c07002000000000ae
:020000040000fa
:100ff00010b50a4b98470a4b984700f042fa094b44
:10100000ff229343084a9360084b9847084b984740
:10101000084b9847fff7a2fffee7c046af1300005a
:10102000af1300000000000000ed00e0590c0000cc
:08103000af130000af13000034
:020000040000fa
:1010380070b504000d00002815d00c4a2c23d35c91
:101048000020002b00d070bd00f0e6f8074b9c6133
:10105800dd6100221a622c2101205854da85044be4
:1010680084329a75efe70020ede7c0469806002025
:04107800001c004216
:020000040000fa
:10107c0070b50d4b5e681b68db0714d50b4b5843e2
:10108c00094b9b6800280ed00021074c013605e067
:10109c00b51aeb18c9181300884204d9a2689a42f1
:1010ac00f6d89b1af6e770bd10e000e0e02e0000c9
:020000040000fa
:1010bc000c4a036810b5546a0b4a591e121b914214
:1010cc000bd9002b05d00c220120084b40421a6092
:1010dc0010bd102202600020fae70f221733934351
:1010ec000360f8e728060020efffff7f6007002071
:020000040000fa
:1010fc000309013b1800202b07d90a4a934205d853
:10110c000948db08c318043b18787047e0223f20dd
:10111c0052019342f9d80448db09c318043b1878f0
:0c112c001030f2e7ff010000b40c0000de
:020000040000fa
:10113800f8b5050001262c68344201d000200ee0e5
:101148002000fff7d7ff070000f002f92868a04247
:10115800f1d1b043281a3900fff7d4fe0120f8bdb9
:020000040000fa
:10116800084b02001968002901d10749196018685d
:10117800064982188a4201d81a6070470120404205
:10118800fbe7c0466407002058080020580a0020e2
:020000040000fa
:10119800f8b5050001276c683c4201d000200de03d
:1011a8002000fff7a7ff060000f0d2f86b68a34203
:0e11b800f1d128003100fff7a5fe0120f8bd9f
:020000040000fa
:0211c600fee742
:020000040000fa
:1011c800094b0121442299540232995410329954fe
:1011d800533a32201a5401301a5408301a549b30aa
:0c11e8001954ba315a54704700440041b9
:020000040000fa
:1011f400094b5b8b5b070dd0074b80221a76793a3b
:101204005a831b7e5b0705d5034b04211a8d1a7e76
:0c1214000a42fbd17047c04600080042af
:020000040000fa
:10122000094b5b8b5b070dd0074b80221a76793a0e
:101230005a831b7e5b0705d5034b04211a8d1a7e4a
:0c1240000a42fbd17047c046001c00426f
:020000040000fa
:10124c00020000234832d356591e0b43137004235b
:10125c004268134005d010231343436001204042e1
:0a126c0070470364c3631800fae73b
:020000040000fa
:10127600f7b5002507000c002e000192019b9e4247
:1012860001db2800febd62682168380000f04ff8d7
:0812960001362d180834f1e7c0
:020000040000fa
:10129e00f7b5002507000c002e000192019b9e421f
:1012ae0001db2800febd62682168380000f05df8a1
:0812be0001362d180834f1e798
:020000040000fa
:1012c600012370b544689c43651a102d0ad942184b
:1012d60019432b43116053600832035141601000db
:0612e600fff707fa70bdde
:020000040000fa
:1012ec00054a002313609360044951600621116084
:1012fc00034a93601360704710e000e0df2e00009b
:04130c004407002072
:020000040000fa
:1013100010b5064b1b68064b9a6801329a601b6831
:10132000002b02d0024a5068984710bd10e000e040
:04133000440700204e
:020000040000fa
:1013340010b50c000023002809d10300002a06d0b0
:1013440001212000fff776fe0028f9d001231800c0
:0213540010bdca
:020000040000fa
:02135600fee7b0
:020000040000fa
:10135800064b0130c000c258002a05d10200083ae5
:10136800d21819184a60c2507047c04610040020ad
:020000040000fa
:1013780070b50d001400012801d0200070bd2100b7
:0c1388002800fff789fb0028f9d0f6e7e9
:020000040000fa
:1013940010b50400fff758ff002805d1a368e268e0
:0a13a400a36163619b18a36210bdf2
:020000040000fa
:0213ae00704786
:020000040000fa
:1013b000d0400b1cd1409c46203ad34018435242a7
:1013c00063469340184370479140031c90409c46ed
:1013d000203a9340194352426346d3401943704721
:020000040000fa
:1013e000006810b5002801da002010bdfff7bcfe30
:0613f000431cfad1f8e7ee
:020000040000fa
:0213f60070473e
:020000040000fa
:1013f800034b00229a601a6801210a431a60704759
:0414080010e000e010
:020000040000fa
:10140c0010b500f03df8024b1860586010bdc04696
:04141c005007002055
:020000040000fa
:101420004a424a41802310b55200db00fff746fdd7
:0214300010bded
:020000040000fa
:10143200002310b59a4200d110bdcc5cc4540133d4
:02144200f8e7c9
:020000040000fa
:1014440010b5fff7e1ff00f01ef800f01cf810bd26
:020000040000fa
:0c145400014b80225a60704700400041ac
:020000040000fa
:0c1460000138014b5860704710e000e0bc
:020000040000fa
:0c146c00737572454e4472610a00c04660
:020000040000fa
:0a14780010b50068fff77cff10bdff
:020000040000fa
:0814820010b5fff77efb10bd61
:020000040000fa
:02148a007047a9
:020000040000fa
:08148c0000487047d40700205e
:020000040000fa
:06149400012040427047f8
:020000040000fa
:04149a000020704777
:020000040000fa
:04149e000020704773
:020000040000fa
:0214a200704791
:020000040000fa
:0200000400807a
:0440000077c700d8a6
:020000040000fa
:0200000400807a
:044004005c00ffff5e
:00000001FF
