:020000040000fa
:10000000f83f0020750a0000830c0000850c0000fa
:1000100000000000000000000000000000000000e0
:10002000000000000000000000000000810c000043
:100030000000000000000000810c0000090c00001e
:10004000810c0000810c0000810c0000810c00007c
:10005000810c0000810c00005d070000810c000095
:10006000810c0000b1030000d9000000810c0000e9
:10007000810c0000810c000045020000810c000092
:10008000810c0000810c0000810c0000810c00003c
:10009000810c00000000000000000000810c000046
:1000a000810c0000810c0000810c0000810c00001c
:0800b00000000000810c0000bb
:020000040000fa
:1000b800f8b5c046f8bc08bc9e467047550a000013
:1000c800f8b5c046f8bc08bc9e4670472d0a00002b
:020000040000fa
:1000d80010b5564b9b7d002b53d0544a51680723cb
:1000e8000b40127e52075bd5504a906a50494a69c4
:1000f800c9688a4254d2002b44d14d4b5968885460
:1001080001325a61494b1b7edb0718d5474b012248
:100118001a75474a93699268934258d2444a1168bb
:10012800c85c4249886201339361414b9a699b6874
:100138009a4262d03e4b5a69db689a4269d03b4b7f
:100148001b7e9b0716d53b4b1b78002b19d0384bd1
:100158005a69db689a4211d1354b00221a77334924
:100168000720087533490a701b6a002b09d0304aea
:10017800506a98472f4b1b78002b02d02b4b02223a
:100188009a7510bd2a4b51005c68085301325a61b8
:10019800264b1b7edb07d2d5244b01221a7508e0bb
:1001a800224a127ed207cad5204a01211175002b96
:1001b800afd01f4a93699268934213d21c4a5900e0
:1001c8001068085a1949886201339361ade7184be2
:1001d8001b69002b23d0154aff219162013b144a69
:1001e8001361a2e7124b1b69002b18d00f4a124962
:1001f8009162013b0e4a136197e70d4b1b69002b77
:1002080098d10c4b01221a70084b1b7e9b079ed479
:10021800b4e7064b01229a7503321a758fe7044b2f
:100228009a699b689a4200d084e7eae7000c00428a
:0c0238008000002068010020ffff000093
:020000040000fa
:10024400f0b5c64600b5574b9b7d002b17d0554ad9
:10025400137edbb2927d52b2002a13db514a137e25
:10026400dbb2927dd20702d5db0700d582e04d4a8e
:10027400137edbb2927d520701d55b074bd404bcdd
:100284009046f0bd5bb2002be8da464b5b8b07224d
:100294001340e3d0444ce38500f09efc414b8422a0
:1002a4001a752c230022e254636a002bd6d03e4aee
:1002b400906a9847d2e7bb68f35c0b859368013377
:1002c4009360936898460b7e23420bd0404509d92e
:1002d4004b682b40012beed163469b685b009b5b14
:1002e4000b85ebe7304b9a685b689a42bfd32e4b81
:1002f40000221a755a602b4a01211175db68002b04
:10030400b5d0294a10699847b1e727490a6a89692b
:100314005200535215e0244a2c23d35c002baed058
:10032400214b1a6adb699a42a9d21e4a138d9bb2e9
:10033400516807220a40012ae7d01b4a116a9269d0
:100344005354194b1a6a01321a621a6adb699a42c7
:1003540000d094e7144b00222c215a54da61114a3c
:10036400583111755b6a002b00d188e70e4a906af8
:10037400984784e70c4b1b7d002b00d177e70a4b91
:100384009a685868074b1b7edb07abd58242a9d21b
:10039400054b1e68034907259c461f001a000124cb
:0c03a40096e7c046001c004250000020fc
:020000040000fa
:1003b00010b5564b9b7d002b53d0544a51680723f0
:1003c0000b40127e52075bd5504a906a50494a69e9
:1003d000c9688a4254d2002b44d14d4b5968885485
:1003e00001325a61494b1b7edb0718d5474b01226e
:1003f0001a75474a93699268934258d2444a1168e1
:10040000c85c4249886201339361414b9a699b6899
:100410009a4262d03e4b5a69db689a4269d03b4ba4
:100420001b7e9b0716d53b4b1b78002b19d0384bf6
:100430005a69db689a4211d1354b00221a77334949
:100440000720087533490a701b6a002b09d0304a0f
:10045000506a98472f4b1b78002b02d02b4b02225f
:100460009a7510bd2a4b51005c68085301325a61dd
:10047000264b1b7edb07d2d5244b01221a7508e0e0
:10048000224a127ed207cad5204a01211175002bbb
:10049000afd01f4a93699268934213d21c4a590005
:1004a0001068085a1949886201339361ade7184b07
:1004b0001b69002b23d0154aff219162013b144a8e
:1004c0001361a2e7124b1b69002b18d00f4a124987
:1004d0009162013b0e4a136197e70d4b1b69002b9c
:1004e00098d10c4b01221a70084b1b7e9b079ed49f
:1004f000b4e7064b01229a7503321a758fe7044b55
:100500009a699b689a4200d084e7eae700080042b3
:0c051000ac00002069010020ffff00008b
:020000040000fa
:10051c00380100201c00000000000000d800002062
:10052c002000000000000000f80000202000000067
:10053c000000000018010020200000000000000056
:10054c006801002001000000000000008000002075
:10055c002c000000000000005000002030000000c3
:10056c0000000000540100200c00000000000000fe
:10057c006c0100201c0000000100000041424344bb
:10058c0045464748494a4b4c4d4e4f505152535497
:10059c0055565758595a0a006901002001000000ad
:1005ac0000000000ac0000202c0000000000000047
:1005bc00600100200400000000000000000000208a
:1005cc005000000000000000640100200400000046
:1005dc0000000000000000000000000044444444ff
:020000040000fa
:1005ec00f0b52e4e3f25745de4b2705506012c4dce
:1005fc00ad192d7b002d05d0284e4e25765d00259e
:10060c00b6073bd0254e4e25032777550501244ec2
:10061c007619023f3773234ead5b6d0533d5c91880
:10062c000601204dad19696001011e4d495b09059c
:10063c002ed5d21805011b4949198a6019490501a3
:10064c006a5a9205920fd3409bb249194b80134ab8
:10065c004021535c02252b435354516c536c9b0427
:10066c009b0e08220a4013430125002b06d10b4a8e
:10067c001169012383400b4313610125074a3f2372
:10068c00d4542800f0bd0601064dad196960cbe7c6
:10069c000501044949198a60d0e7c0460048004169
:0806ac00f8000020d800002036
:020000040000fa
:1006b400204b00229a619a8c80218a439a841a00e2
:1006c4001023d1680b42fcd01b4b1b689b0e3f2ba5
:1006d4002dd09b02802292001343164a936210236a
:1006e400d1680b42fcd0134b02229a841a001023c7
:1006f400d1680b42fcd0114b05221a72104b114adf
:100704005a60f02212019a601a0053785bb2002bef
:10071400fbdb0b4b0c4a5a800c4a5a800c4a5a8019
:10072400064b0c4a1a62034b00221a627047203ba4
:10073400cfe7c04600080040246080000004004069
:10074400000c0040000701001440000015400000a8
:08075400194000008c000100b7
:020000040000fa
:10075c0030b583b0002301931a4a118c0f330b4030
:10076c003f21545ce4b253540f31525cd2b201922b
:10077c00019a0220920708d512494e228854190179
:10078c00114a5218002111730138019ad20709d568
:10079c000c494e220120885419010b4a5218002191
:1007ac00117301301901084a52185568002d03d0f5
:1007bc00054a53189968a847024a3f23d45403b0fa
:0c07cc0030bdc04600480041f80000208d
:020000040000fa
:1007d80070b5124a002151609160117351619161a5
:1007e80011770f480f4b58630f4c9c630f4c5c619b
:1007f8003f2699550e4959640e490180012111700f
:100808004d2403251d5599550b4e5e640b4e0682eb
:1008180011741d550a4a1a8070bdc046f8000020a0
:10082800d800002000480041180100208181818102
:1008380000028000090400000003c000090800004d
:04084800020f00009b
:020000040000fa
:10084c000021f0b5174b184a934208d30027174ada
:10085c0013685168002b05d1002903d1f0bd197024
:10086c000133f1e7100095680c305c18002d16d0a0
:10087c000b25ed1a5219a3420ad10b000322134087
:10088c005a1e934189085918890040180200dfe765
:10089c005d1cae5c1e702b00ede71f700133a34294
:1008ac00fbd1f3e700000020000000201c05000035
:020000040000fa
:1008bc0030b5bff35f8f62b6134bc120800019585f
:1008cc00124c2140c02212041143195040211960ce
:1008dc00043019580e4d0d40c021090229431950fe
:1008ec008021890019601958214011431950802129
:1008fc00c90019600430195821400a431a5080224b
:10090c00d2011a6030bdc04600e100e0ffff00ffdd
:04091c00ff00ffffda
:020000040000fa
:1009200000230e4a10b513600d4a13600d4a136080
:100930000d4a13600d4a13600d4a5362136101336f
:10094000936000f0a1f900f09ff90a4c0a4b9c4219
:1009500000d310bd08cc9847f8e7c04664010020da
:100960000c000020080000200000002004000020ef
:0c09700010000020c4000000c8000000bf
:020000040000fa
:10097c00144b8022d2021a60012244215a540131b4
:10098c005a5401315a5401315a5409315a540131d3
:10099c005a5401310220585401315a5403315a54db
:1009ac002339303019545954053110385854013109
:1009bc000238585436391b3019549b301a54ba32f9
:0809cc009954704700440041fa
:020000040000fa
:1009d400114b124a1a60124a9a81c02292025a603a
:1009e4001a00d369002bfcd10b4a136802210b4374
:1009f4001360d369002bfcd10a4b00229a61da619f
:100a04001a622c215a545a621a605a609a601a75f2
:100a1400da60da857047c046001c004204012040b9
:080a2400b6f3ffff50000020b3
:020000040000fa
:100a2c0010b5064c2378002b07d1054b002b02d0b8
:100a3c00044800e000bf0123237010bd38010020e2
:100a4c000000000000000000044b10b5002b03d088
:100a5c000349044800e000bf10bdc0460000000080
:080a6c003c0100200000000025
:020000040000fa
:100a740010b50a4b98470a4b984700f0fbf8094b0e
:100a8400ff229343084a9360084b9847084b9847c2
:100a9400084b984700f06af8fee7c046870c000050
:100aa400870c00000000000000ed00e021090000b8
:080ab400870c0000870c000014
:020000040000fa
:100abc000b4b00221a621a779a60da60094b80227b
:100acc0092025a601a00d369002bfcd1054b0f22fd
:100adc001a73054a1a601a00d369002bfcd17047af
:0c0aec0080000020000c00420e003000d2
:020000040000fa
:100af80070b50d4b5e681b68db0714d5642358433b
:100b0800094b9b6800280ed00021074c013605e0f0
:100b1800b51aeb18c9181300884204d9a2689a427a
:0c0b2800f6d89b1af6e770bd10e000e064
:020000040000fa
:100b34000b4b00221a621a779a60da60094b802202
:100b440092025a601a00d369002bfcd1054b002293
:100b54001a73054a1a601a00d369002bfcd1704736
:0c0b6400ac000020000800420e00010060
:020000040000fa
:100b700070b5002000f018f800f068f8074800f0a1
:100b800075f8074d074c1c232a0021000020fff7b1
:100b90002dfd6420fff7b0fff5e7c04610270000e9
:080ba000280800426c0100204e
:020000040000fa
:100ba80010b50b4b06225a60fff7e4fefff77efdf7
:100bb80000f052f8fff77efffff7b8ff00f032f8b9
:100bc800fff706fefff702fffff774fe10bdc046f1
:040bd8000040004198
:020000040000fa
:100bdc00094b5b8b5b070dd0074b80221a76793a59
:100bec005a831b7e5b0705d5034b04211a8d1a7e95
:0c0bfc000a42fbd17047c046001c0042ba
:020000040000fa
:100c080010b5064b1b68064b9a6801329a601b6840
:100c1800002b02d0024a5068984710bd10e000e04f
:040c28005401002053
:020000040000fa
:100c2c00054a002313609360632151605d391160a4
:100c3c00024a93601360704710e000e054010020fa
:020000040000fa
:100c4c00034b00229a601a6801210a431a6070470c
:040c5c0010e000e0c4
:020000040000fa
:0c0c6000014b80225a60704700400041a8
:020000040000fa
:0c0c6c000138014b5860704710e000e0b8
:020000040000fa
:080c780010b5fff7e7fd10bd08
:020000040000fa
:020c8000fee78d
:020000040000fa
:020c8200fee78b
:020000040000fa
:020c8400fee789
:020000040000fa
:020c86007047b5
:020000040000fa
:020c88007047b3
:020000040000fa
:0200000400807a
:0440000077c700d8a6
:020000040000fa
:0200000400807a
:044004005c00ffff5e
:00000001FF
