:020000040000fa
:10000000f83f0020710b00001f0e0000670f00007a
:1000100000000000000000000000000000000000e0
:10002000000000000000000000000000ab0700001e
:100030000000000000000000ab070000ab0700005c
:10004000ab070000ab070000ab070000ab070000e8
:10005000ab070000ab070000ab070000ab070000d8
:10006000ab070000e1030000ab070000ab07000096
:10007000ab070000ab070000ab070000ab070000b8
:10008000ab070000ab070000ab070000ab070000a8
:10009000ab0700000000000000000000ab070000fc
:1000a000ab070000ab070000ab070000ab07000088
:0800b00000000000ab07000096
:020000040000fa
:1000b800f8b5c046f8bc08bc9e467047510b000016
:1000c800f8b5c046f8bc08bc9e467047290b00002e
:020000040000fa
:1000d800980600201c0000000000000068060020b0
:1000e8003000000000000000bc06002004000000f2
:1000f800000000001806002050000000000000006a
:10010800cc0600206c00000001000000d80600208a
:10011800d4060020d80600200000000025000000ba
:10012800080000200004000000000000000000009b
:1001380000000000000000000000000000000000b7
:100148000000000000000000bb10000000000000dc
:100158000000000000000000000000001d08000072
:100168000000000000000000000000000000000087
:10017800000000000000000000000020080400004b
:100188000000000098070020200000000100000087
:100198000100000003000000000000000000000053
:1001a800000000000000000000000000b40600206d
:1001b800b40600200800000000000000c00600206f
:1001c80004000000000000000804002010020000e5
:1001d8000000000038070020600000000100000057
:1001e8000100000003000000000000000000000003
:1001f80000000000000000000000000039090000b5
:10020800000000000000000000000000991000003d
:10021800c310000000000000000000000000000003
:1002280000000000000000000000000000000000c6
:1002380000000000000000000000000000000000b6
:10024800c40600200400000000000000c8060020ca
:100258000400000000000000000000000000000092
:020000040000fa
:10026800f0b587b0039003a800f006fd002802da75
:10027800002007b0f0bd039b1b095d1e202d09d986
:100288004f49023b4f4a8b4224d8db08d318043b22
:100298001d7801352a000120002100f0a7fe002466
:1002a80043428c4100930194474f00983a687b6819
:1002b8001040020001990b401a433fd1039b05a847
:1002c8001033059300f09efe002809d10c223f4b05
:1002d8001a60cee7db09d318043b1d781135d9e73e
:1002e8003b490c68a04206d0059b0400103b0593cf
:1002f8000123103483600125059be2180a602b4313
:10030800083a083c28c26360002cb1d0200000f0f5
:100318003bfd00280bd023686168ab43e31a5a6899
:10032800aa4352185a606168a94362501c00200011
:10033800039900f0f0fd200008309ae7214a25498a
:100348003c32002831d1584203404b43db0ed65c87
:100358002036300000f004fe731cdb00fc58083b1c
:10036800fb189c42a0d0272e25dd0235ae4201dcc9
:100378003f2e20d101226368039f9343dd1b280091
:10038800009300f099fc864215d1e268a168e31950
:10039800da60996093609a68d360012217431f60fe
:1003a8005d60009be5506760c1e7434203404b43f3
:1003b800db0ed65ccde73100200000f063fbb6e72a
:1003c800ff010000dc08000010040020c406002023
:0803d8000804002029e66b0770
:020000040000fa
:1003e000f0b5c64600b5574b9b7d002b17d0554a3c
:1003f000137edbb2927d52b2002a13db514a137e88
:10040000dbb2927dd20702d5db0700d582e04d4af0
:10041000137edbb2927d520701d55b074bd404bc3f
:100420009046f0bd5bb2002be8da464b5b8b0722af
:100430001340e3d0444ce38500f008fd414b842297
:100440001a752c230022e254636a002bd6d03e4a50
:10045000906a9847d2e7bb68f35c0b8593680133d9
:100460009360936898460b7e23420bd0404509d990
:100470004b682b40012beed163469b685b009b5b76
:100480000b85ebe7304b9a685b689a42bfd32e4be3
:1004900000221a755a602b4a01211175db68002b66
:1004a000b5d0294a10699847b1e727490a6a89698e
:1004b0005200535215e0244a2c23d35c002baed0bb
:1004c000214b1a6adb699a42a9d21e4a138d9bb24c
:1004d000516807220a40012ae7d01b4a116a926933
:1004e0005354194b1a6a01321a621a6adb699a422a
:1004f00000d094e7144b00222c215a54da61114a9f
:10050000583111755b6a002b00d188e70e4a906a5a
:10051000984784e70c4b1b7d002b00d177e70a4bf3
:100520009a685868074b1b7edb07abd58242a9d27d
:10053000054b1e68034907259c461f001a0001242d
:0c05400096e7c046000800426806002054
:020000040000fa
:10054c00f7b5002858d00838436801221e0096439e
:10055c0085192a680400934200d0ffde01276b68de
:10056c00226813403b420ed1200000f00bfc002807
:10057c0043d1280000f036fc0028f0d06b68bb4358
:10058c00f618ed18ebe73b003343636030002b604b
:10059c0000f090fb019000f0e1fc6b6822681340c6
:1005ac003b42e1d0184b019a1868596800f010fdd5
:1005bc00384212d1019a0120002100f015fd0b00e8
:1005cc00002804d0104a126802430f480260002b26
:1005dc0003d00d4a53680b435360019b0a4a013305
:1005ec00db00d3181a005b68083a66602e60e36083
:1005fc00a260d460e3689c60f7bd2368bb43e41a37
:0c060c006368bb43f618b4e7100400203c
:020000040000fa
:100618001c4b00229a619a8c80218a439a841a0082
:100628001023d1680b42fcd0174b1b689b0e3f2b45
:1006380025d09b02802292001343124a9362102312
:10064800d1680b42fcd00f4b02229a841a00102367
:10065800d1680b42fcd00d4b0d4a5a601a005378f2
:100668005bb2002bfbdb094b0a4a5a800a4a5a80c4
:100678000a4b0b4a1a62034b00221a627047203b4e
:10068800d7e7c0460008004024608000000c004006
:100698000007010014400000194000000004004059
:0406a80084000100c9
:020000040000fa
:1006ac00f0b51600050002278369426987b00293f2
:1006bc00d31a03939b1904910596019302ac3a004b
:1006cc002100286800f011fc019b984208d1ab680e
:1006dc00ea68ab619a18aa626b61300007b0f0bd92
:1006ec0000280cda102200236968ab620a43ab6164
:1006fc006b616a60022f12d06368f61aede7019bfa
:10070c001b1a01936368984202d9c01a0834013f3e
:10071c0023681b1823606368181a6060cfe71e00fb
:02072c00dbe709
:020000040000fa
:10072e00f8b5846a05000f001600002c0ad0ab6adb
:10073e006a699b1ab3420cd2320039002800fff7c7
:10074e00aeff05e000f035fc03002000002beed0dc
:10075e00f8bd002ef0d02b0034331b785bb2002b8b
:10076e001adb3400dbb2621eb95c994212d1220050
:10077e0039002800fff793ffa042e9d33f19341b3d
:10078e0022003900686900f063fc6b6930001c19a7
:0c079e006c61dde7141ee6d13400f1e7c9
:020000040000fa
:0207aa00fee768
:020000040000fa
:1007ac000021f0b5174b184a934208d30027174a7b
:1007bc0013685168002b05d1002903d1f0bd1970c5
:1007cc000133f1e7100095680c305c18002d16d041
:1007dc000b25ed1a5219a3420ad10b000322134028
:1007ec005a1e934189085918890040180200dfe706
:1007fc005d1cae5c1e702b00ede71f700133a34235
:10080c00fbd1f3e70000002000000020d80000001e
:020000040000fa
:10081c007fb51600c2680d0013000091591e8b4164
:10082c00f31a01938368040003926946022200685c
:10083c00029300f046fb002808dc18220823024033
:10084c005340626813436360060010e0019b8342cf
:10085c00fad2a268c01ae3681018e2632064002b75
:10086c0005d0531ce3631378ad19013d2b70300098
:04087c0004b070bd97
:020000040000fa
:1008800000230e4a10b513600d4a13600d4a136021
:100890000d4a13600d4a13600d4a53621361013310
:1008a000936000f0e5fb00f0bcfb0a4c0a4b9c4255
:1008b00000d310bd08cc9847f8e7c046c00600201a
:1008c0002406002020060020180600201c06002018
:0c08d00028060020c4000000c800000042
:020000040000fa
:1008dc0020212223242425252626272728282828ba
:1008ec00292929292a2a2a2a2b2b2b2b2c2c2c2c54
:1008fc002c2c2c2c2d2d2d2d2d2d2d2d2e2e2e2e1c
:10090c002e2e2e2e2f2f2f2f2f2f2f2f0001170291
:10091c001d1813031e1b190b1408040d1f161c1293
:0c092c001a0a070c1511090610050f0e21
:020000040000fa
:1009380070b504000d00002801d1002070bd436887
:100948009b0607d543698269934215d80023a362a1
:10095800a3616361e16b236c994204d2c91a012235
:10096800206800f0a8fb00232364e3639d42e4d0e1
:10097800206800f09bfbe1e70022c36a110098475a
:0c0988006369002be2d101204042d7e758
:020000040000fa
:10099400114b124a1a60d22252429a81c022920208
:1009a4005a601a00d369002bfcd10b4a1368022148
:1009b4000b431360d369002bfcd1094b00229a61cd
:1009c400da611a622c215a545a621a605a609a6087
:1009d4001a75da60da857047000800420401304075
:0409e4006806002081
:020000040000fa
:1009e800f8b505000c000020002d20d000f040fada
:1009f800002c17d000200e4a0421072605e0178d89
:100a08004300ef52013084420dd0137e0b42fcd0dc
:100a1800538b334207d153683340012befd0138dea
:100a28002b54efe72000201a44426041c0b2f8bdc1
:040a3800001c00425c
:020000040000fa
:100a3c0070b5040016001d00022a1cd043689b06ea
:100a4c0019d4002908d1002d01d18025ed002800f2
:100a5c000830fff703fc010020236268a1601343f8
:100a6c0063602300e5603433ff22012e00d10a229b
:100a7c001a70024be362002070bdc0462f070000c5
:020000040000fa
:100a8c0070b5c668856804000a00ae4211d1012019
:100a9c00002100f0a9fac043c943431c03d00b4bff
:100aac001a68104018604b1c03d0084a5368194050
:100abc005160012319006268b56011439a43ee60de
:100acc006160a41822681343236070bd10040020d9
:020000040000fa
:100adc0010b50f4b06225a600e4b1b68186800218c
:100aec0000f0aefa0c4b1b681868002100f0a8fa55
:100afc0000f018f9fff78afd00f0bcfafff744ff8d
:100b0c0000f03cfa00f0f4f800f084f910bdc04697
:0c0b1c0000400041d0060020b40700207b
:020000040000fa
:100b280010b5064c2378002b07d1054b002b02d0bb
:100b3800044800e000bf0123237010bd9806002080
:100b48000000000000000000044b10b5002b03d08b
:100b58000349044800e000bf10bdc0460000000083
:080b68009c06002000000000c3
:020000040000fa
:100b700010b50a4b98470a4b984700f092fa094b78
:100b8000ff229343084a9360084b9847084b9847c5
:100b9000084b984700f0e4f8fee7c046db0f000082
:100ba000db0f00000000000000ed00e08108000005
:080bb000db0f0000db0f000069
:020000040000fa
:100bb80070b504000d00002815d00c4a2c23d35c16
:100bc8000020002b00d070bd00f03cf9074b9c6161
:100bd800dd6100221a622c2101205854da85044b69
:100be80084329a75efe70020ede7c04668060020da
:040bf80000080042af
:020000040000fa
:100bfc0070b5002818d0002918d000250c4a012403
:100c0c00072605e06b00c35a13850135a94209d0ac
:100c1c00137e2342fcd053683340012bf2d0435d4a
:100c2c001385f2e7012070bd0020fce70120fae7f4
:040c3c00001c004256
:020000040000fa
:100c400070b50d4b5e681b68db0714d50b4b584322
:100c5000094b9b6800280ed00021074c013605e0a7
:100c6000b51aeb18c9181300884204d9a2689a4231
:100c7000f6d89b1af6e770bd10e000e080bb0000dc
:020000040000fa
:100c80000c4a036810b5546a0b4a591e121b914254
:100c90000bd9002b05d00c220120084b40421a60d2
:100ca00010bd102202600020fae70f221733934391
:100cb0000360f8e728060020efffff7fc40600204e
:020000040000fa
:100cc0000309013b1800202b07d90a4a934205d893
:100cd0000948db08c318043b18787047e0223f201e
:100ce00052019342f9d80448db09c318043b187831
:0c0cf0001030f2e7ff010000dc080000fb
:020000040000fa
:100cfc000a4b0b4a1a60d22252429a81c0229202ab
:100d0c005a601a00d369002bfcd1044a13680221e3
:100d1c000b431360d369002bfcd17047001c0042bd
:040d2c00040120405e
:020000040000fa
:100d30000a4b012247215a5401315a540e315a5458
:100d400023393020585401312e3858543139393034
:100d500019549b301a54ba329954704700440041d8
:020000040000fa
:100d600000b583b00020fff7b9fe00f05bf907483b
:100d700000f08cf908216846fff71eff082168463d
:100d8000fff73cff0a20fff75bfff3e710270000a7
:020000040000fa
:100d9000f8b5050001262c68344201d000200ee091
:100da0002000fff78dff070000f0def82868a04262
:100db000f1d1b043281a3900fff768fe0120f8bdd1
:020000040000fa
:100dc000084b02001968002901d107491960186809
:100dd000064982188a4201d81a60704701204042b1
:100de000fbe7c046c8060020c0070020c00900205d
:020000040000fa
:100df000f8b5050001276c683c4201d000200de0e9
:100e00002000fff75dff060000f0aef86b68a3421c
:0e0e1000f1d128003100fff739fe0120f8bdb6
:020000040000fa
:020e1e00fee7ed
:020000040000fa
:100e2000bff35f8f62b6074bc22080001a58064995
:100e30001140c02212020a431a50802292001a6006
:0c0e40007047c04600e100e0ff00ffff2b
:020000040000fa
:100e4c00094b5b8b5b070dd0074b80221a76793ae6
:100e5c005a831b7e5b0705d5034b04211a8d1a7e22
:0c0e6c000a42fbd17047c046000800425b
:020000040000fa
:100e7800094b5b8b5b070dd0074b80221a76793aba
:100e88005a831b7e5b0705d5034b04211a8d1a7ef6
:0c0e98000a42fbd17047c046001c00421b
:020000040000fa
:100ea400020000234832d356591e0b431370042307
:100eb4004268134005d0102313434360012040428d
:0a0ec40070470364c3631800fae7e7
:020000040000fa
:100ece00f7b5002507000c002e000192019b9e42f3
:100ede0001db2800febd62682168380000f02bf8a7
:080eee0001362d180834f1e76c
:020000040000fa
:100ef600f7b5002507000c002e000192019b9e42cb
:100f060001db2800febd62682168380000f047f862
:080f160001362d180834f1e743
:020000040000fa
:100f1e00012370b544689c43651a102d0ad94218f6
:100f2e0019432b4311605360083203514160100086
:060f3e00fff705fb70bd8a
:020000040000fa
:100f440010b50c000023002809d10300002a06d0a4
:100f540001212000fff746fd0028f9d001231800e5
:020f640010bdbe
:020000040000fa
:020f6600fee7a4
:020000040000fa
:100f6800064b0130c000c258002a05d10200083ad9
:100f7800d21819184a60c2507047c04610040020a1
:020000040000fa
:100f8800044b00221a609a60034a5a6004221a60cd
:0c0f98007047c04610e000e07fbb000086
:020000040000fa
:100fa40070b50d001400012801d0200070bd21008f
:0c0fb4002800fff721fe0028f9d0f6e726
:020000040000fa
:100fc00010b50400fff76eff002805d1a368e268a2
:0a0fd000a36163619b18a36210bdca
:020000040000fa
:020fda0070475e
:020000040000fa
:100fdc00d0400b1cd1409c46203ad340184352427f
:100fec0063469340184370479140031c90409c46c5
:100ffc00203a9340194352426346d34019437047f9
:020000040000fa
:10100c00006810b5002801da002010bdfff7d2fef1
:06101c00431cfad1f8e7c5
:020000040000fa
:02102200704715
:020000040000fa
:10102400034b00229a601a6801210a431a60704730
:0410340010e000e0e8
:020000040000fa
:1010380010b500f037f8024b1860586010bdc04674
:04104800b4060020ca
:020000040000fa
:10104c004a424a41802310b55200db00fff7f0fc06
:02105c0010bdc5
:020000040000fa
:10105e00002310b59a4200d110bdcc5cc4540133ac
:02106e00f8e7a1
:020000040000fa
:1010700010b5fff7e1ff00f018f800f016f810bd0a
:020000040000fa
:0c108000014b82225a6070470040004182
:020000040000fa
:0c108c000138014b5860704710e000e094
:020000040000fa
:0a10980010b50068fff782ff10bddd
:020000040000fa
:0810a20010b5fff782fb10bd41
:020000040000fa
:0210aa0070478d
:020000040000fa
:0810ac000048704738070020de
:020000040000fa
:0610b400012040427047dc
:020000040000fa
:0410ba00002070475b
:020000040000fa
:0410be000020704757
:020000040000fa
:0210c200704775
:020000040000fa
:0200000400807a
:0440000077c700d8a6
:020000040000fa
:0200000400807a
:044004005c00ffff5e
:00000001FF
